{
  "contractName": "Certificate",
  "abi": [
    {
      "inputs": [],
      "stateMutability": "nonpayable",
      "type": "constructor"
    },
    {
      "inputs": [
        {
          "internalType": "address",
          "name": "_verify",
          "type": "address"
        },
        {
          "internalType": "address",
          "name": "_add",
          "type": "address"
        }
      ],
      "name": "setStudentAddress",
      "outputs": [
        {
          "internalType": "bool",
          "name": "",
          "type": "bool"
        }
      ],
      "stateMutability": "nonpayable",
      "type": "function"
    },
    {
      "inputs": [
        {
          "internalType": "address",
          "name": "_verify",
          "type": "address"
        },
        {
          "components": [
            {
              "components": [
                {
                  "internalType": "address",
                  "name": "schoolContractAddress",
                  "type": "address"
                },
                {
                  "internalType": "string",
                  "name": "id",
                  "type": "string"
                },
                {
                  "internalType": "string",
                  "name": "name",
                  "type": "string"
                },
                {
                  "internalType": "string",
                  "name": "add",
                  "type": "string"
                },
                {
                  "internalType": "string",
                  "name": "email",
                  "type": "string"
                }
              ],
              "internalType": "struct School_Info",
              "name": "schoolInfo",
              "type": "tuple"
            },
            {
              "internalType": "enum ECertificateCategory",
              "name": "category",
              "type": "uint8"
            },
            {
              "internalType": "enum EHonor",
              "name": "honor",
              "type": "uint8"
            },
            {
              "internalType": "enum EStudyStatus",
              "name": "status",
              "type": "uint8"
            },
            {
              "internalType": "string",
              "name": "major",
              "type": "string"
            },
            {
              "internalType": "string",
              "name": "description",
              "type": "string"
            },
            {
              "internalType": "uint256",
              "name": "certificateId",
              "type": "uint256"
            },
            {
              "internalType": "uint256",
              "name": "admissionTimestamp",
              "type": "uint256"
            },
            {
              "internalType": "uint256",
              "name": "graduationTimestamp",
              "type": "uint256"
            },
            {
              "components": [
                {
                  "internalType": "uint256",
                  "name": "id",
                  "type": "uint256"
                },
                {
                  "internalType": "string",
                  "name": "nationality",
                  "type": "string"
                },
                {
                  "internalType": "string",
                  "name": "nric",
                  "type": "string"
                },
                {
                  "internalType": "string",
                  "name": "passport",
                  "type": "string"
                },
                {
                  "internalType": "string",
                  "name": "name",
                  "type": "string"
                },
                {
                  "internalType": "string",
                  "name": "add",
                  "type": "string"
                }
              ],
              "internalType": "struct Student_Info",
              "name": "studentDetails",
              "type": "tuple"
            },
            {
              "internalType": "uint256",
              "name": "signature",
              "type": "uint256"
            }
          ],
          "internalType": "struct Certificate_Info",
          "name": "_cert",
          "type": "tuple"
        }
      ],
      "name": "setCertificate",
      "outputs": [
        {
          "internalType": "bool",
          "name": "",
          "type": "bool"
        }
      ],
      "stateMutability": "nonpayable",
      "type": "function"
    },
    {
      "inputs": [
        {
          "internalType": "address",
          "name": "_verify",
          "type": "address"
        }
      ],
      "name": "getCertificate",
      "outputs": [
        {
          "components": [
            {
              "components": [
                {
                  "internalType": "address",
                  "name": "schoolContractAddress",
                  "type": "address"
                },
                {
                  "internalType": "string",
                  "name": "id",
                  "type": "string"
                },
                {
                  "internalType": "string",
                  "name": "name",
                  "type": "string"
                },
                {
                  "internalType": "string",
                  "name": "add",
                  "type": "string"
                },
                {
                  "internalType": "string",
                  "name": "email",
                  "type": "string"
                }
              ],
              "internalType": "struct School_Info",
              "name": "schoolInfo",
              "type": "tuple"
            },
            {
              "internalType": "enum ECertificateCategory",
              "name": "category",
              "type": "uint8"
            },
            {
              "internalType": "enum EHonor",
              "name": "honor",
              "type": "uint8"
            },
            {
              "internalType": "enum EStudyStatus",
              "name": "status",
              "type": "uint8"
            },
            {
              "internalType": "string",
              "name": "major",
              "type": "string"
            },
            {
              "internalType": "string",
              "name": "description",
              "type": "string"
            },
            {
              "internalType": "uint256",
              "name": "certificateId",
              "type": "uint256"
            },
            {
              "internalType": "uint256",
              "name": "admissionTimestamp",
              "type": "uint256"
            },
            {
              "internalType": "uint256",
              "name": "graduationTimestamp",
              "type": "uint256"
            },
            {
              "components": [
                {
                  "internalType": "uint256",
                  "name": "id",
                  "type": "uint256"
                },
                {
                  "internalType": "string",
                  "name": "nationality",
                  "type": "string"
                },
                {
                  "internalType": "string",
                  "name": "nric",
                  "type": "string"
                },
                {
                  "internalType": "string",
                  "name": "passport",
                  "type": "string"
                },
                {
                  "internalType": "string",
                  "name": "name",
                  "type": "string"
                },
                {
                  "internalType": "string",
                  "name": "add",
                  "type": "string"
                }
              ],
              "internalType": "struct Student_Info",
              "name": "studentDetails",
              "type": "tuple"
            },
            {
              "internalType": "uint256",
              "name": "signature",
              "type": "uint256"
            }
          ],
          "internalType": "struct Certificate_Info",
          "name": "",
          "type": "tuple"
        }
      ],
      "stateMutability": "view",
      "type": "function",
      "constant": true
    }
  ],
  "bytecode": "0x608060405234801561001057600080fd5b50336000806101000a81548173ffffffffffffffffffffffffffffffffffffffff021916908373ffffffffffffffffffffffffffffffffffffffff160217905550611bb5806100606000396000f3fe608060405234801561001057600080fd5b50600436106100415760003560e01c8063200dd9da14610046578063c7f06e6314610076578063fd531e93146100a6575b600080fd5b610060600480360381019061005b91906113a8565b6100d6565b60405161006d919061141f565b60405180910390f35b610090600480360381019061008b919061143a565b61035a565b60405161009d919061141f565b60405180910390f35b6100c060048036038101906100bb919061147a565b610404565b6040516100cd919061187f565b60405180910390f35b60008060009054906101000a900473ffffffffffffffffffffffffffffffffffffffff1673ffffffffffffffffffffffffffffffffffffffff168373ffffffffffffffffffffffffffffffffffffffff160361034f5781600260008201518160000160008201518160000160006101000a81548173ffffffffffffffffffffffffffffffffffffffff021916908373ffffffffffffffffffffffffffffffffffffffff16021790555060208201518160010190816101949190611aad565b5060408201518160020190816101aa9190611aad565b5060608201518160030190816101c09190611aad565b5060808201518160040190816101d69190611aad565b50505060208201518160050160006101000a81548160ff02191690836008811115610204576102036115c0565b5b021790555060408201518160050160016101000a81548160ff02191690836005811115610234576102336115c0565b5b021790555060608201518160050160026101000a81548160ff02191690836001811115610264576102636115c0565b5b0217905550608082015181600601908161027e9190611aad565b5060a08201518160070190816102949190611aad565b5060c0820151816008015560e0820151816009015561010082015181600a015561012082015181600b016000820151816000015560208201518160010190816102dd9190611aad565b5060408201518160020190816102f39190611aad565b5060608201518160030190816103099190611aad565b50608082015181600401908161031f9190611aad565b5060a08201518160050190816103359190611aad565b505050610140820151816011015590505060019050610354565b600090505b92915050565b60008273ffffffffffffffffffffffffffffffffffffffff1660008054906101000a900473ffffffffffffffffffffffffffffffffffffffff1673ffffffffffffffffffffffffffffffffffffffff16036103f95781600160006101000a81548173ffffffffffffffffffffffffffffffffffffffff021916908373ffffffffffffffffffffffffffffffffffffffff160217905550600190506103fe565b600090505b92915050565b61040c610c86565b8173ffffffffffffffffffffffffffffffffffffffff16600160009054906101000a900473ffffffffffffffffffffffffffffffffffffffff1673ffffffffffffffffffffffffffffffffffffffff1614806104b357508173ffffffffffffffffffffffffffffffffffffffff1660008054906101000a900473ffffffffffffffffffffffffffffffffffffffff1673ffffffffffffffffffffffffffffffffffffffff16145b15610c7457600260405180610160016040529081600082016040518060a00160405290816000820160009054906101000a900473ffffffffffffffffffffffffffffffffffffffff1673ffffffffffffffffffffffffffffffffffffffff1673ffffffffffffffffffffffffffffffffffffffff16815260200160018201805461053c906118d0565b80601f0160208091040260200160405190810160405280929190818152602001828054610568906118d0565b80156105b55780601f1061058a576101008083540402835291602001916105b5565b820191906000526020600020905b81548152906001019060200180831161059857829003601f168201915b505050505081526020016002820180546105ce906118d0565b80601f01602080910402602001604051908101604052809291908181526020018280546105fa906118d0565b80156106475780601f1061061c57610100808354040283529160200191610647565b820191906000526020600020905b81548152906001019060200180831161062a57829003601f168201915b50505050508152602001600382018054610660906118d0565b80601f016020809104026020016040519081016040528092919081815260200182805461068c906118d0565b80156106d95780601f106106ae576101008083540402835291602001916106d9565b820191906000526020600020905b8154815290600101906020018083116106bc57829003601f168201915b505050505081526020016004820180546106f2906118d0565b80601f016020809104026020016040519081016040528092919081815260200182805461071e906118d0565b801561076b5780601f106107405761010080835404028352916020019161076b565b820191906000526020600020905b81548152906001019060200180831161074e57829003601f168201915b50505050508152505081526020016005820160009054906101000a900460ff16600881111561079d5761079c6115c0565b5b60088111156107af576107ae6115c0565b5b81526020016005820160019054906101000a900460ff1660058111156107d8576107d76115c0565b5b60058111156107ea576107e96115c0565b5b81526020016005820160029054906101000a900460ff166001811115610813576108126115c0565b5b6001811115610825576108246115c0565b5b8152602001600682018054610839906118d0565b80601f0160208091040260200160405190810160405280929190818152602001828054610865906118d0565b80156108b25780601f10610887576101008083540402835291602001916108b2565b820191906000526020600020905b81548152906001019060200180831161089557829003601f168201915b505050505081526020016007820180546108cb906118d0565b80601f01602080910402602001604051908101604052809291908181526020018280546108f7906118d0565b80156109445780601f1061091957610100808354040283529160200191610944565b820191906000526020600020905b81548152906001019060200180831161092757829003601f168201915b505050505081526020016008820154815260200160098201548152602001600a8201548152602001600b82016040518060c001604052908160008201548152602001600182018054610995906118d0565b80601f01602080910402602001604051908101604052809291908181526020018280546109c1906118d0565b8015610a0e5780601f106109e357610100808354040283529160200191610a0e565b820191906000526020600020905b8154815290600101906020018083116109f157829003601f168201915b50505050508152602001600282018054610a27906118d0565b80601f0160208091040260200160405190810160405280929190818152602001828054610a53906118d0565b8015610aa05780601f10610a7557610100808354040283529160200191610aa0565b820191906000526020600020905b815481529060010190602001808311610a8357829003601f168201915b50505050508152602001600382018054610ab9906118d0565b80601f0160208091040260200160405190810160405280929190818152602001828054610ae5906118d0565b8015610b325780601f10610b0757610100808354040283529160200191610b32565b820191906000526020600020905b815481529060010190602001808311610b1557829003601f168201915b50505050508152602001600482018054610b4b906118d0565b80601f0160208091040260200160405190810160405280929190818152602001828054610b77906118d0565b8015610bc45780601f10610b9957610100808354040283529160200191610bc4565b820191906000526020600020905b815481529060010190602001808311610ba757829003601f168201915b50505050508152602001600582018054610bdd906118d0565b80601f0160208091040260200160405190810160405280929190818152602001828054610c09906118d0565b8015610c565780601f10610c2b57610100808354040283529160200191610c56565b820191906000526020600020905b815481529060010190602001808311610c3957829003601f168201915b50505050508152505081526020016011820154815250509050610c81565b610c7c610c86565b809150505b919050565b604051806101600160405280610c9a610d22565b815260200160006008811115610cb357610cb26115c0565b5b815260200160006005811115610ccc57610ccb6115c0565b5b815260200160006001811115610ce557610ce46115c0565b5b81526020016060815260200160608152602001600081526020016000815260200160008152602001610d15610d67565b8152602001600081525090565b6040518060a00160405280600073ffffffffffffffffffffffffffffffffffffffff168152602001606081526020016060815260200160608152602001606081525090565b6040518060c001604052806000815260200160608152602001606081526020016060815260200160608152602001606081525090565b6000604051905090565b600080fd5b600080fd5b600073ffffffffffffffffffffffffffffffffffffffff82169050919050565b6000610ddc82610db1565b9050919050565b610dec81610dd1565b8114610df757600080fd5b50565b600081359050610e0981610de3565b92915050565b600080fd5b6000601f19601f8301169050919050565b7f4e487b7100000000000000000000000000000000000000000000000000000000600052604160045260246000fd5b610e5d82610e14565b810181811067ffffffffffffffff82111715610e7c57610e7b610e25565b5b80604052505050565b6000610e8f610d9d565b9050610e9b8282610e54565b919050565b600080fd5b600080fd5b600080fd5b600067ffffffffffffffff821115610eca57610ec9610e25565b5b610ed382610e14565b9050602081019050919050565b82818337600083830152505050565b6000610f02610efd84610eaf565b610e85565b905082815260208101848484011115610f1e57610f1d610eaa565b5b610f29848285610ee0565b509392505050565b600082601f830112610f4657610f45610ea5565b5b8135610f56848260208601610eef565b91505092915050565b600060a08284031215610f7557610f74610e0f565b5b610f7f60a0610e85565b90506000610f8f84828501610dfa565b600083015250602082013567ffffffffffffffff811115610fb357610fb2610ea0565b5b610fbf84828501610f31565b602083015250604082013567ffffffffffffffff811115610fe357610fe2610ea0565b5b610fef84828501610f31565b604083015250606082013567ffffffffffffffff81111561101357611012610ea0565b5b61101f84828501610f31565b606083015250608082013567ffffffffffffffff81111561104357611042610ea0565b5b61104f84828501610f31565b60808301525092915050565b6009811061106857600080fd5b50565b60008135905061107a8161105b565b92915050565b6006811061108d57600080fd5b50565b60008135905061109f81611080565b92915050565b600281106110b257600080fd5b50565b6000813590506110c4816110a5565b92915050565b6000819050919050565b6110dd816110ca565b81146110e857600080fd5b50565b6000813590506110fa816110d4565b92915050565b600060c0828403121561111657611115610e0f565b5b61112060c0610e85565b90506000611130848285016110eb565b600083015250602082013567ffffffffffffffff81111561115457611153610ea0565b5b61116084828501610f31565b602083015250604082013567ffffffffffffffff81111561118457611183610ea0565b5b61119084828501610f31565b604083015250606082013567ffffffffffffffff8111156111b4576111b3610ea0565b5b6111c084828501610f31565b606083015250608082013567ffffffffffffffff8111156111e4576111e3610ea0565b5b6111f084828501610f31565b60808301525060a082013567ffffffffffffffff81111561121457611213610ea0565b5b61122084828501610f31565b60a08301525092915050565b6000610160828403121561124357611242610e0f565b5b61124e610160610e85565b9050600082013567ffffffffffffffff81111561126e5761126d610ea0565b5b61127a84828501610f5f565b600083015250602061128e8482850161106b565b60208301525060406112a284828501611090565b60408301525060606112b6848285016110b5565b606083015250608082013567ffffffffffffffff8111156112da576112d9610ea0565b5b6112e684828501610f31565b60808301525060a082013567ffffffffffffffff81111561130a57611309610ea0565b5b61131684828501610f31565b60a08301525060c061132a848285016110eb565b60c08301525060e061133e848285016110eb565b60e083015250610100611353848285016110eb565b6101008301525061012082013567ffffffffffffffff81111561137957611378610ea0565b5b61138584828501611100565b6101208301525061014061139b848285016110eb565b6101408301525092915050565b600080604083850312156113bf576113be610da7565b5b60006113cd85828601610dfa565b925050602083013567ffffffffffffffff8111156113ee576113ed610dac565b5b6113fa8582860161122c565b9150509250929050565b60008115159050919050565b61141981611404565b82525050565b60006020820190506114346000830184611410565b92915050565b6000806040838503121561145157611450610da7565b5b600061145f85828601610dfa565b925050602061147085828601610dfa565b9150509250929050565b6000602082840312156114905761148f610da7565b5b600061149e84828501610dfa565b91505092915050565b6114b081610dd1565b82525050565b600081519050919050565b600082825260208201905092915050565b60005b838110156114f05780820151818401526020810190506114d5565b60008484015250505050565b6000611507826114b6565b61151181856114c1565b93506115218185602086016114d2565b61152a81610e14565b840191505092915050565b600060a08301600083015161154d60008601826114a7565b506020830151848203602086015261156582826114fc565b9150506040830151848203604086015261157f82826114fc565b9150506060830151848203606086015261159982826114fc565b915050608083015184820360808601526115b382826114fc565b9150508091505092915050565b7f4e487b7100000000000000000000000000000000000000000000000000000000600052602160045260246000fd5b60098110611600576115ff6115c0565b5b50565b6000819050611611826115ef565b919050565b600061162182611603565b9050919050565b61163181611616565b82525050565b60068110611648576116476115c0565b5b50565b600081905061165982611637565b919050565b60006116698261164b565b9050919050565b6116798161165e565b82525050565b600281106116905761168f6115c0565b5b50565b60008190506116a18261167f565b919050565b60006116b182611693565b9050919050565b6116c1816116a6565b82525050565b6116d0816110ca565b82525050565b600060c0830160008301516116ee60008601826116c7565b506020830151848203602086015261170682826114fc565b9150506040830151848203604086015261172082826114fc565b9150506060830151848203606086015261173a82826114fc565b9150506080830151848203608086015261175482826114fc565b91505060a083015184820360a086015261176e82826114fc565b9150508091505092915050565b60006101608301600083015184820360008601526117998282611535565b91505060208301516117ae6020860182611628565b5060408301516117c16040860182611670565b5060608301516117d460608601826116b8565b50608083015184820360808601526117ec82826114fc565b91505060a083015184820360a086015261180682826114fc565b91505060c083015161181b60c08601826116c7565b5060e083015161182e60e08601826116c7565b506101008301516118436101008601826116c7565b5061012083015184820361012086015261185d82826116d6565b9150506101408301516118746101408601826116c7565b508091505092915050565b60006020820190508181036000830152611899818461177b565b905092915050565b7f4e487b7100000000000000000000000000000000000000000000000000000000600052602260045260246000fd5b600060028204905060018216806118e857607f821691505b6020821081036118fb576118fa6118a1565b5b50919050565b60008190508160005260206000209050919050565b60006020601f8301049050919050565b600082821b905092915050565b6000600883026119637fffffffffffffffffffffffffffffffffffffffffffffffffffffffffffffffff82611926565b61196d8683611926565b95508019841693508086168417925050509392505050565b6000819050919050565b60006119aa6119a56119a0846110ca565b611985565b6110ca565b9050919050565b6000819050919050565b6119c48361198f565b6119d86119d0826119b1565b848454611933565b825550505050565b600090565b6119ed6119e0565b6119f88184846119bb565b505050565b5b81811015611a1c57611a116000826119e5565b6001810190506119fe565b5050565b601f821115611a6157611a3281611901565b611a3b84611916565b81016020851015611a4a578190505b611a5e611a5685611916565b8301826119fd565b50505b505050565b600082821c905092915050565b6000611a8460001984600802611a66565b1980831691505092915050565b6000611a9d8383611a73565b9150826002028217905092915050565b611ab6826114b6565b67ffffffffffffffff811115611acf57611ace610e25565b5b611ad982546118d0565b611ae4828285611a20565b600060209050601f831160018114611b175760008415611b05578287015190505b611b0f8582611a91565b865550611b77565b601f198416611b2586611901565b60005b82811015611b4d57848901518255600182019150602085019450602081019050611b28565b86831015611b6a5784890151611b66601f891682611a73565b8355505b6001600288020188555050505b50505050505056fea2646970667358221220302495588d76fb1f2d965f772b95b267b9334ef94805e8459af112cd4f99a35764736f6c63430008130033",
  "immutableReferences": {},
  "source": "//SPDX-License-Identifier: MIT\npragma solidity ^0.8.0;\n\nimport \"./Definition.sol\";\nimport \"./ICertificate.sol\";\n\ncontract Certificate is ICertificate\n{\n    address private school;\n    address private student;\n    Certificate_Info private cert;\n\n    constructor()\n    {\n        school = msg.sender;\n        // student = _stud;\n    }\n\n    function setStudentAddress(address _verify, address _add) external override returns (bool)\n    {\n        if (school == _verify)\n        {\n            student = _add;\n            return true;\n        }\n        return false;\n    }\n    \n    function setCertificate(address _verify, Certificate_Info memory _cert) external override returns (bool)\n    {\n        if (_verify == school)\n        {\n            cert = _cert;\n            return true;\n        }\n        else\n        {\n            return false;\n        }\n        \n    }\n\n    function getCertificate(address _verify) external override view returns (Certificate_Info memory)\n    {\n        if (student == _verify || school == _verify)\n        {\n            return cert;\n        }\n        Certificate_Info memory _cert;\n        return _cert;\n    }\n\n}",
  "sourcePath": "/Users/zhougaoqiang/Documents/GitHub/SmartCertify/web-app/blockchain/contracts/Certificate.sol",
  "compiler": {
    "name": "solc",
    "version": "0.8.19+commit.7dd6d404.Emscripten.clang"
  },
  "schemaVersion": "3.4.16",
  "updatedAt": "2024-03-31T05:43:07.506Z",
  "networkType": "ethereum",
  "devdoc": {
    "kind": "dev",
    "methods": {},
    "version": 1
  },
  "userdoc": {
    "kind": "user",
    "methods": {},
    "version": 1
  }
}