{
  "contractName": "Company",
  "abi": [
    {
      "inputs": [
        {
          "internalType": "address",
          "name": "_gov",
          "type": "address"
        },
        {
          "internalType": "string",
          "name": "_uenNo",
          "type": "string"
        },
        {
          "internalType": "string",
          "name": "_name",
          "type": "string"
        },
        {
          "internalType": "string",
          "name": "_profile",
          "type": "string"
        },
        {
          "internalType": "string",
          "name": "_add",
          "type": "string"
        }
      ],
      "stateMutability": "nonpayable",
      "type": "constructor"
    },
    {
      "anonymous": false,
      "inputs": [
        {
          "indexed": false,
          "internalType": "bool",
          "name": "result",
          "type": "bool"
        }
      ],
      "name": "VerificationResult",
      "type": "event"
    },
    {
      "anonymous": false,
      "inputs": [
        {
          "indexed": false,
          "internalType": "uint256",
          "name": "",
          "type": "uint256"
        }
      ],
      "name": "hasCertificate",
      "type": "event"
    },
    {
      "inputs": [],
      "name": "companyInfo",
      "outputs": [
        {
          "internalType": "uint256",
          "name": "id",
          "type": "uint256"
        },
        {
          "internalType": "string",
          "name": "uenNo",
          "type": "string"
        },
        {
          "internalType": "string",
          "name": "name",
          "type": "string"
        },
        {
          "internalType": "string",
          "name": "profile",
          "type": "string"
        },
        {
          "internalType": "string",
          "name": "add",
          "type": "string"
        }
      ],
      "stateMutability": "view",
      "type": "function"
    },
    {
      "inputs": [],
      "name": "tmpCertifcate",
      "outputs": [
        {
          "components": [
            {
              "internalType": "address",
              "name": "schoolContractAddress",
              "type": "address"
            },
            {
              "internalType": "string",
              "name": "id",
              "type": "string"
            },
            {
              "internalType": "string",
              "name": "name",
              "type": "string"
            },
            {
              "internalType": "string",
              "name": "add",
              "type": "string"
            },
            {
              "internalType": "string",
              "name": "email",
              "type": "string"
            }
          ],
          "internalType": "struct School_Info",
          "name": "schoolInfo",
          "type": "tuple"
        },
        {
          "internalType": "enum ECertificateCategory",
          "name": "category",
          "type": "uint8"
        },
        {
          "internalType": "enum EHonor",
          "name": "honor",
          "type": "uint8"
        },
        {
          "internalType": "enum EStudyStatus",
          "name": "status",
          "type": "uint8"
        },
        {
          "internalType": "string",
          "name": "major",
          "type": "string"
        },
        {
          "internalType": "string",
          "name": "description",
          "type": "string"
        },
        {
          "internalType": "uint256",
          "name": "certificateId",
          "type": "uint256"
        },
        {
          "internalType": "uint256",
          "name": "admissionTimestamp",
          "type": "uint256"
        },
        {
          "internalType": "uint256",
          "name": "graduationTimestamp",
          "type": "uint256"
        },
        {
          "components": [
            {
              "internalType": "uint256",
              "name": "id",
              "type": "uint256"
            },
            {
              "internalType": "string",
              "name": "nationality",
              "type": "string"
            },
            {
              "internalType": "string",
              "name": "nric",
              "type": "string"
            },
            {
              "internalType": "string",
              "name": "passport",
              "type": "string"
            },
            {
              "internalType": "string",
              "name": "name",
              "type": "string"
            },
            {
              "internalType": "string",
              "name": "add",
              "type": "string"
            }
          ],
          "internalType": "struct Student_Info",
          "name": "studentDetails",
          "type": "tuple"
        },
        {
          "internalType": "uint256",
          "name": "signature",
          "type": "uint256"
        }
      ],
      "stateMutability": "view",
      "type": "function"
    },
    {
      "inputs": [
        {
          "internalType": "address",
          "name": "_add",
          "type": "address"
        }
      ],
      "name": "addAdmin",
      "outputs": [],
      "stateMutability": "nonpayable",
      "type": "function"
    },
    {
      "inputs": [
        {
          "internalType": "address",
          "name": "_add",
          "type": "address"
        }
      ],
      "name": "removeAdmin",
      "outputs": [],
      "stateMutability": "nonpayable",
      "type": "function"
    },
    {
      "inputs": [
        {
          "components": [
            {
              "internalType": "uint256",
              "name": "id",
              "type": "uint256"
            },
            {
              "internalType": "string",
              "name": "uenNo",
              "type": "string"
            },
            {
              "internalType": "string",
              "name": "name",
              "type": "string"
            },
            {
              "internalType": "string",
              "name": "profile",
              "type": "string"
            },
            {
              "internalType": "string",
              "name": "add",
              "type": "string"
            }
          ],
          "internalType": "struct Company_Info",
          "name": "_info",
          "type": "tuple"
        }
      ],
      "name": "setCompanyInfo",
      "outputs": [],
      "stateMutability": "nonpayable",
      "type": "function"
    },
    {
      "inputs": [
        {
          "components": [
            {
              "internalType": "uint256",
              "name": "id",
              "type": "uint256"
            },
            {
              "internalType": "string",
              "name": "nationality",
              "type": "string"
            },
            {
              "internalType": "string",
              "name": "nric",
              "type": "string"
            },
            {
              "internalType": "string",
              "name": "passport",
              "type": "string"
            },
            {
              "internalType": "string",
              "name": "name",
              "type": "string"
            },
            {
              "internalType": "string",
              "name": "add",
              "type": "string"
            }
          ],
          "internalType": "struct Personal_Info",
          "name": "_personalInfo",
          "type": "tuple"
        },
        {
          "internalType": "address",
          "name": "_candicator",
          "type": "address"
        }
      ],
      "name": "addCandicator",
      "outputs": [],
      "stateMutability": "nonpayable",
      "type": "function"
    },
    {
      "inputs": [
        {
          "internalType": "uint256",
          "name": "_id",
          "type": "uint256"
        }
      ],
      "name": "removeCandicator",
      "outputs": [
        {
          "internalType": "bool",
          "name": "",
          "type": "bool"
        }
      ],
      "stateMutability": "nonpayable",
      "type": "function"
    },
    {
      "inputs": [],
      "name": "getAllCandidates",
      "outputs": [
        {
          "components": [
            {
              "internalType": "uint256",
              "name": "id",
              "type": "uint256"
            },
            {
              "internalType": "string",
              "name": "nationality",
              "type": "string"
            },
            {
              "internalType": "string",
              "name": "nric",
              "type": "string"
            },
            {
              "internalType": "string",
              "name": "passport",
              "type": "string"
            },
            {
              "internalType": "string",
              "name": "name",
              "type": "string"
            },
            {
              "internalType": "string",
              "name": "add",
              "type": "string"
            }
          ],
          "internalType": "struct Personal_Info[]",
          "name": "",
          "type": "tuple[]"
        }
      ],
      "stateMutability": "view",
      "type": "function"
    },
    {
      "inputs": [
        {
          "internalType": "uint256",
          "name": "_id",
          "type": "uint256"
        }
      ],
      "name": "getSandidateCertifcates",
      "outputs": [
        {
          "components": [
            {
              "components": [
                {
                  "internalType": "address",
                  "name": "schoolContractAddress",
                  "type": "address"
                },
                {
                  "internalType": "string",
                  "name": "id",
                  "type": "string"
                },
                {
                  "internalType": "string",
                  "name": "name",
                  "type": "string"
                },
                {
                  "internalType": "string",
                  "name": "add",
                  "type": "string"
                },
                {
                  "internalType": "string",
                  "name": "email",
                  "type": "string"
                }
              ],
              "internalType": "struct School_Info",
              "name": "schoolInfo",
              "type": "tuple"
            },
            {
              "internalType": "enum ECertificateCategory",
              "name": "category",
              "type": "uint8"
            },
            {
              "internalType": "enum EHonor",
              "name": "honor",
              "type": "uint8"
            },
            {
              "internalType": "enum EStudyStatus",
              "name": "status",
              "type": "uint8"
            },
            {
              "internalType": "string",
              "name": "major",
              "type": "string"
            },
            {
              "internalType": "string",
              "name": "description",
              "type": "string"
            },
            {
              "internalType": "uint256",
              "name": "certificateId",
              "type": "uint256"
            },
            {
              "internalType": "uint256",
              "name": "admissionTimestamp",
              "type": "uint256"
            },
            {
              "internalType": "uint256",
              "name": "graduationTimestamp",
              "type": "uint256"
            },
            {
              "components": [
                {
                  "internalType": "uint256",
                  "name": "id",
                  "type": "uint256"
                },
                {
                  "internalType": "string",
                  "name": "nationality",
                  "type": "string"
                },
                {
                  "internalType": "string",
                  "name": "nric",
                  "type": "string"
                },
                {
                  "internalType": "string",
                  "name": "passport",
                  "type": "string"
                },
                {
                  "internalType": "string",
                  "name": "name",
                  "type": "string"
                },
                {
                  "internalType": "string",
                  "name": "add",
                  "type": "string"
                }
              ],
              "internalType": "struct Student_Info",
              "name": "studentDetails",
              "type": "tuple"
            },
            {
              "internalType": "uint256",
              "name": "signature",
              "type": "uint256"
            }
          ],
          "internalType": "struct Certificate_Info[]",
          "name": "",
          "type": "tuple[]"
        }
      ],
      "stateMutability": "view",
      "type": "function"
    },
    {
      "inputs": [
        {
          "internalType": "uint256",
          "name": "_id",
          "type": "uint256"
        },
        {
          "internalType": "uint8",
          "name": "_index",
          "type": "uint8"
        }
      ],
      "name": "fetchCertificate",
      "outputs": [
        {
          "internalType": "bool",
          "name": "",
          "type": "bool"
        }
      ],
      "stateMutability": "nonpayable",
      "type": "function"
    },
    {
      "inputs": [],
      "name": "verifyCertificateIssuedSchool",
      "outputs": [
        {
          "internalType": "bool",
          "name": "",
          "type": "bool"
        }
      ],
      "stateMutability": "view",
      "type": "function"
    },
    {
      "inputs": [],
      "name": "verifyStaffCertificate",
      "outputs": [
        {
          "internalType": "bool",
          "name": "",
          "type": "bool"
        }
      ],
      "stateMutability": "nonpayable",
      "type": "function"
    },
    {
      "inputs": [],
      "name": "verifyStaffCertificateSignature",
      "outputs": [
        {
          "internalType": "bool",
          "name": "",
          "type": "bool"
        }
      ],
      "stateMutability": "view",
      "type": "function"
    }
  ],
  "bytecode": "0x60806040523480156200001157600080fd5b50604051620051fe380380620051fe833981810160405281019062000037919062000349565b84600960006101000a81548173ffffffffffffffffffffffffffffffffffffffff021916908373ffffffffffffffffffffffffffffffffffffffff160217905550336000806101000a81548173ffffffffffffffffffffffffffffffffffffffff021916908373ffffffffffffffffffffffffffffffffffffffff1602179055508360046001019081620000cc919062000698565b508260046002019081620000e1919062000698565b508160046003019081620000f6919062000698565b50806004800190816200010a919062000698565b5083838383604051602001620001249493929190620007c1565b6040516020818303038152906040528051906020012060001c600460000181905550505050505062000807565b6000604051905090565b600080fd5b600080fd5b600073ffffffffffffffffffffffffffffffffffffffff82169050919050565b6000620001928262000165565b9050919050565b620001a48162000185565b8114620001b057600080fd5b50565b600081519050620001c48162000199565b92915050565b600080fd5b600080fd5b6000601f19601f8301169050919050565b7f4e487b7100000000000000000000000000000000000000000000000000000000600052604160045260246000fd5b6200021f82620001d4565b810181811067ffffffffffffffff82111715620002415762000240620001e5565b5b80604052505050565b60006200025662000151565b905062000264828262000214565b919050565b600067ffffffffffffffff821115620002875762000286620001e5565b5b6200029282620001d4565b9050602081019050919050565b60005b83811015620002bf578082015181840152602081019050620002a2565b60008484015250505050565b6000620002e2620002dc8462000269565b6200024a565b905082815260208101848484011115620003015762000300620001cf565b5b6200030e8482856200029f565b509392505050565b600082601f8301126200032e576200032d620001ca565b5b815162000340848260208601620002cb565b91505092915050565b600080600080600060a086880312156200036857620003676200015b565b5b60006200037888828901620001b3565b955050602086015167ffffffffffffffff8111156200039c576200039b62000160565b5b620003aa8882890162000316565b945050604086015167ffffffffffffffff811115620003ce57620003cd62000160565b5b620003dc8882890162000316565b935050606086015167ffffffffffffffff8111156200040057620003ff62000160565b5b6200040e8882890162000316565b925050608086015167ffffffffffffffff81111562000432576200043162000160565b5b620004408882890162000316565b9150509295509295909350565b600081519050919050565b7f4e487b7100000000000000000000000000000000000000000000000000000000600052602260045260246000fd5b60006002820490506001821680620004a057607f821691505b602082108103620004b657620004b562000458565b5b50919050565b60008190508160005260206000209050919050565b60006020601f8301049050919050565b600082821b905092915050565b600060088302620005207fffffffffffffffffffffffffffffffffffffffffffffffffffffffffffffffff82620004e1565b6200052c8683620004e1565b95508019841693508086168417925050509392505050565b6000819050919050565b6000819050919050565b600062000579620005736200056d8462000544565b6200054e565b62000544565b9050919050565b6000819050919050565b620005958362000558565b620005ad620005a48262000580565b848454620004ee565b825550505050565b600090565b620005c4620005b5565b620005d18184846200058a565b505050565b5b81811015620005f957620005ed600082620005ba565b600181019050620005d7565b5050565b601f82111562000648576200061281620004bc565b6200061d84620004d1565b810160208510156200062d578190505b620006456200063c85620004d1565b830182620005d6565b50505b505050565b600082821c905092915050565b60006200066d600019846008026200064d565b1980831691505092915050565b60006200068883836200065a565b9150826002028217905092915050565b620006a3826200044d565b67ffffffffffffffff811115620006bf57620006be620001e5565b5b620006cb825462000487565b620006d8828285620005fd565b600060209050601f831160018114620007105760008415620006fb578287015190505b6200070785826200067a565b86555062000777565b601f1984166200072086620004bc565b60005b828110156200074a5784890151825560018201915060208501945060208101905062000723565b868310156200076a578489015162000766601f8916826200065a565b8355505b6001600288020188555050505b505050505050565b600081905092915050565b600062000797826200044d565b620007a381856200077f565b9350620007b58185602086016200029f565b80840191505092915050565b6000620007cf82876200078a565b9150620007dd82866200078a565b9150620007eb82856200078a565b9150620007f982846200078a565b915081905095945050505050565b6149e780620008176000396000f3fe608060405234801561001057600080fd5b50600436106100ce5760003560e01c8063373b88381161008c5780636bbf0da4116100665780636bbf0da4146101f15780637048027514610221578063dc1814741461023d578063ee5a2f3414610265576100ce565b8063373b88381461019b57806340f61fe7146101b7578063472737ef146101d5576100ce565b8062913fe5146100d3578063070874d4146100f15780631785f53c1461010f5780631a424eec1461012b5780632e6997fe1461015b57806336f281a914610179575b600080fd5b6100db610295565b6040516100e891906127ef565b60405180910390f35b6100f9610383565b60405161010691906127ef565b60405180910390f35b6101296004803603810190610124919061287c565b610c03565b005b610145600480360381019061014091906128df565b610cec565b60405161015291906127ef565b60405180910390f35b610163610fbf565b6040516101709190612b12565b60405180910390f35b6101816113eb565b604051610192959493929190612b8d565b60405180910390f35b6101b560048036038101906101b09190612e37565b61162f565b005b6101bf611783565b6040516101cc91906127ef565b60405180910390f35b6101ef60048036038101906101ea9190612fac565b61184e565b005b61020b600480360381019061020691906128df565b611a37565b6040516102189190613414565b60405180910390f35b61023b6004803603810190610236919061287c565b611aed565b005b610245611bd5565b60405161025c9b9a99989796959493929190613593565b60405180910390f35b61027f600480360381019061027a9190613693565b6122ea565b60405161028c91906127ef565b60405180910390f35b600080600a60000160000160009054906101000a900473ffffffffffffffffffffffffffffffffffffffff16905060008173ffffffffffffffffffffffffffffffffffffffff166379ad7957600a6040518263ffffffff1660e01b81526004016102ff9190613b45565b6020604051808303816000875af115801561031e573d6000803e3d6000fd5b505050506040513d601f19601f820116820180604052508101906103429190613b93565b90507fc245dfbdf37b342c5a621e8d770f240c63597d37154b774cedbe8f30e72816b58160405161037391906127ef565b60405180910390a1809250505090565b600080610b43600a60405180610160016040529081600082016040518060a00160405290816000820160009054906101000a900473ffffffffffffffffffffffffffffffffffffffff1673ffffffffffffffffffffffffffffffffffffffff1673ffffffffffffffffffffffffffffffffffffffff16815260200160018201805461040d90613749565b80601f016020809104026020016040519081016040528092919081815260200182805461043990613749565b80156104865780601f1061045b57610100808354040283529160200191610486565b820191906000526020600020905b81548152906001019060200180831161046957829003601f168201915b5050505050815260200160028201805461049f90613749565b80601f01602080910402602001604051908101604052809291908181526020018280546104cb90613749565b80156105185780601f106104ed57610100808354040283529160200191610518565b820191906000526020600020905b8154815290600101906020018083116104fb57829003601f168201915b5050505050815260200160038201805461053190613749565b80601f016020809104026020016040519081016040528092919081815260200182805461055d90613749565b80156105aa5780601f1061057f576101008083540402835291602001916105aa565b820191906000526020600020905b81548152906001019060200180831161058d57829003601f168201915b505050505081526020016004820180546105c390613749565b80601f01602080910402602001604051908101604052809291908181526020018280546105ef90613749565b801561063c5780601f106106115761010080835404028352916020019161063c565b820191906000526020600020905b81548152906001019060200180831161061f57829003601f168201915b50505050508152505081526020016005820160009054906101000a900460ff16600881111561066e5761066d6130ce565b5b60088111156106805761067f6130ce565b5b81526020016005820160019054906101000a900460ff1660058111156106a9576106a86130ce565b5b60058111156106bb576106ba6130ce565b5b81526020016005820160029054906101000a900460ff1660018111156106e4576106e36130ce565b5b60018111156106f6576106f56130ce565b5b815260200160068201805461070a90613749565b80601f016020809104026020016040519081016040528092919081815260200182805461073690613749565b80156107835780601f1061075857610100808354040283529160200191610783565b820191906000526020600020905b81548152906001019060200180831161076657829003601f168201915b5050505050815260200160078201805461079c90613749565b80601f01602080910402602001604051908101604052809291908181526020018280546107c890613749565b80156108155780601f106107ea57610100808354040283529160200191610815565b820191906000526020600020905b8154815290600101906020018083116107f857829003601f168201915b505050505081526020016008820154815260200160098201548152602001600a8201548152602001600b82016040518060c00160405290816000820154815260200160018201805461086690613749565b80601f016020809104026020016040519081016040528092919081815260200182805461089290613749565b80156108df5780601f106108b4576101008083540402835291602001916108df565b820191906000526020600020905b8154815290600101906020018083116108c257829003601f168201915b505050505081526020016002820180546108f890613749565b80601f016020809104026020016040519081016040528092919081815260200182805461092490613749565b80156109715780601f1061094657610100808354040283529160200191610971565b820191906000526020600020905b81548152906001019060200180831161095457829003601f168201915b5050505050815260200160038201805461098a90613749565b80601f01602080910402602001604051908101604052809291908181526020018280546109b690613749565b8015610a035780601f106109d857610100808354040283529160200191610a03565b820191906000526020600020905b8154815290600101906020018083116109e657829003601f168201915b50505050508152602001600482018054610a1c90613749565b80601f0160208091040260200160405190810160405280929190818152602001828054610a4890613749565b8015610a955780601f10610a6a57610100808354040283529160200191610a95565b820191906000526020600020905b815481529060010190602001808311610a7857829003601f168201915b50505050508152602001600582018054610aae90613749565b80601f0160208091040260200160405190810160405280929190818152602001828054610ada90613749565b8015610b275780601f10610afc57610100808354040283529160200191610b27565b820191906000526020600020905b815481529060010190602001808311610b0a57829003601f168201915b5050505050815250508152602001601182015481525050612668565b90506000600a60000160000160009054906101000a900473ffffffffffffffffffffffffffffffffffffffff16905060008173ffffffffffffffffffffffffffffffffffffffff16637cab7024600a600b0160000154856040518363ffffffff1660e01b8152600401610bb7929190613bc0565b602060405180830381865afa158015610bd4573d6000803e3d6000fd5b505050506040513d601f19601f82011682018060405250810190610bf89190613b93565b905080935050505090565b60008054906101000a900473ffffffffffffffffffffffffffffffffffffffff1673ffffffffffffffffffffffffffffffffffffffff163373ffffffffffffffffffffffffffffffffffffffff1614610c91576040517f08c379a0000000000000000000000000000000000000000000000000000000008152600401610c8890613c35565b60405180910390fd5b6000600160008373ffffffffffffffffffffffffffffffffffffffff1673ffffffffffffffffffffffffffffffffffffffff16815260200190815260200160002060006101000a81548160ff02191690831515021790555050565b60003373ffffffffffffffffffffffffffffffffffffffff1660008054906101000a900473ffffffffffffffffffffffffffffffffffffffff1673ffffffffffffffffffffffffffffffffffffffff161480610d98575060011515600160003373ffffffffffffffffffffffffffffffffffffffff1673ffffffffffffffffffffffffffffffffffffffff16815260200190815260200160002060009054906101000a900460ff161515145b610dd7576040517f08c379a0000000000000000000000000000000000000000000000000000000008152600401610dce90613ca1565b60405180910390fd5b60005b600280549050811015610fb4578260028281548110610dfc57610dfb613cc1565b5b90600052602060002090600602016000015403610fa1576003600084815260200190815260200160002060006101000a81549073ffffffffffffffffffffffffffffffffffffffff021916905560026001600280549050610e5d9190613d1f565b81548110610e6e57610e6d613cc1565b5b906000526020600020906006020160028281548110610e9057610e8f613cc1565b5b90600052602060002090600602016000820154816000015560018201816001019081610ebc9190613f00565b5060028201816002019081610ed19190613f00565b5060038201816003019081610ee69190613f00565b5060048201816004019081610efb9190613f00565b5060058201816005019081610f109190613f00565b509050506002805480610f2657610f25613fe8565b5b6001900381819060005260206000209060060201600080820160009055600182016000610f539190612777565b600282016000610f639190612777565b600382016000610f739190612777565b600482016000610f839190612777565b600582016000610f939190612777565b505090556001915050610fba565b8080610fac90614017565b915050610dda565b50600090505b919050565b60603373ffffffffffffffffffffffffffffffffffffffff1660008054906101000a900473ffffffffffffffffffffffffffffffffffffffff1673ffffffffffffffffffffffffffffffffffffffff16148061106b575060011515600160003373ffffffffffffffffffffffffffffffffffffffff1673ffffffffffffffffffffffffffffffffffffffff16815260200190815260200160002060009054906101000a900460ff161515145b6110aa576040517f08c379a00000000000000000000000000000000000000000000000000000000081526004016110a190613ca1565b60405180910390fd5b6002805480602002602001604051908101604052809291908181526020016000905b828210156113e257838290600052602060002090600602016040518060c00160405290816000820154815260200160018201805461110990613749565b80601f016020809104026020016040519081016040528092919081815260200182805461113590613749565b80156111825780601f1061115757610100808354040283529160200191611182565b820191906000526020600020905b81548152906001019060200180831161116557829003601f168201915b5050505050815260200160028201805461119b90613749565b80601f01602080910402602001604051908101604052809291908181526020018280546111c790613749565b80156112145780601f106111e957610100808354040283529160200191611214565b820191906000526020600020905b8154815290600101906020018083116111f757829003601f168201915b5050505050815260200160038201805461122d90613749565b80601f016020809104026020016040519081016040528092919081815260200182805461125990613749565b80156112a65780601f1061127b576101008083540402835291602001916112a6565b820191906000526020600020905b81548152906001019060200180831161128957829003601f168201915b505050505081526020016004820180546112bf90613749565b80601f01602080910402602001604051908101604052809291908181526020018280546112eb90613749565b80156113385780601f1061130d57610100808354040283529160200191611338565b820191906000526020600020905b81548152906001019060200180831161131b57829003601f168201915b5050505050815260200160058201805461135190613749565b80601f016020809104026020016040519081016040528092919081815260200182805461137d90613749565b80156113ca5780601f1061139f576101008083540402835291602001916113ca565b820191906000526020600020905b8154815290600101906020018083116113ad57829003601f168201915b505050505081525050815260200190600101906110cc565b50505050905090565b600480600001549080600101805461140290613749565b80601f016020809104026020016040519081016040528092919081815260200182805461142e90613749565b801561147b5780601f106114505761010080835404028352916020019161147b565b820191906000526020600020905b81548152906001019060200180831161145e57829003601f168201915b50505050509080600201805461149090613749565b80601f01602080910402602001604051908101604052809291908181526020018280546114bc90613749565b80156115095780601f106114de57610100808354040283529160200191611509565b820191906000526020600020905b8154815290600101906020018083116114ec57829003601f168201915b50505050509080600301805461151e90613749565b80601f016020809104026020016040519081016040528092919081815260200182805461154a90613749565b80156115975780601f1061156c57610100808354040283529160200191611597565b820191906000526020600020905b81548152906001019060200180831161157a57829003601f168201915b5050505050908060040180546115ac90613749565b80601f01602080910402602001604051908101604052809291908181526020018280546115d890613749565b80156116255780601f106115fa57610100808354040283529160200191611625565b820191906000526020600020905b81548152906001019060200180831161160857829003601f168201915b5050505050905085565b3373ffffffffffffffffffffffffffffffffffffffff1660008054906101000a900473ffffffffffffffffffffffffffffffffffffffff1673ffffffffffffffffffffffffffffffffffffffff1614806116d9575060011515600160003373ffffffffffffffffffffffffffffffffffffffff1673ffffffffffffffffffffffffffffffffffffffff16815260200190815260200160002060009054906101000a900460ff161515145b611718576040517f08c379a000000000000000000000000000000000000000000000000000000000815260040161170f90613ca1565b60405180910390fd5b80600460008201518160000155602082015181600101908161173a919061405f565b506040820151816002019081611750919061405f565b506060820151816003019081611766919061405f565b50608082015181600401908161177c919061405f565b5090505050565b6000600960009054906101000a900473ffffffffffffffffffffffffffffffffffffffff1673ffffffffffffffffffffffffffffffffffffffff1663856a503e600a60000160000160009054906101000a900473ffffffffffffffffffffffffffffffffffffffff166040518263ffffffff1660e01b81526004016118089190614140565b602060405180830381865afa158015611825573d6000803e3d6000fd5b505050506040513d601f19601f820116820180604052508101906118499190613b93565b905090565b3373ffffffffffffffffffffffffffffffffffffffff1660008054906101000a900473ffffffffffffffffffffffffffffffffffffffff1673ffffffffffffffffffffffffffffffffffffffff1614806118f8575060011515600160003373ffffffffffffffffffffffffffffffffffffffff1673ffffffffffffffffffffffffffffffffffffffff16815260200190815260200160002060009054906101000a900460ff161515145b611937576040517f08c379a000000000000000000000000000000000000000000000000000000000815260040161192e90613ca1565b60405180910390fd5b6002829080600181540180825580915050600190039060005260206000209060060201600090919091909150600082015181600001556020820151816001019081611982919061405f565b506040820151816002019081611998919061405f565b5060608201518160030190816119ae919061405f565b5060808201518160040190816119c4919061405f565b5060a08201518160050190816119da919061405f565b50505080600360008460000151815260200190815260200160002060006101000a81548173ffffffffffffffffffffffffffffffffffffffff021916908373ffffffffffffffffffffffffffffffffffffffff1602179055505050565b606060006003600084815260200190815260200160002060009054906101000a900473ffffffffffffffffffffffffffffffffffffffff1690508073ffffffffffffffffffffffffffffffffffffffff166313fcfe806040518163ffffffff1660e01b8152600401600060405180830381865afa158015611abc573d6000803e3d6000fd5b505050506040513d6000823e3d601f19601f82011682018060405250810190611ae591906146ee565b915050919050565b60008054906101000a900473ffffffffffffffffffffffffffffffffffffffff1673ffffffffffffffffffffffffffffffffffffffff163373ffffffffffffffffffffffffffffffffffffffff1614611b7b576040517f08c379a0000000000000000000000000000000000000000000000000000000008152600401611b7290613c35565b60405180910390fd5b60018060008373ffffffffffffffffffffffffffffffffffffffff1673ffffffffffffffffffffffffffffffffffffffff16815260200190815260200160002060006101000a81548160ff02191690831515021790555050565b600a806000016040518060a00160405290816000820160009054906101000a900473ffffffffffffffffffffffffffffffffffffffff1673ffffffffffffffffffffffffffffffffffffffff1673ffffffffffffffffffffffffffffffffffffffff168152602001600182018054611c4c90613749565b80601f0160208091040260200160405190810160405280929190818152602001828054611c7890613749565b8015611cc55780601f10611c9a57610100808354040283529160200191611cc5565b820191906000526020600020905b815481529060010190602001808311611ca857829003601f168201915b50505050508152602001600282018054611cde90613749565b80601f0160208091040260200160405190810160405280929190818152602001828054611d0a90613749565b8015611d575780601f10611d2c57610100808354040283529160200191611d57565b820191906000526020600020905b815481529060010190602001808311611d3a57829003601f168201915b50505050508152602001600382018054611d7090613749565b80601f0160208091040260200160405190810160405280929190818152602001828054611d9c90613749565b8015611de95780601f10611dbe57610100808354040283529160200191611de9565b820191906000526020600020905b815481529060010190602001808311611dcc57829003601f168201915b50505050508152602001600482018054611e0290613749565b80601f0160208091040260200160405190810160405280929190818152602001828054611e2e90613749565b8015611e7b5780601f10611e5057610100808354040283529160200191611e7b565b820191906000526020600020905b815481529060010190602001808311611e5e57829003601f168201915b505050505081525050908060050160009054906101000a900460ff16908060050160019054906101000a900460ff16908060050160029054906101000a900460ff1690806006018054611ecd90613749565b80601f0160208091040260200160405190810160405280929190818152602001828054611ef990613749565b8015611f465780601f10611f1b57610100808354040283529160200191611f46565b820191906000526020600020905b815481529060010190602001808311611f2957829003601f168201915b505050505090806007018054611f5b90613749565b80601f0160208091040260200160405190810160405280929190818152602001828054611f8790613749565b8015611fd45780601f10611fa957610100808354040283529160200191611fd4565b820191906000526020600020905b815481529060010190602001808311611fb757829003601f168201915b50505050509080600801549080600901549080600a01549080600b016040518060c00160405290816000820154815260200160018201805461201590613749565b80601f016020809104026020016040519081016040528092919081815260200182805461204190613749565b801561208e5780601f106120635761010080835404028352916020019161208e565b820191906000526020600020905b81548152906001019060200180831161207157829003601f168201915b505050505081526020016002820180546120a790613749565b80601f01602080910402602001604051908101604052809291908181526020018280546120d390613749565b80156121205780601f106120f557610100808354040283529160200191612120565b820191906000526020600020905b81548152906001019060200180831161210357829003601f168201915b5050505050815260200160038201805461213990613749565b80601f016020809104026020016040519081016040528092919081815260200182805461216590613749565b80156121b25780601f10612187576101008083540402835291602001916121b2565b820191906000526020600020905b81548152906001019060200180831161219557829003601f168201915b505050505081526020016004820180546121cb90613749565b80601f01602080910402602001604051908101604052809291908181526020018280546121f790613749565b80156122445780601f1061221957610100808354040283529160200191612244565b820191906000526020600020905b81548152906001019060200180831161222757829003601f168201915b5050505050815260200160058201805461225d90613749565b80601f016020809104026020016040519081016040528092919081815260200182805461228990613749565b80156122d65780601f106122ab576101008083540402835291602001916122d6565b820191906000526020600020905b8154815290600101906020018083116122b957829003601f168201915b50505050508152505090806011015490508b565b6000806003600085815260200190815260200160002060009054906101000a900473ffffffffffffffffffffffffffffffffffffffff1690508073ffffffffffffffffffffffffffffffffffffffff166313fcfe806040518163ffffffff1660e01b8152600401600060405180830381865afa15801561236e573d6000803e3d6000fd5b505050506040513d6000823e3d601f19601f8201168201806040525081019061239791906146ee565b518360ff16101561265c5760008173ffffffffffffffffffffffffffffffffffffffff166313fcfe806040518163ffffffff1660e01b8152600401600060405180830381865afa1580156123ef573d6000803e3d6000fd5b505050506040513d6000823e3d601f19601f8201168201806040525081019061241891906146ee565b9050808460ff16815181106124305761242f613cc1565b5b6020026020010151600a60008201518160000160008201518160000160006101000a81548173ffffffffffffffffffffffffffffffffffffffff021916908373ffffffffffffffffffffffffffffffffffffffff160217905550602082015181600101908161249f919061405f565b5060408201518160020190816124b5919061405f565b5060608201518160030190816124cb919061405f565b5060808201518160040190816124e1919061405f565b50505060208201518160050160006101000a81548160ff0219169083600881111561250f5761250e6130ce565b5b021790555060408201518160050160016101000a81548160ff0219169083600581111561253f5761253e6130ce565b5b021790555060608201518160050160026101000a81548160ff0219169083600181111561256f5761256e6130ce565b5b02179055506080820151816006019081612589919061405f565b5060a082015181600701908161259f919061405f565b5060c0820151816008015560e0820151816009015561010082015181600a015561012082015181600b016000820151816000015560208201518160010190816125e8919061405f565b5060408201518160020190816125fe919061405f565b506060820151816003019081612614919061405f565b50608082015181600401908161262a919061405f565b5060a0820151816005019081612640919061405f565b5050506101408201518160110155905050600192505050612662565b60009150505b92915050565b600080826000015190506000816000015182602001518360600151846080015185604001516040516020016126a19594939291906147bb565b604051602081830303815290604052805190602001209050600084610120015190506000816000015182602001518360400151846060015185608001518660a001516040516020016126f89695949392919061482b565b60405160208183030381529060405280519060200120905060008382886020015189604001518a606001518b608001518c60a001518d60c001518e60e0015160405160200161274f99989796959493929190614916565b6040516020818303038152906040528051906020012090508060001c95505050505050919050565b50805461278390613749565b6000825580601f1061279557506127b4565b601f0160209004906000526020600020908101906127b391906127b7565b5b50565b5b808211156127d05760008160009055506001016127b8565b5090565b60008115159050919050565b6127e9816127d4565b82525050565b600060208201905061280460008301846127e0565b92915050565b6000604051905090565b600080fd5b600080fd5b600073ffffffffffffffffffffffffffffffffffffffff82169050919050565b60006128498261281e565b9050919050565b6128598161283e565b811461286457600080fd5b50565b60008135905061287681612850565b92915050565b60006020828403121561289257612891612814565b5b60006128a084828501612867565b91505092915050565b6000819050919050565b6128bc816128a9565b81146128c757600080fd5b50565b6000813590506128d9816128b3565b92915050565b6000602082840312156128f5576128f4612814565b5b6000612903848285016128ca565b91505092915050565b600081519050919050565b600082825260208201905092915050565b6000819050602082019050919050565b612941816128a9565b82525050565b600081519050919050565b600082825260208201905092915050565b60005b83811015612981578082015181840152602081019050612966565b60008484015250505050565b6000601f19601f8301169050919050565b60006129a982612947565b6129b38185612952565b93506129c3818560208601612963565b6129cc8161298d565b840191505092915050565b600060c0830160008301516129ef6000860182612938565b5060208301518482036020860152612a07828261299e565b91505060408301518482036040860152612a21828261299e565b91505060608301518482036060860152612a3b828261299e565b91505060808301518482036080860152612a55828261299e565b91505060a083015184820360a0860152612a6f828261299e565b9150508091505092915050565b6000612a8883836129d7565b905092915050565b6000602082019050919050565b6000612aa88261290c565b612ab28185612917565b935083602082028501612ac485612928565b8060005b85811015612b005784840389528151612ae18582612a7c565b9450612aec83612a90565b925060208a01995050600181019050612ac8565b50829750879550505050505092915050565b60006020820190508181036000830152612b2c8184612a9d565b905092915050565b612b3d816128a9565b82525050565b600082825260208201905092915050565b6000612b5f82612947565b612b698185612b43565b9350612b79818560208601612963565b612b828161298d565b840191505092915050565b600060a082019050612ba26000830188612b34565b8181036020830152612bb48187612b54565b90508181036040830152612bc88186612b54565b90508181036060830152612bdc8185612b54565b90508181036080830152612bf08184612b54565b90509695505050505050565b600080fd5b7f4e487b7100000000000000000000000000000000000000000000000000000000600052604160045260246000fd5b612c398261298d565b810181811067ffffffffffffffff82111715612c5857612c57612c01565b5b80604052505050565b6000612c6b61280a565b9050612c778282612c30565b919050565b600080fd5b600080fd5b600080fd5b600067ffffffffffffffff821115612ca657612ca5612c01565b5b612caf8261298d565b9050602081019050919050565b82818337600083830152505050565b6000612cde612cd984612c8b565b612c61565b905082815260208101848484011115612cfa57612cf9612c86565b5b612d05848285612cbc565b509392505050565b600082601f830112612d2257612d21612c81565b5b8135612d32848260208601612ccb565b91505092915050565b600060a08284031215612d5157612d50612bfc565b5b612d5b60a0612c61565b90506000612d6b848285016128ca565b600083015250602082013567ffffffffffffffff811115612d8f57612d8e612c7c565b5b612d9b84828501612d0d565b602083015250604082013567ffffffffffffffff811115612dbf57612dbe612c7c565b5b612dcb84828501612d0d565b604083015250606082013567ffffffffffffffff811115612def57612dee612c7c565b5b612dfb84828501612d0d565b606083015250608082013567ffffffffffffffff811115612e1f57612e1e612c7c565b5b612e2b84828501612d0d565b60808301525092915050565b600060208284031215612e4d57612e4c612814565b5b600082013567ffffffffffffffff811115612e6b57612e6a612819565b5b612e7784828501612d3b565b91505092915050565b600060c08284031215612e9657612e95612bfc565b5b612ea060c0612c61565b90506000612eb0848285016128ca565b600083015250602082013567ffffffffffffffff811115612ed457612ed3612c7c565b5b612ee084828501612d0d565b602083015250604082013567ffffffffffffffff811115612f0457612f03612c7c565b5b612f1084828501612d0d565b604083015250606082013567ffffffffffffffff811115612f3457612f33612c7c565b5b612f4084828501612d0d565b606083015250608082013567ffffffffffffffff811115612f6457612f63612c7c565b5b612f7084828501612d0d565b60808301525060a082013567ffffffffffffffff811115612f9457612f93612c7c565b5b612fa084828501612d0d565b60a08301525092915050565b60008060408385031215612fc357612fc2612814565b5b600083013567ffffffffffffffff811115612fe157612fe0612819565b5b612fed85828601612e80565b9250506020612ffe85828601612867565b9150509250929050565b600081519050919050565b600082825260208201905092915050565b6000819050602082019050919050565b61303d8161283e565b82525050565b600060a08301600083015161305b6000860182613034565b5060208301518482036020860152613073828261299e565b9150506040830151848203604086015261308d828261299e565b915050606083015184820360608601526130a7828261299e565b915050608083015184820360808601526130c1828261299e565b9150508091505092915050565b7f4e487b7100000000000000000000000000000000000000000000000000000000600052602160045260246000fd5b6009811061310e5761310d6130ce565b5b50565b600081905061311f826130fd565b919050565b600061312f82613111565b9050919050565b61313f81613124565b82525050565b60068110613156576131556130ce565b5b50565b600081905061316782613145565b919050565b600061317782613159565b9050919050565b6131878161316c565b82525050565b6002811061319e5761319d6130ce565b5b50565b60008190506131af8261318d565b919050565b60006131bf826131a1565b9050919050565b6131cf816131b4565b82525050565b600060c0830160008301516131ed6000860182612938565b5060208301518482036020860152613205828261299e565b9150506040830151848203604086015261321f828261299e565b91505060608301518482036060860152613239828261299e565b91505060808301518482036080860152613253828261299e565b91505060a083015184820360a086015261326d828261299e565b9150508091505092915050565b60006101608301600083015184820360008601526132988282613043565b91505060208301516132ad6020860182613136565b5060408301516132c0604086018261317e565b5060608301516132d360608601826131c6565b50608083015184820360808601526132eb828261299e565b91505060a083015184820360a0860152613305828261299e565b91505060c083015161331a60c0860182612938565b5060e083015161332d60e0860182612938565b50610100830151613342610100860182612938565b5061012083015184820361012086015261335c82826131d5565b915050610140830151613373610140860182612938565b508091505092915050565b600061338a838361327a565b905092915050565b6000602082019050919050565b60006133aa82613008565b6133b48185613013565b9350836020820285016133c685613024565b8060005b8581101561340257848403895281516133e3858261337e565b94506133ee83613392565b925060208a019950506001810190506133ca565b50829750879550505050505092915050565b6000602082019050818103600083015261342e818461339f565b905092915050565b600060a08301600083015161344e6000860182613034565b5060208301518482036020860152613466828261299e565b91505060408301518482036040860152613480828261299e565b9150506060830151848203606086015261349a828261299e565b915050608083015184820360808601526134b4828261299e565b9150508091505092915050565b6134ca81613124565b82525050565b6134d98161316c565b82525050565b6134e8816131b4565b82525050565b600060c0830160008301516135066000860182612938565b506020830151848203602086015261351e828261299e565b91505060408301518482036040860152613538828261299e565b91505060608301518482036060860152613552828261299e565b9150506080830151848203608086015261356c828261299e565b91505060a083015184820360a0860152613586828261299e565b9150508091505092915050565b60006101608201905081810360008301526135ae818e613436565b90506135bd602083018d6134c1565b6135ca604083018c6134d0565b6135d7606083018b6134df565b81810360808301526135e9818a612b54565b905081810360a08301526135fd8189612b54565b905061360c60c0830188612b34565b61361960e0830187612b34565b613627610100830186612b34565b81810361012083015261363a81856134ee565b905061364a610140830184612b34565b9c9b505050505050505050505050565b600060ff82169050919050565b6136708161365a565b811461367b57600080fd5b50565b60008135905061368d81613667565b92915050565b600080604083850312156136aa576136a9612814565b5b60006136b8858286016128ca565b92505060206136c98582860161367e565b9150509250929050565b60008160001c9050919050565b600073ffffffffffffffffffffffffffffffffffffffff82169050919050565b600061371361370e836136d3565b6136e0565b9050919050565b7f4e487b7100000000000000000000000000000000000000000000000000000000600052602260045260246000fd5b6000600282049050600182168061376157607f821691505b6020821081036137745761377361371a565b5b50919050565b60008190508160005260206000209050919050565b6000815461379c81613749565b6137a68186612952565b945060018216600081146137c157600181146137d75761380a565b60ff19831686528115156020028601935061380a565b6137e08561377a565b60005b83811015613802578154818901526001820191506020810190506137e3565b808801955050505b50505092915050565b600060a08301600080840154905061382a81613700565b6138376000870182613034565b5060018401858303602087015261384e838261378f565b925050600284018583036040870152613867838261378f565b925050600384018583036060870152613880838261378f565b925050600484018583036080870152613899838261378f565b925050819250505092915050565b600060ff82169050919050565b60006138c76138c2836136d3565b6138a7565b9050919050565b60008160081c9050919050565b600060ff82169050919050565b60006138fb6138f6836138ce565b6138db565b9050919050565b60008160101c9050919050565b600060ff82169050919050565b600061392f61392a83613902565b61390f565b9050919050565b6000819050919050565b600061395361394e836136d3565b613936565b9050919050565b600060c08301600080840154905061397181613940565b61397e6000870182612938565b50600184018583036020870152613995838261378f565b9250506002840185830360408701526139ae838261378f565b9250506003840185830360608701526139c7838261378f565b9250506004840185830360808701526139e0838261378f565b9250506005840185830360a08701526139f9838261378f565b925050819250505092915050565b6000610160830160008084018583036000870152613a258382613813565b92505060058401549050613a38816138b4565b613a456020870182613136565b50613a4f816138e8565b613a5c604087018261317e565b50613a668161391c565b613a7360608701826131c6565b50600684018583036080870152613a8a838261378f565b9250506007840185830360a0870152613aa3838261378f565b92505060088401549050613ab681613940565b613ac360c0870182612938565b5060098401549050613ad481613940565b613ae160e0870182612938565b50600a8401549050613af281613940565b613b00610100870182612938565b50600b8401858303610120870152613b18838261395a565b92505060118401549050613b2b81613940565b613b39610140870182612938565b50819250505092915050565b60006020820190508181036000830152613b5f8184613a07565b905092915050565b613b70816127d4565b8114613b7b57600080fd5b50565b600081519050613b8d81613b67565b92915050565b600060208284031215613ba957613ba8612814565b5b6000613bb784828501613b7e565b91505092915050565b6000604082019050613bd56000830185612b34565b613be26020830184612b34565b9392505050565b7f6f6e6c79206f776e657220616c6c6f7765640000000000000000000000000000600082015250565b6000613c1f601283612b43565b9150613c2a82613be9565b602082019050919050565b60006020820190508181036000830152613c4e81613c12565b9050919050565b7f6f6e6c7920676f7665726d656e742061646d696e20697320616c6c6f77656400600082015250565b6000613c8b601f83612b43565b9150613c9682613c55565b602082019050919050565b60006020820190508181036000830152613cba81613c7e565b9050919050565b7f4e487b7100000000000000000000000000000000000000000000000000000000600052603260045260246000fd5b7f4e487b7100000000000000000000000000000000000000000000000000000000600052601160045260246000fd5b6000613d2a826128a9565b9150613d35836128a9565b9250828203905081811115613d4d57613d4c613cf0565b5b92915050565b600081549050613d6281613749565b9050919050565b60006020601f8301049050919050565b600082821b905092915050565b600060088302613db67fffffffffffffffffffffffffffffffffffffffffffffffffffffffffffffffff82613d79565b613dc08683613d79565b95508019841693508086168417925050509392505050565b6000819050919050565b6000613dfd613df8613df3846128a9565b613dd8565b6128a9565b9050919050565b6000819050919050565b613e1783613de2565b613e2b613e2382613e04565b848454613d86565b825550505050565b600090565b613e40613e33565b613e4b818484613e0e565b505050565b5b81811015613e6f57613e64600082613e38565b600181019050613e51565b5050565b601f821115613eb457613e858161377a565b613e8e84613d69565b81016020851015613e9d578190505b613eb1613ea985613d69565b830182613e50565b50505b505050565b600082821c905092915050565b6000613ed760001984600802613eb9565b1980831691505092915050565b6000613ef08383613ec6565b9150826002028217905092915050565b818103613f0e575050613fe6565b613f1782613d53565b67ffffffffffffffff811115613f3057613f2f612c01565b5b613f3a8254613749565b613f45828285613e73565b6000601f831160018114613f745760008415613f62578287015490505b613f6c8582613ee4565b865550613fdf565b601f198416613f828761377a565b9650613f8d8661377a565b60005b82811015613fb557848901548255600182019150600185019450602081019050613f90565b86831015613fd25784890154613fce601f891682613ec6565b8355505b6001600288020188555050505b5050505050505b565b7f4e487b7100000000000000000000000000000000000000000000000000000000600052603160045260246000fd5b6000614022826128a9565b91507fffffffffffffffffffffffffffffffffffffffffffffffffffffffffffffffff820361405457614053613cf0565b5b600182019050919050565b61406882612947565b67ffffffffffffffff81111561408157614080612c01565b5b61408b8254613749565b614096828285613e73565b600060209050601f8311600181146140c957600084156140b7578287015190505b6140c18582613ee4565b865550614129565b601f1984166140d78661377a565b60005b828110156140ff578489015182556001820191506020850194506020810190506140da565b8683101561411c5784890151614118601f891682613ec6565b8355505b6001600288020188555050505b505050505050565b61413a8161283e565b82525050565b60006020820190506141556000830184614131565b92915050565b600067ffffffffffffffff82111561417657614175612c01565b5b602082029050602081019050919050565b600080fd5b60008151905061419b81612850565b92915050565b60006141b46141af84612c8b565b612c61565b9050828152602081018484840111156141d0576141cf612c86565b5b6141db848285612963565b509392505050565b600082601f8301126141f8576141f7612c81565b5b81516142088482602086016141a1565b91505092915050565b600060a0828403121561422757614226612bfc565b5b61423160a0612c61565b905060006142418482850161418c565b600083015250602082015167ffffffffffffffff81111561426557614264612c7c565b5b614271848285016141e3565b602083015250604082015167ffffffffffffffff81111561429557614294612c7c565b5b6142a1848285016141e3565b604083015250606082015167ffffffffffffffff8111156142c5576142c4612c7c565b5b6142d1848285016141e3565b606083015250608082015167ffffffffffffffff8111156142f5576142f4612c7c565b5b614301848285016141e3565b60808301525092915050565b6009811061431a57600080fd5b50565b60008151905061432c8161430d565b92915050565b6006811061433f57600080fd5b50565b60008151905061435181614332565b92915050565b6002811061436457600080fd5b50565b60008151905061437681614357565b92915050565b60008151905061438b816128b3565b92915050565b600060c082840312156143a7576143a6612bfc565b5b6143b160c0612c61565b905060006143c18482850161437c565b600083015250602082015167ffffffffffffffff8111156143e5576143e4612c7c565b5b6143f1848285016141e3565b602083015250604082015167ffffffffffffffff81111561441557614414612c7c565b5b614421848285016141e3565b604083015250606082015167ffffffffffffffff81111561444557614444612c7c565b5b614451848285016141e3565b606083015250608082015167ffffffffffffffff81111561447557614474612c7c565b5b614481848285016141e3565b60808301525060a082015167ffffffffffffffff8111156144a5576144a4612c7c565b5b6144b1848285016141e3565b60a08301525092915050565b600061016082840312156144d4576144d3612bfc565b5b6144df610160612c61565b9050600082015167ffffffffffffffff8111156144ff576144fe612c7c565b5b61450b84828501614211565b600083015250602061451f8482850161431d565b602083015250604061453384828501614342565b604083015250606061454784828501614367565b606083015250608082015167ffffffffffffffff81111561456b5761456a612c7c565b5b614577848285016141e3565b60808301525060a082015167ffffffffffffffff81111561459b5761459a612c7c565b5b6145a7848285016141e3565b60a08301525060c06145bb8482850161437c565b60c08301525060e06145cf8482850161437c565b60e0830152506101006145e48482850161437c565b6101008301525061012082015167ffffffffffffffff81111561460a57614609612c7c565b5b61461684828501614391565b6101208301525061014061462c8482850161437c565b6101408301525092915050565b600061464c6146478461415b565b612c61565b9050808382526020820190506020840283018581111561466f5761466e614187565b5b835b818110156146b657805167ffffffffffffffff81111561469457614693612c81565b5b8086016146a189826144bd565b85526020850194505050602081019050614671565b5050509392505050565b600082601f8301126146d5576146d4612c81565b5b81516146e5848260208601614639565b91505092915050565b60006020828403121561470457614703612814565b5b600082015167ffffffffffffffff81111561472257614721612819565b5b61472e848285016146c0565b91505092915050565b60008160601b9050919050565b600061474f82614737565b9050919050565b600061476182614744565b9050919050565b6147796147748261283e565b614756565b82525050565b600081905092915050565b600061479582612947565b61479f818561477f565b93506147af818560208601612963565b80840191505092915050565b60006147c78288614768565b6014820191506147d7828761478a565b91506147e3828661478a565b91506147ef828561478a565b91506147fb828461478a565b91508190509695505050505050565b6000819050919050565b614825614820826128a9565b61480a565b82525050565b60006148378289614814565b602082019150614847828861478a565b9150614853828761478a565b915061485f828661478a565b915061486b828561478a565b9150614877828461478a565b9150819050979650505050505050565b6000819050919050565b6000819050919050565b6148ac6148a782614887565b614891565b82525050565b60008160f81b9050919050565b60006148ca826148b2565b9050919050565b6148e26148dd82613124565b6148bf565b82525050565b6148f96148f48261316c565b6148bf565b82525050565b61491061490b826131b4565b6148bf565b82525050565b6000614922828c61489b565b602082019150614932828b61489b565b602082019150614942828a6148d1565b60018201915061495282896148e8565b60018201915061496282886148ff565b600182019150614972828761478a565b915061497e828661478a565b915061498a8285614814565b60208201915061499a8284614814565b6020820191508190509a995050505050505050505056fea2646970667358221220a8e22dbf5fe02518be3e83521c6ee9c46fe059669847d93833aa337735b46d7e64736f6c63430008130033",
  "immutableReferences": {},
  "source": "//SPDX-License-Identifier: MIT\npragma solidity ^0.8.0;\n\nimport \"./Definition.sol\";\nimport \"./IGovernment.sol\";\nimport \"./ISchool.sol\";\nimport \"./IPerson.sol\";\nimport \"./CertificateHashLib.sol\";\n\ncontract Company\n{\n    using CertificateHashLib for * ;\n    event VerificationResult(bool result);\n    event hasCertificate(uint256);\n\n\n    address owner;\n    mapping(address => bool) private adminList;\n\n    Personal_Info[] private candidateInfoList;\n    mapping(uint256 => address) private candidateAddresses;\n    Company_Info public companyInfo;\n    IGovernment governmentAddress;\n    Certificate_Info public tmpCertifcate;\n\n    constructor(address _gov, string memory _uenNo, \n        string memory _name, string memory _profile, string memory _add)\n    {\n        governmentAddress = IGovernment(_gov);\n        owner = msg.sender;\n        companyInfo.uenNo = _uenNo;\n        companyInfo.name = _name;\n        companyInfo.profile = _profile;\n        companyInfo.add = _add;\n        companyInfo.id = uint256(keccak256(abi.encodePacked(_uenNo, _name, _profile, _add)));\n    }\n\n    modifier onlyOwner()\n    {\n        require(msg.sender == owner, \"only owner allowed\");\n        _;\n    }\n\n    modifier onlyAdmin()\n    {\n        require(owner == msg.sender || adminList[msg.sender] == true, \"only goverment admin is allowed\");\n        _;\n    }\n\n    function addAdmin(address _add) public onlyOwner()\n    {\n        adminList[_add] = true;\n    }\n\n    function removeAdmin(address _add) public onlyOwner()\n    {\n        adminList[_add] = false;\n    }\n\n    function setCompanyInfo(Company_Info memory _info) public onlyAdmin()\n    {\n        companyInfo = _info;\n    }\n\n    function addCandicator(Personal_Info memory _personalInfo, address _candicator) public onlyAdmin()\n    {\n        candidateInfoList.push(_personalInfo);\n        candidateAddresses[_personalInfo.id] = _candicator;\n    }\n\n    function removeCandicator(uint256 _id) public onlyAdmin() returns (bool)\n    {\n        for(uint i = 0; i < candidateInfoList.length; i++)\n        {\n            if (candidateInfoList[i].id == _id)\n            {\n                delete candidateAddresses[_id];\n                candidateInfoList[i] = candidateInfoList[candidateInfoList.length - 1];\n                candidateInfoList.pop();\n                return true;\n            }\n        }\n        return false;\n    }\n\n    function getAllCandidates() public view onlyAdmin() returns (Personal_Info[] memory)\n    {\n        return candidateInfoList;\n    }\n\n    // id in personal infor;\n    function getSandidateCertifcates(uint256 _id) public view returns (Certificate_Info[] memory)\n    {\n        IPerson per = IPerson(candidateAddresses[_id]);\n        return per.getAllCertificates();\n    }\n\n //step 1\n    function fetchCertificate(uint256 _id, uint8 _index) public returns (bool)\n    {\n        IPerson per = IPerson(candidateAddresses[_id]);\n        if (_index < per.getAllCertificates().length)\n        {\n            Certificate_Info[] memory _certs = per.getAllCertificates();\n            tmpCertifcate = _certs[_index];\n            return true;\n        }\n        return false;\n    }\n\n    //step 2\n    function verifyCertificateIssuedSchool() public view returns (bool)\n    {\n        return governmentAddress.isRegisterSchool(tmpCertifcate.schoolInfo.schoolContractAddress);\n    }\n\n    // step 3 opt 1\n    function verifyStaffCertificate() public returns (bool)\n    {\n        ISchool schoolContract = ISchool(tmpCertifcate.schoolInfo.schoolContractAddress);\n        bool result = schoolContract.verifyGraduatedStudentCertificate(tmpCertifcate);\n        emit VerificationResult(result);\n        return result;\n    }\n\n    //step 3 opt 2.  ///better, should use this\n    function verifyStaffCertificateSignature() public view returns (bool)\n    {\n        uint256 hc = CertificateHashLib.hashCertificate(tmpCertifcate);\n        ISchool schoolContract = ISchool(tmpCertifcate.schoolInfo.schoolContractAddress);\n        bool result = schoolContract.directVerifyGraduatedStudentCertificate(tmpCertifcate.studentDetails.id, hc);\n        return result;\n    }\n}",
  "sourcePath": "/Users/zhougaoqiang/Documents/GitHub/SmartCertify/web-app/blockchain/contracts/Company.sol",
  "compiler": {
    "name": "solc",
    "version": "0.8.19+commit.7dd6d404.Emscripten.clang"
  },
  "schemaVersion": "3.4.16",
  "updatedAt": "2024-03-31T05:43:06.592Z",
  "devdoc": {
    "kind": "dev",
    "methods": {},
    "version": 1
  },
  "userdoc": {
    "kind": "user",
    "methods": {},
    "version": 1
  }
}