{
  "contractName": "Government",
  "abi": [
    {
      "inputs": [],
      "stateMutability": "nonpayable",
      "type": "constructor"
    },
    {
      "inputs": [
        {
          "internalType": "address",
          "name": "_add",
          "type": "address"
        }
      ],
      "name": "addAdmin",
      "outputs": [],
      "stateMutability": "nonpayable",
      "type": "function"
    },
    {
      "inputs": [
        {
          "internalType": "address",
          "name": "_add",
          "type": "address"
        }
      ],
      "name": "removeAdmin",
      "outputs": [],
      "stateMutability": "nonpayable",
      "type": "function"
    },
    {
      "inputs": [
        {
          "internalType": "address",
          "name": "_add",
          "type": "address"
        }
      ],
      "name": "isRegisterCompany",
      "outputs": [
        {
          "internalType": "bool",
          "name": "",
          "type": "bool"
        }
      ],
      "stateMutability": "view",
      "type": "function",
      "constant": true
    },
    {
      "inputs": [
        {
          "internalType": "address",
          "name": "_add",
          "type": "address"
        }
      ],
      "name": "registerCompany",
      "outputs": [],
      "stateMutability": "nonpayable",
      "type": "function"
    },
    {
      "inputs": [
        {
          "internalType": "address",
          "name": "_add",
          "type": "address"
        }
      ],
      "name": "isRegisterSchool",
      "outputs": [
        {
          "internalType": "bool",
          "name": "",
          "type": "bool"
        }
      ],
      "stateMutability": "view",
      "type": "function",
      "constant": true
    },
    {
      "inputs": [
        {
          "internalType": "address",
          "name": "_add",
          "type": "address"
        }
      ],
      "name": "registerSchool",
      "outputs": [],
      "stateMutability": "nonpayable",
      "type": "function"
    },
    {
      "inputs": [
        {
          "internalType": "address",
          "name": "_add",
          "type": "address"
        }
      ],
      "name": "isRegisterPerson",
      "outputs": [
        {
          "internalType": "bool",
          "name": "",
          "type": "bool"
        }
      ],
      "stateMutability": "view",
      "type": "function",
      "constant": true
    },
    {
      "inputs": [
        {
          "internalType": "address",
          "name": "_add",
          "type": "address"
        }
      ],
      "name": "registerPerson",
      "outputs": [],
      "stateMutability": "nonpayable",
      "type": "function"
    }
  ],
  "bytecode": "0x608060405234801561001057600080fd5b50336000806101000a81548173ffffffffffffffffffffffffffffffffffffffff021916908373ffffffffffffffffffffffffffffffffffffffff16021790555060018060003373ffffffffffffffffffffffffffffffffffffffff1673ffffffffffffffffffffffffffffffffffffffff16815260200190815260200160002060006101000a81548160ff0219169083151502179055506109c1806100b76000396000f3fe608060405234801561001057600080fd5b50600436106100885760003560e01c8063a5fef0571161005b578063a5fef05714610111578063c9de9cdd1461012d578063e551658f14610149578063ff6b29c41461017957610088565b80631785f53c1461008d57806344f0f61c146100a957806370480275146100c5578063856a503e146100e1575b600080fd5b6100a760048036038101906100a291906108ab565b6101a9565b005b6100c360048036038101906100be91906108ab565b610292565b005b6100df60048036038101906100da91906108ab565b6103d6565b005b6100fb60048036038101906100f691906108ab565b6104be565b60405161010891906108f3565b60405180910390f35b61012b600480360381019061012691906108ab565b610514565b005b610147600480360381019061014291906108ab565b610658565b005b610163600480360381019061015e91906108ab565b61079c565b60405161017091906108f3565b60405180910390f35b610193600480360381019061018e91906108ab565b6107f2565b6040516101a091906108f3565b60405180910390f35b3373ffffffffffffffffffffffffffffffffffffffff1660008054906101000a900473ffffffffffffffffffffffffffffffffffffffff1673ffffffffffffffffffffffffffffffffffffffff1614610237576040517f08c379a000000000000000000000000000000000000000000000000000000000815260040161022e9061096b565b60405180910390fd5b6000600160008373ffffffffffffffffffffffffffffffffffffffff1673ffffffffffffffffffffffffffffffffffffffff16815260200190815260200160002060006101000a81548160ff02191690831515021790555050565b3373ffffffffffffffffffffffffffffffffffffffff1660008054906101000a900473ffffffffffffffffffffffffffffffffffffffff1673ffffffffffffffffffffffffffffffffffffffff16148061033c575060011515600160003373ffffffffffffffffffffffffffffffffffffffff1673ffffffffffffffffffffffffffffffffffffffff16815260200190815260200160002060009054906101000a900460ff161515145b61037b576040517f08c379a00000000000000000000000000000000000000000000000000000000081526004016103729061096b565b60405180910390fd5b6001600460008373ffffffffffffffffffffffffffffffffffffffff1673ffffffffffffffffffffffffffffffffffffffff16815260200190815260200160002060006101000a81548160ff02191690831515021790555050565b3373ffffffffffffffffffffffffffffffffffffffff1660008054906101000a900473ffffffffffffffffffffffffffffffffffffffff1673ffffffffffffffffffffffffffffffffffffffff1614610464576040517f08c379a000000000000000000000000000000000000000000000000000000000815260040161045b9061096b565b60405180910390fd5b60018060008373ffffffffffffffffffffffffffffffffffffffff1673ffffffffffffffffffffffffffffffffffffffff16815260200190815260200160002060006101000a81548160ff02191690831515021790555050565b6000600460008373ffffffffffffffffffffffffffffffffffffffff1673ffffffffffffffffffffffffffffffffffffffff16815260200190815260200160002060009054906101000a900460ff169050919050565b3373ffffffffffffffffffffffffffffffffffffffff1660008054906101000a900473ffffffffffffffffffffffffffffffffffffffff1673ffffffffffffffffffffffffffffffffffffffff1614806105be575060011515600160003373ffffffffffffffffffffffffffffffffffffffff1673ffffffffffffffffffffffffffffffffffffffff16815260200190815260200160002060009054906101000a900460ff161515145b6105fd576040517f08c379a00000000000000000000000000000000000000000000000000000000081526004016105f49061096b565b60405180910390fd5b6001600360008373ffffffffffffffffffffffffffffffffffffffff1673ffffffffffffffffffffffffffffffffffffffff16815260200190815260200160002060006101000a81548160ff02191690831515021790555050565b3373ffffffffffffffffffffffffffffffffffffffff1660008054906101000a900473ffffffffffffffffffffffffffffffffffffffff1673ffffffffffffffffffffffffffffffffffffffff161480610702575060011515600160003373ffffffffffffffffffffffffffffffffffffffff1673ffffffffffffffffffffffffffffffffffffffff16815260200190815260200160002060009054906101000a900460ff161515145b610741576040517f08c379a00000000000000000000000000000000000000000000000000000000081526004016107389061096b565b60405180910390fd5b6001600260008373ffffffffffffffffffffffffffffffffffffffff1673ffffffffffffffffffffffffffffffffffffffff16815260200190815260200160002060006101000a81548160ff02191690831515021790555050565b6000600360008373ffffffffffffffffffffffffffffffffffffffff1673ffffffffffffffffffffffffffffffffffffffff16815260200190815260200160002060009054906101000a900460ff169050919050565b6000600260008373ffffffffffffffffffffffffffffffffffffffff1673ffffffffffffffffffffffffffffffffffffffff16815260200190815260200160002060009054906101000a900460ff169050919050565b600080fd5b600073ffffffffffffffffffffffffffffffffffffffff82169050919050565b60006108788261084d565b9050919050565b6108888161086d565b811461089357600080fd5b50565b6000813590506108a58161087f565b92915050565b6000602082840312156108c1576108c0610848565b5b60006108cf84828501610896565b91505092915050565b60008115159050919050565b6108ed816108d8565b82525050565b600060208201905061090860008301846108e4565b92915050565b600082825260208201905092915050565b7f6f6e6c7920676f7665726d656e742061646d696e20697320616c6c6f77656400600082015250565b6000610955601f8361090e565b91506109608261091f565b602082019050919050565b6000602082019050818103600083015261098481610948565b905091905056fea26469706673582212208e5ff093abff57e76af9ef16de2e2f4a8cbcdbcb1fe4acf34ae95b1c625b8c3a64736f6c63430008130033",
  "immutableReferences": {},
  "source": "//SPDX-License-Identifier: MIT\npragma solidity ^0.8.0;\nimport \"./IGovernment.sol\";\n\ncontract Government is IGovernment\n{   \n    //default is false;\n    address owner;\n    mapping(address => bool) private adminList;\n    mapping(address => bool) private registeredPersons;\n    mapping(address => bool) private registeredCompanies;\n    mapping(address => bool) private registeredSchools;\n\n    constructor()\n    {\n        owner = msg.sender;\n        adminList[msg.sender] = true;\n    }\n\n    modifier onlyOwner()\n    {\n        require(owner == msg.sender, \"only goverment admin is allowed\");\n        _;\n    }\n\n    modifier onlyAdmin()\n    {\n        require(owner == msg.sender || adminList[msg.sender] == true, \"only goverment admin is allowed\");\n        _;\n    } \n\n    function addAdmin(address _add) public onlyOwner()\n    {\n        adminList[_add] = true;\n    }\n\n    function removeAdmin(address _add) public onlyOwner()\n    {\n        adminList[_add] = false;\n    }\n\n    function isRegisterCompany(address _add) external override view returns (bool)\n    {\n        return registeredCompanies[_add];\n    }\n\n    function registerCompany(address _add) public onlyAdmin()\n    {\n        registeredCompanies[_add] = true;\n    }\n\n    function isRegisterSchool(address _add) external override view returns (bool)\n    {\n        return registeredSchools[_add];\n    }\n\n    function registerSchool(address _add) public onlyAdmin()\n    {\n        registeredSchools[_add] = true;\n    }\n\n    function isRegisterPerson(address _add) external override view returns (bool)\n    {\n        return registeredPersons[_add];\n    }\n\n    function registerPerson(address _add) public onlyAdmin()\n    {\n        registeredPersons[_add] = true;\n    }\n}\n",
  "sourcePath": "/Users/zhougaoqiang/Documents/GitHub/SmartCertify/web-app/blockchain/contracts/Government.sol",
  "compiler": {
    "name": "solc",
    "version": "0.8.19+commit.7dd6d404.Emscripten.clang"
  },
  "schemaVersion": "3.4.16",
  "updatedAt": "2024-03-31T05:40:39.831Z",
  "networkType": "ethereum",
  "devdoc": {
    "kind": "dev",
    "methods": {},
    "version": 1
  },
  "userdoc": {
    "kind": "user",
    "methods": {},
    "version": 1
  }
}