{
  "contractName": "Office",
  "abi": [
    {
      "inputs": [
        {
          "internalType": "address",
          "name": "_owner",
          "type": "address"
        }
      ],
      "stateMutability": "nonpayable",
      "type": "constructor"
    },
    {
      "inputs": [],
      "name": "getOwner",
      "outputs": [
        {
          "internalType": "address",
          "name": "",
          "type": "address"
        }
      ],
      "stateMutability": "view",
      "type": "function"
    },
    {
      "inputs": [
        {
          "internalType": "address",
          "name": "_oriOwner",
          "type": "address"
        },
        {
          "internalType": "address",
          "name": "_newOwner",
          "type": "address"
        }
      ],
      "name": "transferOwnership",
      "outputs": [],
      "stateMutability": "nonpayable",
      "type": "function"
    },
    {
      "inputs": [
        {
          "internalType": "address",
          "name": "_owner",
          "type": "address"
        }
      ],
      "name": "isOwner",
      "outputs": [
        {
          "internalType": "bool",
          "name": "",
          "type": "bool"
        }
      ],
      "stateMutability": "view",
      "type": "function"
    },
    {
      "inputs": [
        {
          "internalType": "address",
          "name": "_add",
          "type": "address"
        }
      ],
      "name": "isOfficer",
      "outputs": [
        {
          "internalType": "bool",
          "name": "",
          "type": "bool"
        }
      ],
      "stateMutability": "view",
      "type": "function"
    },
    {
      "inputs": [
        {
          "internalType": "address",
          "name": "_add",
          "type": "address"
        }
      ],
      "name": "isOwnerOrOfficer",
      "outputs": [
        {
          "internalType": "bool",
          "name": "",
          "type": "bool"
        }
      ],
      "stateMutability": "view",
      "type": "function"
    },
    {
      "inputs": [
        {
          "internalType": "address",
          "name": "_owner",
          "type": "address"
        },
        {
          "internalType": "address",
          "name": "_add",
          "type": "address"
        }
      ],
      "name": "addOfficer",
      "outputs": [],
      "stateMutability": "nonpayable",
      "type": "function"
    },
    {
      "inputs": [
        {
          "internalType": "address",
          "name": "_owner",
          "type": "address"
        },
        {
          "internalType": "address",
          "name": "_add",
          "type": "address"
        }
      ],
      "name": "removeOfficer",
      "outputs": [],
      "stateMutability": "nonpayable",
      "type": "function"
    }
  ],
  "bytecode": "0x608060405234801561001057600080fd5b50604051610cd5380380610cd5833981810160405281019061003291906100db565b806000806101000a81548173ffffffffffffffffffffffffffffffffffffffff021916908373ffffffffffffffffffffffffffffffffffffffff16021790555050610108565b600080fd5b600073ffffffffffffffffffffffffffffffffffffffff82169050919050565b60006100a88261007d565b9050919050565b6100b88161009d565b81146100c357600080fd5b50565b6000815190506100d5816100af565b92915050565b6000602082840312156100f1576100f0610078565b5b60006100ff848285016100c6565b91505092915050565b610bbe806101176000396000f3fe608060405234801561001057600080fd5b506004361061007d5760003560e01c80636d4354211161005b5780636d435421146100fe578063893d20e81461011a578063db6d07fa14610138578063e06f9898146101545761007d565b806308fe2409146100825780632f54bf6e1461009e5780636816442d146100ce575b600080fd5b61009c600480360381019061009791906107c1565b610184565b005b6100b860048036038101906100b39190610801565b610279565b6040516100c59190610849565b60405180910390f35b6100e860048036038101906100e39190610801565b6102d1565b6040516100f59190610849565b60405180910390f35b610118600480360381019061011391906107c1565b61031b565b005b6101226103ed565b60405161012f9190610873565b60405180910390f35b610152600480360381019061014d91906107c1565b610416565b005b61016e60048036038101906101699190610801565b610609565b60405161017b9190610849565b60405180910390f35b8173ffffffffffffffffffffffffffffffffffffffff1660008054906101000a900473ffffffffffffffffffffffffffffffffffffffff1673ffffffffffffffffffffffffffffffffffffffff1614610212576040517f08c379a0000000000000000000000000000000000000000000000000000000008152600401610209906108eb565b60405180910390fd5b6001819080600181540180825580915050600190039060005260206000200160009091909190916101000a81548173ffffffffffffffffffffffffffffffffffffffff021916908373ffffffffffffffffffffffffffffffffffffffff1602179055505050565b60008173ffffffffffffffffffffffffffffffffffffffff1660008054906101000a900473ffffffffffffffffffffffffffffffffffffffff1673ffffffffffffffffffffffffffffffffffffffff16149050919050565b6000806102dd83610694565b90507fffffffffffffffffffffffffffffffffffffffffffffffffffffffffffffffff8114610310576001915050610316565b60009150505b919050565b8173ffffffffffffffffffffffffffffffffffffffff1660008054906101000a900473ffffffffffffffffffffffffffffffffffffffff1673ffffffffffffffffffffffffffffffffffffffff16146103a9576040517f08c379a00000000000000000000000000000000000000000000000000000000081526004016103a09061097d565b60405180910390fd5b806000806101000a81548173ffffffffffffffffffffffffffffffffffffffff021916908373ffffffffffffffffffffffffffffffffffffffff1602179055505050565b60008060009054906101000a900473ffffffffffffffffffffffffffffffffffffffff16905090565b8173ffffffffffffffffffffffffffffffffffffffff1660008054906101000a900473ffffffffffffffffffffffffffffffffffffffff1673ffffffffffffffffffffffffffffffffffffffff16146104a4576040517f08c379a000000000000000000000000000000000000000000000000000000000815260040161049b906109e9565b60405180910390fd5b60006104af82610694565b90507fffffffffffffffffffffffffffffffffffffffffffffffffffffffffffffffff8103610513576040517f08c379a000000000000000000000000000000000000000000000000000000000815260040161050a90610a55565b60405180910390fd5b60018080805490506105259190610aae565b8154811061053657610535610ae2565b5b9060005260206000200160009054906101000a900473ffffffffffffffffffffffffffffffffffffffff166001828154811061057557610574610ae2565b5b9060005260206000200160006101000a81548173ffffffffffffffffffffffffffffffffffffffff021916908373ffffffffffffffffffffffffffffffffffffffff16021790555060018054806105cf576105ce610b11565b5b6001900381819060005260206000200160006101000a81549073ffffffffffffffffffffffffffffffffffffffff02191690559055505050565b60008173ffffffffffffffffffffffffffffffffffffffff1660008054906101000a900473ffffffffffffffffffffffffffffffffffffffff1673ffffffffffffffffffffffffffffffffffffffff16148061068d57507fffffffffffffffffffffffffffffffffffffffffffffffffffffffffffffffff61068a83610694565b14155b9050919050565b600080600090505b60018054905081101561073457600181815481106106bd576106bc610ae2565b5b9060005260206000200160009054906101000a900473ffffffffffffffffffffffffffffffffffffffff1673ffffffffffffffffffffffffffffffffffffffff168373ffffffffffffffffffffffffffffffffffffffff16036107235780915050610759565b8061072d90610b40565b905061069c565b507fffffffffffffffffffffffffffffffffffffffffffffffffffffffffffffffff90505b919050565b600080fd5b600073ffffffffffffffffffffffffffffffffffffffff82169050919050565b600061078e82610763565b9050919050565b61079e81610783565b81146107a957600080fd5b50565b6000813590506107bb81610795565b92915050565b600080604083850312156107d8576107d761075e565b5b60006107e6858286016107ac565b92505060206107f7858286016107ac565b9150509250929050565b6000602082840312156108175761081661075e565b5b6000610825848285016107ac565b91505092915050565b60008115159050919050565b6108438161082e565b82525050565b600060208201905061085e600083018461083a565b92915050565b61086d81610783565b82525050565b60006020820190506108886000830184610864565b92915050565b600082825260208201905092915050565b7f6f6e6c79206f776e65722063616e20616464206f666669636572000000000000600082015250565b60006108d5601a8361088e565b91506108e08261089f565b602082019050919050565b60006020820190508181036000830152610904816108c8565b9050919050565b7f6f6e6c79206f776e65722063616e207472616e73666572206f776e657273686960008201527f7000000000000000000000000000000000000000000000000000000000000000602082015250565b600061096760218361088e565b91506109728261090b565b604082019050919050565b600060208201905081810360008301526109968161095a565b9050919050565b7f6f6e6c79206f776e65722063616e2072656d6f7665206f666669636572000000600082015250565b60006109d3601d8361088e565b91506109de8261099d565b602082019050919050565b60006020820190508181036000830152610a02816109c6565b9050919050565b7f6e6f742065786973740000000000000000000000000000000000000000000000600082015250565b6000610a3f60098361088e565b9150610a4a82610a09565b602082019050919050565b60006020820190508181036000830152610a6e81610a32565b9050919050565b6000819050919050565b7f4e487b7100000000000000000000000000000000000000000000000000000000600052601160045260246000fd5b6000610ab982610a75565b9150610ac483610a75565b9250828203905081811115610adc57610adb610a7f565b5b92915050565b7f4e487b7100000000000000000000000000000000000000000000000000000000600052603260045260246000fd5b7f4e487b7100000000000000000000000000000000000000000000000000000000600052603160045260246000fd5b6000610b4b82610a75565b91507fffffffffffffffffffffffffffffffffffffffffffffffffffffffffffffffff8203610b7d57610b7c610a7f565b5b60018201905091905056fea2646970667358221220fa5ccc85019018095d95c1173478370a02753aeb7bdc387217f3d03b6251717e64736f6c63430008130033",
  "immutableReferences": {},
  "source": "//SPDX-License-Identifier: MIT\npragma solidity ^0.8.0;\n// import \"./IOffice.sol\";\n// use to manage admin rights.\n// import \"hardhat/console.sol\";\n\ncontract Office\n{\n    address owner;\n    address[] officerList;\n\n    constructor(address _owner)\n    {\n        owner = _owner;\n        // officerList.push(_owner);\n    }\n\n    function getOwner() external view returns (address)\n    {\n        return owner;\n    }\n\n    function transferOwnership(address _oriOwner, address _newOwner) external\n    {\n        require(owner == _oriOwner, \"only owner can transfer ownership\");\n        owner = _newOwner;\n    }\n\n    function isOwner(address _owner) external view returns (bool)\n    {\n        return owner == _owner;\n    }\n\n    function findOfficerAddressIndexInArray(address _add) private view returns (uint)\n    {\n        for(uint i = 0; i < officerList.length; ++i)\n        {\n            if (_add == officerList[i])\n                return i;\n        }\n        return type(uint).max;\n    }\n\n    function isOfficer(address _add) external view returns (bool)\n    {\n        uint index = findOfficerAddressIndexInArray(_add);\n        if (index != type(uint).max)\n            return true;\n        else\n            return false;\n    }\n\n    function isOwnerOrOfficer(address _add) external view returns (bool)\n    {\n        // console.log(\"get Address => \", _add);\n        return owner == _add \n        || findOfficerAddressIndexInArray(_add) != type(uint).max;\n    }\n\n    function addOfficer(address _owner, address _add) external\n    {\n        require(owner == _owner, \"only owner can add officer\");\n        officerList.push(_add);\n    }\n\n    function removeOfficer(address _owner, address _add) external\n    {\n        require(owner == _owner, \"only owner can remove officer\");\n\n        uint index = findOfficerAddressIndexInArray(_add);\n        require(index != type(uint).max, \"not exist\");\n        officerList[index] = officerList[officerList.length - 1];\n        officerList.pop();\n    }\n}",
  "sourcePath": "/Users/zhougaoqiang/Documents/GitHub/SmartCertify/web-app/blockchain/contracts/Office.sol",
  "compiler": {
    "name": "solc",
    "version": "0.8.19+commit.7dd6d404.Emscripten.clang"
  },
  "schemaVersion": "3.4.16",
  "updatedAt": "2024-03-29T16:51:57.708Z",
  "devdoc": {
    "kind": "dev",
    "methods": {},
    "version": 1
  },
  "userdoc": {
    "kind": "user",
    "methods": {},
    "version": 1
  }
}