{
  "contractName": "oldGovernment",
  "abi": [
    {
      "inputs": [
        {
          "internalType": "address",
          "name": "_off",
          "type": "address"
        },
        {
          "internalType": "address",
          "name": "_com",
          "type": "address"
        },
        {
          "internalType": "address",
          "name": "_sch",
          "type": "address"
        },
        {
          "internalType": "address",
          "name": "_per",
          "type": "address"
        },
        {
          "internalType": "address",
          "name": "_token",
          "type": "address"
        }
      ],
      "stateMutability": "nonpayable",
      "type": "constructor"
    },
    {
      "inputs": [],
      "name": "eToken",
      "outputs": [
        {
          "internalType": "contract IERC20",
          "name": "",
          "type": "address"
        }
      ],
      "stateMutability": "view",
      "type": "function"
    },
    {
      "inputs": [
        {
          "internalType": "address",
          "name": "_add",
          "type": "address"
        }
      ],
      "name": "isRegisterSchool",
      "outputs": [
        {
          "internalType": "bool",
          "name": "",
          "type": "bool"
        }
      ],
      "stateMutability": "view",
      "type": "function"
    },
    {
      "inputs": [
        {
          "internalType": "address",
          "name": "_add",
          "type": "address"
        }
      ],
      "name": "isRegisterCompany",
      "outputs": [
        {
          "internalType": "bool",
          "name": "",
          "type": "bool"
        }
      ],
      "stateMutability": "view",
      "type": "function"
    },
    {
      "inputs": [
        {
          "internalType": "address",
          "name": "_add",
          "type": "address"
        }
      ],
      "name": "isRegisterPerson",
      "outputs": [
        {
          "internalType": "bool",
          "name": "",
          "type": "bool"
        }
      ],
      "stateMutability": "view",
      "type": "function"
    },
    {
      "inputs": [
        {
          "internalType": "address",
          "name": "_verify",
          "type": "address"
        },
        {
          "internalType": "address",
          "name": "_add",
          "type": "address"
        }
      ],
      "name": "registerSchool",
      "outputs": [],
      "stateMutability": "nonpayable",
      "type": "function"
    },
    {
      "inputs": [
        {
          "internalType": "address",
          "name": "_verify",
          "type": "address"
        },
        {
          "internalType": "address",
          "name": "_add",
          "type": "address"
        }
      ],
      "name": "registerCompany",
      "outputs": [],
      "stateMutability": "nonpayable",
      "type": "function"
    },
    {
      "inputs": [],
      "name": "getOwner",
      "outputs": [
        {
          "internalType": "address",
          "name": "",
          "type": "address"
        }
      ],
      "stateMutability": "view",
      "type": "function"
    },
    {
      "inputs": [
        {
          "internalType": "address",
          "name": "_verify",
          "type": "address"
        },
        {
          "internalType": "address",
          "name": "_add",
          "type": "address"
        }
      ],
      "name": "registerPerson",
      "outputs": [],
      "stateMutability": "nonpayable",
      "type": "function"
    }
  ],
  "bytecode": "0x60806040523480156200001157600080fd5b5060405162001071380380620010718339818101604052810190620000379190620001f0565b846000806101000a81548173ffffffffffffffffffffffffffffffffffffffff021916908373ffffffffffffffffffffffffffffffffffffffff16021790555083600160006101000a81548173ffffffffffffffffffffffffffffffffffffffff021916908373ffffffffffffffffffffffffffffffffffffffff16021790555082600260006101000a81548173ffffffffffffffffffffffffffffffffffffffff021916908373ffffffffffffffffffffffffffffffffffffffff16021790555081600360006101000a81548173ffffffffffffffffffffffffffffffffffffffff021916908373ffffffffffffffffffffffffffffffffffffffff16021790555080600460006101000a81548173ffffffffffffffffffffffffffffffffffffffff021916908373ffffffffffffffffffffffffffffffffffffffff160217905550505050505062000278565b600080fd5b600073ffffffffffffffffffffffffffffffffffffffff82169050919050565b6000620001b8826200018b565b9050919050565b620001ca81620001ab565b8114620001d657600080fd5b50565b600081519050620001ea81620001bf565b92915050565b600080600080600060a086880312156200020f576200020e62000186565b5b60006200021f88828901620001d9565b95505060206200023288828901620001d9565b94505060406200024588828901620001d9565b93505060606200025888828901620001d9565b92505060806200026b88828901620001d9565b9150509295509295909350565b610de980620002886000396000f3fe608060405234801561001057600080fd5b50600436106100885760003560e01c8063953d9cf11161005b578063953d9cf114610113578063e551658f14610131578063f807a89414610161578063ff6b29c41461017d57610088565b80636f6c27ac1461008d57806371c189c9146100a9578063856a503e146100c5578063893d20e8146100f5575b600080fd5b6100a760048036038101906100a29190610abf565b6101ad565b005b6100c360048036038101906100be9190610abf565b6103f7565b005b6100df60048036038101906100da9190610aff565b610641565b6040516100ec9190610b47565b60405180910390f35b6100fd6106e6565b60405161010a9190610b71565b60405180910390f35b61011b61077d565b6040516101289190610beb565b60405180910390f35b61014b60048036038101906101469190610aff565b6107a3565b6040516101589190610b47565b60405180910390f35b61017b60048036038101906101769190610abf565b610848565b005b61019760048036038101906101929190610aff565b6109b7565b6040516101a49190610b47565b60405180910390f35b8160008054906101000a900473ffffffffffffffffffffffffffffffffffffffff1673ffffffffffffffffffffffffffffffffffffffff1663e06f9898826040518263ffffffff1660e01b81526004016102079190610b71565b602060405180830381865afa158015610224573d6000803e3d6000fd5b505050506040513d601f19601f820116820180604052508101906102489190610c32565b610287576040517f08c379a000000000000000000000000000000000000000000000000000000000815260040161027e90610cbc565b60405180910390fd5b600260009054906101000a900473ffffffffffffffffffffffffffffffffffffffff1673ffffffffffffffffffffffffffffffffffffffff1663ff706170836040518263ffffffff1660e01b81526004016102e29190610b71565b602060405180830381865afa1580156102ff573d6000803e3d6000fd5b505050506040513d601f19601f820116820180604052508101906103239190610c32565b15610363576040517f08c379a000000000000000000000000000000000000000000000000000000000815260040161035a90610d28565b60405180910390fd5b600260009054906101000a900473ffffffffffffffffffffffffffffffffffffffff1673ffffffffffffffffffffffffffffffffffffffff1663713e7b8584846040518363ffffffff1660e01b81526004016103c0929190610d48565b600060405180830381600087803b1580156103da57600080fd5b505af11580156103ee573d6000803e3d6000fd5b50505050505050565b8160008054906101000a900473ffffffffffffffffffffffffffffffffffffffff1673ffffffffffffffffffffffffffffffffffffffff1663e06f9898826040518263ffffffff1660e01b81526004016104519190610b71565b602060405180830381865afa15801561046e573d6000803e3d6000fd5b505050506040513d601f19601f820116820180604052508101906104929190610c32565b6104d1576040517f08c379a00000000000000000000000000000000000000000000000000000000081526004016104c890610cbc565b60405180910390fd5b600360009054906101000a900473ffffffffffffffffffffffffffffffffffffffff1673ffffffffffffffffffffffffffffffffffffffff1663ff706170836040518263ffffffff1660e01b815260040161052c9190610b71565b602060405180830381865afa158015610549573d6000803e3d6000fd5b505050506040513d601f19601f8201168201806040525081019061056d9190610c32565b156105ad576040517f08c379a00000000000000000000000000000000000000000000000000000000081526004016105a490610d28565b60405180910390fd5b600360009054906101000a900473ffffffffffffffffffffffffffffffffffffffff1673ffffffffffffffffffffffffffffffffffffffff1663713e7b8584846040518363ffffffff1660e01b815260040161060a929190610d48565b600060405180830381600087803b15801561062457600080fd5b505af1158015610638573d6000803e3d6000fd5b50505050505050565b6000600260009054906101000a900473ffffffffffffffffffffffffffffffffffffffff1673ffffffffffffffffffffffffffffffffffffffff1663ff706170836040518263ffffffff1660e01b815260040161069e9190610b71565b602060405180830381865afa1580156106bb573d6000803e3d6000fd5b505050506040513d601f19601f820116820180604052508101906106df9190610c32565b9050919050565b60008060009054906101000a900473ffffffffffffffffffffffffffffffffffffffff1673ffffffffffffffffffffffffffffffffffffffff1663893d20e86040518163ffffffff1660e01b8152600401602060405180830381865afa158015610754573d6000803e3d6000fd5b505050506040513d601f19601f820116820180604052508101906107789190610d86565b905090565b600460009054906101000a900473ffffffffffffffffffffffffffffffffffffffff1681565b6000600160009054906101000a900473ffffffffffffffffffffffffffffffffffffffff1673ffffffffffffffffffffffffffffffffffffffff1663ff706170836040518263ffffffff1660e01b81526004016108009190610b71565b602060405180830381865afa15801561081d573d6000803e3d6000fd5b505050506040513d601f19601f820116820180604052508101906108419190610c32565b9050919050565b600160009054906101000a900473ffffffffffffffffffffffffffffffffffffffff1673ffffffffffffffffffffffffffffffffffffffff1663ff706170826040518263ffffffff1660e01b81526004016108a39190610b71565b602060405180830381865afa1580156108c0573d6000803e3d6000fd5b505050506040513d601f19601f820116820180604052508101906108e49190610c32565b15610924576040517f08c379a000000000000000000000000000000000000000000000000000000000815260040161091b90610d28565b60405180910390fd5b600160009054906101000a900473ffffffffffffffffffffffffffffffffffffffff1673ffffffffffffffffffffffffffffffffffffffff1663713e7b8583836040518363ffffffff1660e01b8152600401610981929190610d48565b600060405180830381600087803b15801561099b57600080fd5b505af11580156109af573d6000803e3d6000fd5b505050505050565b6000600360009054906101000a900473ffffffffffffffffffffffffffffffffffffffff1673ffffffffffffffffffffffffffffffffffffffff1663ff706170836040518263ffffffff1660e01b8152600401610a149190610b71565b602060405180830381865afa158015610a31573d6000803e3d6000fd5b505050506040513d601f19601f82011682018060405250810190610a559190610c32565b9050919050565b600080fd5b600073ffffffffffffffffffffffffffffffffffffffff82169050919050565b6000610a8c82610a61565b9050919050565b610a9c81610a81565b8114610aa757600080fd5b50565b600081359050610ab981610a93565b92915050565b60008060408385031215610ad657610ad5610a5c565b5b6000610ae485828601610aaa565b9250506020610af585828601610aaa565b9150509250929050565b600060208284031215610b1557610b14610a5c565b5b6000610b2384828501610aaa565b91505092915050565b60008115159050919050565b610b4181610b2c565b82525050565b6000602082019050610b5c6000830184610b38565b92915050565b610b6b81610a81565b82525050565b6000602082019050610b866000830184610b62565b92915050565b6000819050919050565b6000610bb1610bac610ba784610a61565b610b8c565b610a61565b9050919050565b6000610bc382610b96565b9050919050565b6000610bd582610bb8565b9050919050565b610be581610bca565b82525050565b6000602082019050610c006000830184610bdc565b92915050565b610c0f81610b2c565b8114610c1a57600080fd5b50565b600081519050610c2c81610c06565b92915050565b600060208284031215610c4857610c47610a5c565b5b6000610c5684828501610c1d565b91505092915050565b600082825260208201905092915050565b7f43616c6c6572206973206e6f7420616e2061646d696e00000000000000000000600082015250565b6000610ca6601683610c5f565b9150610cb182610c70565b602082019050919050565b60006020820190508181036000830152610cd581610c99565b9050919050565b7f7265676973746572656420616c72656164790000000000000000000000000000600082015250565b6000610d12601283610c5f565b9150610d1d82610cdc565b602082019050919050565b60006020820190508181036000830152610d4181610d05565b9050919050565b6000604082019050610d5d6000830185610b62565b610d6a6020830184610b62565b9392505050565b600081519050610d8081610a93565b92915050565b600060208284031215610d9c57610d9b610a5c565b5b6000610daa84828501610d71565b9150509291505056fea2646970667358221220e057a8ff2ccc593dbc484ab0d45a2e1ceaa2b6eeda8214ae22aae8c7243f7fd864736f6c63430008130033",
  "immutableReferences": {},
  "source": "//SPDX-License-Identifier: MIT\npragma solidity ^0.8.0;\nimport \"./IGovernment.sol\";\nimport \"./IOffice.sol\";\nimport \"./ISource.sol\";\nimport \"./IERC20.sol\"; \n// import \"hardhat/console.sol\";\n\n\n/*\nthe government smart contract should create before software release and after ERC20 deployed\n\nNOTE: THE GOVERNMENT ADDRESS AND ERC20 ADDRESS SHOULD BE FIXED IN WEBSITE\n\ngovenment contract deploy sequence.\n1. deploy office contract\n2. deploy company source contract (need office contract address)\n3. deploy school source contract (need office contract address)\n4. deploy person source contract (need office contract address)\n5. deploy government smart contract with company, school, person source contract, and ERC20 also.\n\n*/\ncontract oldGovernment \n{\n    // event CompanyRegistered(address indexed companyAddress, address indexed adminAddress);\n\n    IOffice private officeContract;\n    ISource private companyContracts;\n    ISource private schoolContracts;\n    ISource private personContracts;\n    IERC20 public eToken;\n    \n\n    constructor(address _off, address _com, address _sch, address _per, address _token)\n    {\n        officeContract = IOffice(_off);\n        companyContracts = ISource(_com);\n        schoolContracts = ISource(_sch);\n        personContracts = ISource(_per);\n        eToken = IERC20(_token);\n    }\n\n    modifier onlyAdmin(address _add)\n    {\n        // console.log(\"onlyAdmin get Address => \", _add);\n        require(officeContract.isOwnerOrOfficer(_add), \"Caller is not an admin\");\n        _;\n    }\n\n    function isRegisterSchool(address _add) external view returns (bool)\n    {\n        return schoolContracts.hasAddress(_add);\n    }\n\n    function isRegisterCompany(address _add) external view returns (bool)\n    {\n        return companyContracts.hasAddress(_add);\n    }\n    \n    function isRegisterPerson(address _add) external view returns (bool)\n    {\n        return personContracts.hasAddress(_add);\n    }\n\n    function registerSchool(address _verify, address _add) public onlyAdmin(_verify)\n    {\n        require(!schoolContracts.hasAddress(_add), \"registered already\");\n        schoolContracts.addAddress(_verify, _add);\n    }\n\n    function registerCompany(address _verify, address _add) public\n    {\n        // console.log(\"registerCompany get Address => \", msg.sender);\n        require(!companyContracts.hasAddress(_add), \"registered already\");\n        companyContracts.addAddress(_verify, _add);\n        // eToken.transfer(_add, 100 * 10**18);\n    }\n\n    function getOwner() public view returns (address)\n    {\n        return officeContract.getOwner();\n    }\n    \n\n    function registerPerson(address _verify, address _add) public onlyAdmin(_verify)\n    {\n        require(!personContracts.hasAddress(_add), \"registered already\");\n        personContracts.addAddress(_verify, _add);\n    }\n}\n",
  "sourcePath": "/Users/zhougaoqiang/Documents/GitHub/SmartCertify/web-app/blockchain/contracts/OldGovernment.sol",
  "compiler": {
    "name": "solc",
    "version": "0.8.19+commit.7dd6d404.Emscripten.clang"
  },
  "schemaVersion": "3.4.16",
  "updatedAt": "2024-03-29T16:51:57.709Z",
  "devdoc": {
    "kind": "dev",
    "methods": {},
    "version": 1
  },
  "userdoc": {
    "kind": "user",
    "methods": {},
    "version": 1
  }
}