{
  "contractName": "Person",
  "abi": [
    {
      "inputs": [],
      "stateMutability": "nonpayable",
      "type": "constructor"
    },
    {
      "inputs": [
        {
          "internalType": "bool",
          "name": "_isPublic",
          "type": "bool"
        }
      ],
      "name": "setToPublic",
      "outputs": [],
      "stateMutability": "nonpayable",
      "type": "function"
    },
    {
      "inputs": [
        {
          "internalType": "address",
          "name": "_add",
          "type": "address"
        }
      ],
      "name": "addCertificateContract",
      "outputs": [],
      "stateMutability": "nonpayable",
      "type": "function"
    },
    {
      "inputs": [
        {
          "components": [
            {
              "internalType": "uint256",
              "name": "id",
              "type": "uint256"
            },
            {
              "internalType": "string",
              "name": "nationality",
              "type": "string"
            },
            {
              "internalType": "string",
              "name": "nric",
              "type": "string"
            },
            {
              "internalType": "string",
              "name": "passport",
              "type": "string"
            },
            {
              "internalType": "string",
              "name": "name",
              "type": "string"
            },
            {
              "internalType": "string",
              "name": "add",
              "type": "string"
            }
          ],
          "internalType": "struct Personal_Info",
          "name": "_info",
          "type": "tuple"
        }
      ],
      "name": "setPersonalInfo",
      "outputs": [],
      "stateMutability": "nonpayable",
      "type": "function"
    },
    {
      "inputs": [],
      "name": "getPersonalInfo",
      "outputs": [
        {
          "components": [
            {
              "internalType": "uint256",
              "name": "id",
              "type": "uint256"
            },
            {
              "internalType": "string",
              "name": "nationality",
              "type": "string"
            },
            {
              "internalType": "string",
              "name": "nric",
              "type": "string"
            },
            {
              "internalType": "string",
              "name": "passport",
              "type": "string"
            },
            {
              "internalType": "string",
              "name": "name",
              "type": "string"
            },
            {
              "internalType": "string",
              "name": "add",
              "type": "string"
            }
          ],
          "internalType": "struct Personal_Info",
          "name": "",
          "type": "tuple"
        }
      ],
      "stateMutability": "view",
      "type": "function"
    },
    {
      "inputs": [],
      "name": "getAllCertificates",
      "outputs": [
        {
          "components": [
            {
              "components": [
                {
                  "internalType": "address",
                  "name": "schoolContractAddress",
                  "type": "address"
                },
                {
                  "internalType": "string",
                  "name": "id",
                  "type": "string"
                },
                {
                  "internalType": "string",
                  "name": "name",
                  "type": "string"
                },
                {
                  "internalType": "string",
                  "name": "add",
                  "type": "string"
                },
                {
                  "internalType": "string",
                  "name": "email",
                  "type": "string"
                }
              ],
              "internalType": "struct School_Info",
              "name": "schoolInfo",
              "type": "tuple"
            },
            {
              "internalType": "enum ECertificateCategory",
              "name": "category",
              "type": "uint8"
            },
            {
              "internalType": "enum EHonor",
              "name": "honor",
              "type": "uint8"
            },
            {
              "internalType": "enum EStudyStatus",
              "name": "status",
              "type": "uint8"
            },
            {
              "internalType": "string",
              "name": "major",
              "type": "string"
            },
            {
              "internalType": "string",
              "name": "description",
              "type": "string"
            },
            {
              "internalType": "uint256",
              "name": "certificateId",
              "type": "uint256"
            },
            {
              "internalType": "uint256",
              "name": "admissionTimestamp",
              "type": "uint256"
            },
            {
              "internalType": "uint256",
              "name": "graduationTimestamp",
              "type": "uint256"
            },
            {
              "components": [
                {
                  "internalType": "uint256",
                  "name": "id",
                  "type": "uint256"
                },
                {
                  "internalType": "string",
                  "name": "nationality",
                  "type": "string"
                },
                {
                  "internalType": "string",
                  "name": "nric",
                  "type": "string"
                },
                {
                  "internalType": "string",
                  "name": "passport",
                  "type": "string"
                },
                {
                  "internalType": "string",
                  "name": "name",
                  "type": "string"
                },
                {
                  "internalType": "string",
                  "name": "add",
                  "type": "string"
                }
              ],
              "internalType": "struct Student_Info",
              "name": "studentDetails",
              "type": "tuple"
            },
            {
              "internalType": "uint256",
              "name": "signature",
              "type": "uint256"
            }
          ],
          "internalType": "struct Certificate_Info[]",
          "name": "",
          "type": "tuple[]"
        }
      ],
      "stateMutability": "view",
      "type": "function"
    },
    {
      "inputs": [],
      "name": "getCertificatesCounts",
      "outputs": [
        {
          "internalType": "uint256",
          "name": "",
          "type": "uint256"
        }
      ],
      "stateMutability": "view",
      "type": "function"
    },
    {
      "inputs": [
        {
          "internalType": "uint256",
          "name": "_index",
          "type": "uint256"
        }
      ],
      "name": "getCertificateByIndex",
      "outputs": [
        {
          "components": [
            {
              "components": [
                {
                  "internalType": "address",
                  "name": "schoolContractAddress",
                  "type": "address"
                },
                {
                  "internalType": "string",
                  "name": "id",
                  "type": "string"
                },
                {
                  "internalType": "string",
                  "name": "name",
                  "type": "string"
                },
                {
                  "internalType": "string",
                  "name": "add",
                  "type": "string"
                },
                {
                  "internalType": "string",
                  "name": "email",
                  "type": "string"
                }
              ],
              "internalType": "struct School_Info",
              "name": "schoolInfo",
              "type": "tuple"
            },
            {
              "internalType": "enum ECertificateCategory",
              "name": "category",
              "type": "uint8"
            },
            {
              "internalType": "enum EHonor",
              "name": "honor",
              "type": "uint8"
            },
            {
              "internalType": "enum EStudyStatus",
              "name": "status",
              "type": "uint8"
            },
            {
              "internalType": "string",
              "name": "major",
              "type": "string"
            },
            {
              "internalType": "string",
              "name": "description",
              "type": "string"
            },
            {
              "internalType": "uint256",
              "name": "certificateId",
              "type": "uint256"
            },
            {
              "internalType": "uint256",
              "name": "admissionTimestamp",
              "type": "uint256"
            },
            {
              "internalType": "uint256",
              "name": "graduationTimestamp",
              "type": "uint256"
            },
            {
              "components": [
                {
                  "internalType": "uint256",
                  "name": "id",
                  "type": "uint256"
                },
                {
                  "internalType": "string",
                  "name": "nationality",
                  "type": "string"
                },
                {
                  "internalType": "string",
                  "name": "nric",
                  "type": "string"
                },
                {
                  "internalType": "string",
                  "name": "passport",
                  "type": "string"
                },
                {
                  "internalType": "string",
                  "name": "name",
                  "type": "string"
                },
                {
                  "internalType": "string",
                  "name": "add",
                  "type": "string"
                }
              ],
              "internalType": "struct Student_Info",
              "name": "studentDetails",
              "type": "tuple"
            },
            {
              "internalType": "uint256",
              "name": "signature",
              "type": "uint256"
            }
          ],
          "internalType": "struct Certificate_Info",
          "name": "",
          "type": "tuple"
        }
      ],
      "stateMutability": "view",
      "type": "function"
    }
  ],
  "bytecode": "0x608060405234801561001057600080fd5b5033600760006101000a81548173ffffffffffffffffffffffffffffffffffffffff021916908373ffffffffffffffffffffffffffffffffffffffff1602179055506000600760146101000a81548160ff02191690831515021790555061315e8061007c6000396000f3fe608060405234801561001057600080fd5b506004361061007d5760003560e01c80633590005c1161005b5780633590005c146100ec57806381f539ff1461010a578063bf09d9cb14610128578063fb79e96e146101445761007d565b80630a28e90c1461008257806313fcfe80146100b257806318ff1e47146100d0575b600080fd5b61009c60048036038101906100979190611d5d565b610160565b6040516100a991906121a5565b60405180910390f35b6100ba610a0a565b6040516100c7919061238d565b60405180910390f35b6100ea60048036038101906100e5919061261a565b61128a565b005b6100f461139a565b6040516101019190612672565b60405180910390f35b61011261143d565b60405161011f9190612732565b60405180910390f35b610142600480360381019061013d9190612780565b6117ba565b005b61015e600480360381019061015991906127e5565b611b19565b005b610168611bc6565b60068054905082106101af576040517f08c379a00000000000000000000000000000000000000000000000000000000081526004016101a69061286f565b60405180910390fd5b600760149054906101000a900460ff16806102175750600760009054906101000a900473ffffffffffffffffffffffffffffffffffffffff1673ffffffffffffffffffffffffffffffffffffffff163373ffffffffffffffffffffffffffffffffffffffff16145b156109f857600682815481106102305761022f61288f565b5b906000526020600020906012020160405180610160016040529081600082016040518060a00160405290816000820160009054906101000a900473ffffffffffffffffffffffffffffffffffffffff1673ffffffffffffffffffffffffffffffffffffffff1673ffffffffffffffffffffffffffffffffffffffff1681526020016001820180546102c0906128ed565b80601f01602080910402602001604051908101604052809291908181526020018280546102ec906128ed565b80156103395780601f1061030e57610100808354040283529160200191610339565b820191906000526020600020905b81548152906001019060200180831161031c57829003601f168201915b50505050508152602001600282018054610352906128ed565b80601f016020809104026020016040519081016040528092919081815260200182805461037e906128ed565b80156103cb5780601f106103a0576101008083540402835291602001916103cb565b820191906000526020600020905b8154815290600101906020018083116103ae57829003601f168201915b505050505081526020016003820180546103e4906128ed565b80601f0160208091040260200160405190810160405280929190818152602001828054610410906128ed565b801561045d5780601f106104325761010080835404028352916020019161045d565b820191906000526020600020905b81548152906001019060200180831161044057829003601f168201915b50505050508152602001600482018054610476906128ed565b80601f01602080910402602001604051908101604052809291908181526020018280546104a2906128ed565b80156104ef5780601f106104c4576101008083540402835291602001916104ef565b820191906000526020600020905b8154815290600101906020018083116104d257829003601f168201915b50505050508152505081526020016005820160009054906101000a900460ff16600881111561052157610520611ee6565b5b600881111561053357610532611ee6565b5b81526020016005820160019054906101000a900460ff16600581111561055c5761055b611ee6565b5b600581111561056e5761056d611ee6565b5b81526020016005820160029054906101000a900460ff16600181111561059757610596611ee6565b5b60018111156105a9576105a8611ee6565b5b81526020016006820180546105bd906128ed565b80601f01602080910402602001604051908101604052809291908181526020018280546105e9906128ed565b80156106365780601f1061060b57610100808354040283529160200191610636565b820191906000526020600020905b81548152906001019060200180831161061957829003601f168201915b5050505050815260200160078201805461064f906128ed565b80601f016020809104026020016040519081016040528092919081815260200182805461067b906128ed565b80156106c85780601f1061069d576101008083540402835291602001916106c8565b820191906000526020600020905b8154815290600101906020018083116106ab57829003601f168201915b505050505081526020016008820154815260200160098201548152602001600a8201548152602001600b82016040518060c001604052908160008201548152602001600182018054610719906128ed565b80601f0160208091040260200160405190810160405280929190818152602001828054610745906128ed565b80156107925780601f1061076757610100808354040283529160200191610792565b820191906000526020600020905b81548152906001019060200180831161077557829003601f168201915b505050505081526020016002820180546107ab906128ed565b80601f01602080910402602001604051908101604052809291908181526020018280546107d7906128ed565b80156108245780601f106107f957610100808354040283529160200191610824565b820191906000526020600020905b81548152906001019060200180831161080757829003601f168201915b5050505050815260200160038201805461083d906128ed565b80601f0160208091040260200160405190810160405280929190818152602001828054610869906128ed565b80156108b65780601f1061088b576101008083540402835291602001916108b6565b820191906000526020600020905b81548152906001019060200180831161089957829003601f168201915b505050505081526020016004820180546108cf906128ed565b80601f01602080910402602001604051908101604052809291908181526020018280546108fb906128ed565b80156109485780601f1061091d57610100808354040283529160200191610948565b820191906000526020600020905b81548152906001019060200180831161092b57829003601f168201915b50505050508152602001600582018054610961906128ed565b80601f016020809104026020016040519081016040528092919081815260200182805461098d906128ed565b80156109da5780601f106109af576101008083540402835291602001916109da565b820191906000526020600020905b8154815290600101906020018083116109bd57829003601f168201915b50505050508152505081526020016011820154815250509050610a05565b610a00611bc6565b809150505b919050565b6060600760149054906101000a900460ff1680610a745750600760009054906101000a900473ffffffffffffffffffffffffffffffffffffffff1673ffffffffffffffffffffffffffffffffffffffff163373ffffffffffffffffffffffffffffffffffffffff16145b15611280576006805480602002602001604051908101604052809291908181526020016000905b82821015611275578382906000526020600020906012020160405180610160016040529081600082016040518060a00160405290816000820160009054906101000a900473ffffffffffffffffffffffffffffffffffffffff1673ffffffffffffffffffffffffffffffffffffffff1673ffffffffffffffffffffffffffffffffffffffff168152602001600182018054610b35906128ed565b80601f0160208091040260200160405190810160405280929190818152602001828054610b61906128ed565b8015610bae5780601f10610b8357610100808354040283529160200191610bae565b820191906000526020600020905b815481529060010190602001808311610b9157829003601f168201915b50505050508152602001600282018054610bc7906128ed565b80601f0160208091040260200160405190810160405280929190818152602001828054610bf3906128ed565b8015610c405780601f10610c1557610100808354040283529160200191610c40565b820191906000526020600020905b815481529060010190602001808311610c2357829003601f168201915b50505050508152602001600382018054610c59906128ed565b80601f0160208091040260200160405190810160405280929190818152602001828054610c85906128ed565b8015610cd25780601f10610ca757610100808354040283529160200191610cd2565b820191906000526020600020905b815481529060010190602001808311610cb557829003601f168201915b50505050508152602001600482018054610ceb906128ed565b80601f0160208091040260200160405190810160405280929190818152602001828054610d17906128ed565b8015610d645780601f10610d3957610100808354040283529160200191610d64565b820191906000526020600020905b815481529060010190602001808311610d4757829003601f168201915b50505050508152505081526020016005820160009054906101000a900460ff166008811115610d9657610d95611ee6565b5b6008811115610da857610da7611ee6565b5b81526020016005820160019054906101000a900460ff166005811115610dd157610dd0611ee6565b5b6005811115610de357610de2611ee6565b5b81526020016005820160029054906101000a900460ff166001811115610e0c57610e0b611ee6565b5b6001811115610e1e57610e1d611ee6565b5b8152602001600682018054610e32906128ed565b80601f0160208091040260200160405190810160405280929190818152602001828054610e5e906128ed565b8015610eab5780601f10610e8057610100808354040283529160200191610eab565b820191906000526020600020905b815481529060010190602001808311610e8e57829003601f168201915b50505050508152602001600782018054610ec4906128ed565b80601f0160208091040260200160405190810160405280929190818152602001828054610ef0906128ed565b8015610f3d5780601f10610f1257610100808354040283529160200191610f3d565b820191906000526020600020905b815481529060010190602001808311610f2057829003601f168201915b505050505081526020016008820154815260200160098201548152602001600a8201548152602001600b82016040518060c001604052908160008201548152602001600182018054610f8e906128ed565b80601f0160208091040260200160405190810160405280929190818152602001828054610fba906128ed565b80156110075780601f10610fdc57610100808354040283529160200191611007565b820191906000526020600020905b815481529060010190602001808311610fea57829003601f168201915b50505050508152602001600282018054611020906128ed565b80601f016020809104026020016040519081016040528092919081815260200182805461104c906128ed565b80156110995780601f1061106e57610100808354040283529160200191611099565b820191906000526020600020905b81548152906001019060200180831161107c57829003601f168201915b505050505081526020016003820180546110b2906128ed565b80601f01602080910402602001604051908101604052809291908181526020018280546110de906128ed565b801561112b5780601f106111005761010080835404028352916020019161112b565b820191906000526020600020905b81548152906001019060200180831161110e57829003601f168201915b50505050508152602001600482018054611144906128ed565b80601f0160208091040260200160405190810160405280929190818152602001828054611170906128ed565b80156111bd5780601f10611192576101008083540402835291602001916111bd565b820191906000526020600020905b8154815290600101906020018083116111a057829003601f168201915b505050505081526020016005820180546111d6906128ed565b80601f0160208091040260200160405190810160405280929190818152602001828054611202906128ed565b801561124f5780601f106112245761010080835404028352916020019161124f565b820191906000526020600020905b81548152906001019060200180831161123257829003601f168201915b505050505081525050815260200160118201548152505081526020019060010190610a9b565b505050509050611287565b6060809150505b90565b600760009054906101000a900473ffffffffffffffffffffffffffffffffffffffff1673ffffffffffffffffffffffffffffffffffffffff163373ffffffffffffffffffffffffffffffffffffffff161461131a576040517f08c379a00000000000000000000000000000000000000000000000000000000081526004016113119061296a565b60405180910390fd5b806000808201518160000155602082015181600101908161133b9190612b36565b5060408201518160020190816113519190612b36565b5060608201518160030190816113679190612b36565b50608082015181600401908161137d9190612b36565b5060a08201518160050190816113939190612b36565b5090505050565b6000600760149054906101000a900460ff16806114045750600760009054906101000a900473ffffffffffffffffffffffffffffffffffffffff1673ffffffffffffffffffffffffffffffffffffffff163373ffffffffffffffffffffffffffffffffffffffff16145b1561141657600680549050905061143a565b7fffffffffffffffffffffffffffffffffffffffffffffffffffffffffffffffff90505b90565b611445611c62565b600760149054906101000a900460ff16806114ad5750600760009054906101000a900473ffffffffffffffffffffffffffffffffffffffff1673ffffffffffffffffffffffffffffffffffffffff163373ffffffffffffffffffffffffffffffffffffffff16145b156117aa5760006040518060c0016040529081600082015481526020016001820180546114d9906128ed565b80601f0160208091040260200160405190810160405280929190818152602001828054611505906128ed565b80156115525780601f1061152757610100808354040283529160200191611552565b820191906000526020600020905b81548152906001019060200180831161153557829003601f168201915b5050505050815260200160028201805461156b906128ed565b80601f0160208091040260200160405190810160405280929190818152602001828054611597906128ed565b80156115e45780601f106115b9576101008083540402835291602001916115e4565b820191906000526020600020905b8154815290600101906020018083116115c757829003601f168201915b505050505081526020016003820180546115fd906128ed565b80601f0160208091040260200160405190810160405280929190818152602001828054611629906128ed565b80156116765780601f1061164b57610100808354040283529160200191611676565b820191906000526020600020905b81548152906001019060200180831161165957829003601f168201915b5050505050815260200160048201805461168f906128ed565b80601f01602080910402602001604051908101604052809291908181526020018280546116bb906128ed565b80156117085780601f106116dd57610100808354040283529160200191611708565b820191906000526020600020905b8154815290600101906020018083116116eb57829003601f168201915b50505050508152602001600582018054611721906128ed565b80601f016020809104026020016040519081016040528092919081815260200182805461174d906128ed565b801561179a5780601f1061176f5761010080835404028352916020019161179a565b820191906000526020600020905b81548152906001019060200180831161177d57829003601f168201915b50505050508152505090506117b7565b6117b2611c62565b809150505b90565b600760009054906101000a900473ffffffffffffffffffffffffffffffffffffffff1673ffffffffffffffffffffffffffffffffffffffff163373ffffffffffffffffffffffffffffffffffffffff161461184a576040517f08c379a00000000000000000000000000000000000000000000000000000000081526004016118419061296a565b60405180910390fd5b600081905060008173ffffffffffffffffffffffffffffffffffffffff1663fd531e93336040518263ffffffff1660e01b815260040161188a9190612c17565b600060405180830381865afa1580156118a7573d6000803e3d6000fd5b505050506040513d6000823e3d601f19601f820116820180604052508101906118d091906130df565b9050600681908060018154018082558091505060019003906000526020600020906012020160009091909190915060008201518160000160008201518160000160006101000a81548173ffffffffffffffffffffffffffffffffffffffff021916908373ffffffffffffffffffffffffffffffffffffffff16021790555060208201518160010190816119639190612b36565b5060408201518160020190816119799190612b36565b50606082015181600301908161198f9190612b36565b5060808201518160040190816119a59190612b36565b50505060208201518160050160006101000a81548160ff021916908360088111156119d3576119d2611ee6565b5b021790555060408201518160050160016101000a81548160ff02191690836005811115611a0357611a02611ee6565b5b021790555060608201518160050160026101000a81548160ff02191690836001811115611a3357611a32611ee6565b5b02179055506080820151816006019081611a4d9190612b36565b5060a0820151816007019081611a639190612b36565b5060c0820151816008015560e0820151816009015561010082015181600a015561012082015181600b01600082015181600001556020820151816001019081611aac9190612b36565b506040820151816002019081611ac29190612b36565b506060820151816003019081611ad89190612b36565b506080820151816004019081611aee9190612b36565b5060a0820151816005019081611b049190612b36565b50505061014082015181601101555050505050565b600760009054906101000a900473ffffffffffffffffffffffffffffffffffffffff1673ffffffffffffffffffffffffffffffffffffffff163373ffffffffffffffffffffffffffffffffffffffff1614611ba9576040517f08c379a0000000000000000000000000000000000000000000000000000000008152600401611ba09061296a565b60405180910390fd5b80600760146101000a81548160ff02191690831515021790555050565b604051806101600160405280611bda611c98565b815260200160006008811115611bf357611bf2611ee6565b5b815260200160006005811115611c0c57611c0b611ee6565b5b815260200160006001811115611c2557611c24611ee6565b5b81526020016060815260200160608152602001600081526020016000815260200160008152602001611c55611cdd565b8152602001600081525090565b6040518060c001604052806000815260200160608152602001606081526020016060815260200160608152602001606081525090565b6040518060a00160405280600073ffffffffffffffffffffffffffffffffffffffff168152602001606081526020016060815260200160608152602001606081525090565b6040518060c001604052806000815260200160608152602001606081526020016060815260200160608152602001606081525090565b6000604051905090565b600080fd5b600080fd5b6000819050919050565b611d3a81611d27565b8114611d4557600080fd5b50565b600081359050611d5781611d31565b92915050565b600060208284031215611d7357611d72611d1d565b5b6000611d8184828501611d48565b91505092915050565b600073ffffffffffffffffffffffffffffffffffffffff82169050919050565b6000611db582611d8a565b9050919050565b611dc581611daa565b82525050565b600081519050919050565b600082825260208201905092915050565b60005b83811015611e05578082015181840152602081019050611dea565b60008484015250505050565b6000601f19601f8301169050919050565b6000611e2d82611dcb565b611e378185611dd6565b9350611e47818560208601611de7565b611e5081611e11565b840191505092915050565b600060a083016000830151611e736000860182611dbc565b5060208301518482036020860152611e8b8282611e22565b91505060408301518482036040860152611ea58282611e22565b91505060608301518482036060860152611ebf8282611e22565b91505060808301518482036080860152611ed98282611e22565b9150508091505092915050565b7f4e487b7100000000000000000000000000000000000000000000000000000000600052602160045260246000fd5b60098110611f2657611f25611ee6565b5b50565b6000819050611f3782611f15565b919050565b6000611f4782611f29565b9050919050565b611f5781611f3c565b82525050565b60068110611f6e57611f6d611ee6565b5b50565b6000819050611f7f82611f5d565b919050565b6000611f8f82611f71565b9050919050565b611f9f81611f84565b82525050565b60028110611fb657611fb5611ee6565b5b50565b6000819050611fc782611fa5565b919050565b6000611fd782611fb9565b9050919050565b611fe781611fcc565b82525050565b611ff681611d27565b82525050565b600060c0830160008301516120146000860182611fed565b506020830151848203602086015261202c8282611e22565b915050604083015184820360408601526120468282611e22565b915050606083015184820360608601526120608282611e22565b9150506080830151848203608086015261207a8282611e22565b91505060a083015184820360a08601526120948282611e22565b9150508091505092915050565b60006101608301600083015184820360008601526120bf8282611e5b565b91505060208301516120d46020860182611f4e565b5060408301516120e76040860182611f96565b5060608301516120fa6060860182611fde565b50608083015184820360808601526121128282611e22565b91505060a083015184820360a086015261212c8282611e22565b91505060c083015161214160c0860182611fed565b5060e083015161215460e0860182611fed565b50610100830151612169610100860182611fed565b506101208301518482036101208601526121838282611ffc565b91505061014083015161219a610140860182611fed565b508091505092915050565b600060208201905081810360008301526121bf81846120a1565b905092915050565b600081519050919050565b600082825260208201905092915050565b6000819050602082019050919050565b60006101608301600083015184820360008601526122118282611e5b565b91505060208301516122266020860182611f4e565b5060408301516122396040860182611f96565b50606083015161224c6060860182611fde565b50608083015184820360808601526122648282611e22565b91505060a083015184820360a086015261227e8282611e22565b91505060c083015161229360c0860182611fed565b5060e08301516122a660e0860182611fed565b506101008301516122bb610100860182611fed565b506101208301518482036101208601526122d58282611ffc565b9150506101408301516122ec610140860182611fed565b508091505092915050565b600061230383836121f3565b905092915050565b6000602082019050919050565b6000612323826121c7565b61232d81856121d2565b93508360208202850161233f856121e3565b8060005b8581101561237b578484038952815161235c85826122f7565b94506123678361230b565b925060208a01995050600181019050612343565b50829750879550505050505092915050565b600060208201905081810360008301526123a78184612318565b905092915050565b600080fd5b7f4e487b7100000000000000000000000000000000000000000000000000000000600052604160045260246000fd5b6123ec82611e11565b810181811067ffffffffffffffff8211171561240b5761240a6123b4565b5b80604052505050565b600061241e611d13565b905061242a82826123e3565b919050565b600080fd5b600080fd5b600080fd5b600067ffffffffffffffff821115612459576124586123b4565b5b61246282611e11565b9050602081019050919050565b82818337600083830152505050565b600061249161248c8461243e565b612414565b9050828152602081018484840111156124ad576124ac612439565b5b6124b884828561246f565b509392505050565b600082601f8301126124d5576124d4612434565b5b81356124e584826020860161247e565b91505092915050565b600060c08284031215612504576125036123af565b5b61250e60c0612414565b9050600061251e84828501611d48565b600083015250602082013567ffffffffffffffff8111156125425761254161242f565b5b61254e848285016124c0565b602083015250604082013567ffffffffffffffff8111156125725761257161242f565b5b61257e848285016124c0565b604083015250606082013567ffffffffffffffff8111156125a2576125a161242f565b5b6125ae848285016124c0565b606083015250608082013567ffffffffffffffff8111156125d2576125d161242f565b5b6125de848285016124c0565b60808301525060a082013567ffffffffffffffff8111156126025761260161242f565b5b61260e848285016124c0565b60a08301525092915050565b6000602082840312156126305761262f611d1d565b5b600082013567ffffffffffffffff81111561264e5761264d611d22565b5b61265a848285016124ee565b91505092915050565b61266c81611d27565b82525050565b60006020820190506126876000830184612663565b92915050565b600060c0830160008301516126a56000860182611fed565b50602083015184820360208601526126bd8282611e22565b915050604083015184820360408601526126d78282611e22565b915050606083015184820360608601526126f18282611e22565b9150506080830151848203608086015261270b8282611e22565b91505060a083015184820360a08601526127258282611e22565b9150508091505092915050565b6000602082019050818103600083015261274c818461268d565b905092915050565b61275d81611daa565b811461276857600080fd5b50565b60008135905061277a81612754565b92915050565b60006020828403121561279657612795611d1d565b5b60006127a48482850161276b565b91505092915050565b60008115159050919050565b6127c2816127ad565b81146127cd57600080fd5b50565b6000813590506127df816127b9565b92915050565b6000602082840312156127fb576127fa611d1d565b5b6000612809848285016127d0565b91505092915050565b600082825260208201905092915050565b7f54686973206365727469666963617465206973206e6f74206578697374000000600082015250565b6000612859601d83612812565b915061286482612823565b602082019050919050565b600060208201905081810360008301526128888161284c565b9050919050565b7f4e487b7100000000000000000000000000000000000000000000000000000000600052603260045260246000fd5b7f4e487b7100000000000000000000000000000000000000000000000000000000600052602260045260246000fd5b6000600282049050600182168061290557607f821691505b602082108103612918576129176128be565b5b50919050565b7f6f6e6c79206f776e65722063616e20646f000000000000000000000000000000600082015250565b6000612954601183612812565b915061295f8261291e565b602082019050919050565b6000602082019050818103600083015261298381612947565b9050919050565b60008190508160005260206000209050919050565b60006020601f8301049050919050565b600082821b905092915050565b6000600883026129ec7fffffffffffffffffffffffffffffffffffffffffffffffffffffffffffffffff826129af565b6129f686836129af565b95508019841693508086168417925050509392505050565b6000819050919050565b6000612a33612a2e612a2984611d27565b612a0e565b611d27565b9050919050565b6000819050919050565b612a4d83612a18565b612a61612a5982612a3a565b8484546129bc565b825550505050565b600090565b612a76612a69565b612a81818484612a44565b505050565b5b81811015612aa557612a9a600082612a6e565b600181019050612a87565b5050565b601f821115612aea57612abb8161298a565b612ac48461299f565b81016020851015612ad3578190505b612ae7612adf8561299f565b830182612a86565b50505b505050565b600082821c905092915050565b6000612b0d60001984600802612aef565b1980831691505092915050565b6000612b268383612afc565b9150826002028217905092915050565b612b3f82611dcb565b67ffffffffffffffff811115612b5857612b576123b4565b5b612b6282546128ed565b612b6d828285612aa9565b600060209050601f831160018114612ba05760008415612b8e578287015190505b612b988582612b1a565b865550612c00565b601f198416612bae8661298a565b60005b82811015612bd657848901518255600182019150602085019450602081019050612bb1565b86831015612bf35784890151612bef601f891682612afc565b8355505b6001600288020188555050505b505050505050565b612c1181611daa565b82525050565b6000602082019050612c2c6000830184612c08565b92915050565b600081519050612c4181612754565b92915050565b6000612c5a612c558461243e565b612414565b905082815260208101848484011115612c7657612c75612439565b5b612c81848285611de7565b509392505050565b600082601f830112612c9e57612c9d612434565b5b8151612cae848260208601612c47565b91505092915050565b600060a08284031215612ccd57612ccc6123af565b5b612cd760a0612414565b90506000612ce784828501612c32565b600083015250602082015167ffffffffffffffff811115612d0b57612d0a61242f565b5b612d1784828501612c89565b602083015250604082015167ffffffffffffffff811115612d3b57612d3a61242f565b5b612d4784828501612c89565b604083015250606082015167ffffffffffffffff811115612d6b57612d6a61242f565b5b612d7784828501612c89565b606083015250608082015167ffffffffffffffff811115612d9b57612d9a61242f565b5b612da784828501612c89565b60808301525092915050565b60098110612dc057600080fd5b50565b600081519050612dd281612db3565b92915050565b60068110612de557600080fd5b50565b600081519050612df781612dd8565b92915050565b60028110612e0a57600080fd5b50565b600081519050612e1c81612dfd565b92915050565b600081519050612e3181611d31565b92915050565b600060c08284031215612e4d57612e4c6123af565b5b612e5760c0612414565b90506000612e6784828501612e22565b600083015250602082015167ffffffffffffffff811115612e8b57612e8a61242f565b5b612e9784828501612c89565b602083015250604082015167ffffffffffffffff811115612ebb57612eba61242f565b5b612ec784828501612c89565b604083015250606082015167ffffffffffffffff811115612eeb57612eea61242f565b5b612ef784828501612c89565b606083015250608082015167ffffffffffffffff811115612f1b57612f1a61242f565b5b612f2784828501612c89565b60808301525060a082015167ffffffffffffffff811115612f4b57612f4a61242f565b5b612f5784828501612c89565b60a08301525092915050565b60006101608284031215612f7a57612f796123af565b5b612f85610160612414565b9050600082015167ffffffffffffffff811115612fa557612fa461242f565b5b612fb184828501612cb7565b6000830152506020612fc584828501612dc3565b6020830152506040612fd984828501612de8565b6040830152506060612fed84828501612e0d565b606083015250608082015167ffffffffffffffff8111156130115761301061242f565b5b61301d84828501612c89565b60808301525060a082015167ffffffffffffffff8111156130415761304061242f565b5b61304d84828501612c89565b60a08301525060c061306184828501612e22565b60c08301525060e061307584828501612e22565b60e08301525061010061308a84828501612e22565b6101008301525061012082015167ffffffffffffffff8111156130b0576130af61242f565b5b6130bc84828501612e37565b610120830152506101406130d284828501612e22565b6101408301525092915050565b6000602082840312156130f5576130f4611d1d565b5b600082015167ffffffffffffffff81111561311357613112611d22565b5b61311f84828501612f63565b9150509291505056fea26469706673582212201ce4f259f3e77ee89f6495948323c9670355158c7eef6cd065a182178fe5818d64736f6c63430008130033",
  "immutableReferences": {},
  "source": "//SPDX-License-Identifier: MIT\npragma solidity ^0.8.0;\n\nimport \"./Definition.sol\";\nimport \"./ICertificate.sol\";\nimport \"./IPerson.sol\";\n\ncontract Person is IPerson\n{\n    Personal_Info private personalInfo;\n    Certificate_Info[] certificates;\n    address owner;\n    bool isPublic;\n\n    constructor()\n    {\n        owner = msg.sender;\n        isPublic = false;\n    }\n\n    modifier onlyOwner()\n    {\n        require(msg.sender == owner, \"only owner can do\");\n        _;\n    }\n\n    function setToPublic(bool _isPublic) public onlyOwner()\n    {\n        isPublic = _isPublic;\n    }\n\n    // before add certificate to self. please call acceptCertificateContract first. \n    function addCertificateContract(address _add) public onlyOwner()\n    {\n        ICertificate certContract = ICertificate(_add);\n        Certificate_Info memory cert = certContract.getCertificate(msg.sender);\n        certificates.push(cert);\n    }\n\n    function setPersonalInfo(Personal_Info memory _info) public onlyOwner()\n    {\n        personalInfo = _info;\n    }\n\n    function getPersonalInfo() external override view returns (Personal_Info memory) \n    {\n        if (isPublic || msg.sender == owner)\n        {\n            return personalInfo;\n        }\n        else\n        {\n            Personal_Info memory _person;\n            return _person;\n        }\n    }\n\n    function getAllCertificates() external override view returns (Certificate_Info[] memory)\n    {\n        if (isPublic || msg.sender == owner)\n        {\n            return certificates;\n        }\n        else\n        {\n            Certificate_Info[] memory _certs;\n            return _certs;\n        }\n    }\n\n    function getCertificatesCounts() external override view returns (uint)\n    {\n        if (isPublic || msg.sender == owner)\n        {\n            return certificates.length;\n        }\n        else\n        {\n            return type(uint).max;\n        }\n    }\n\n    function getCertificateByIndex(uint _index) external override view returns (Certificate_Info memory)\n    {\n        require(_index < certificates.length, \"This certificate is not exist\");\n        \n        if (isPublic || msg.sender == owner)\n        {\n            return certificates[_index];\n        }\n        else\n        {\n            Certificate_Info memory _cert;\n            return _cert;\n        }\n    }\n}",
  "sourcePath": "/Users/zhougaoqiang/Documents/GitHub/SmartCertify/web-app/blockchain/contracts/Person.sol",
  "compiler": {
    "name": "solc",
    "version": "0.8.19+commit.7dd6d404.Emscripten.clang"
  },
  "schemaVersion": "3.4.16",
  "updatedAt": "2024-03-31T05:43:06.603Z",
  "devdoc": {
    "kind": "dev",
    "methods": {},
    "version": 1
  },
  "userdoc": {
    "kind": "user",
    "methods": {},
    "version": 1
  }
}