{
  "contractName": "School",
  "abi": [
    {
      "inputs": [
        {
          "internalType": "string",
          "name": "_schoolId",
          "type": "string"
        },
        {
          "internalType": "string",
          "name": "_name",
          "type": "string"
        },
        {
          "internalType": "string",
          "name": "_phyAdd",
          "type": "string"
        },
        {
          "internalType": "string",
          "name": "_email",
          "type": "string"
        }
      ],
      "stateMutability": "nonpayable",
      "type": "constructor"
    },
    {
      "anonymous": false,
      "inputs": [
        {
          "indexed": false,
          "internalType": "bool",
          "name": "",
          "type": "bool"
        }
      ],
      "name": "graduationResult",
      "type": "event"
    },
    {
      "anonymous": false,
      "inputs": [
        {
          "indexed": false,
          "internalType": "uint256",
          "name": "",
          "type": "uint256"
        }
      ],
      "name": "hasCertificateResult",
      "type": "event"
    },
    {
      "inputs": [],
      "name": "schoolInfo",
      "outputs": [
        {
          "internalType": "address",
          "name": "schoolContractAddress",
          "type": "address"
        },
        {
          "internalType": "string",
          "name": "id",
          "type": "string"
        },
        {
          "internalType": "string",
          "name": "name",
          "type": "string"
        },
        {
          "internalType": "string",
          "name": "add",
          "type": "string"
        },
        {
          "internalType": "string",
          "name": "email",
          "type": "string"
        }
      ],
      "stateMutability": "view",
      "type": "function"
    },
    {
      "inputs": [
        {
          "internalType": "address",
          "name": "_add",
          "type": "address"
        }
      ],
      "name": "addAdmin",
      "outputs": [],
      "stateMutability": "nonpayable",
      "type": "function"
    },
    {
      "inputs": [
        {
          "internalType": "address",
          "name": "_add",
          "type": "address"
        }
      ],
      "name": "removeAdmin",
      "outputs": [],
      "stateMutability": "nonpayable",
      "type": "function"
    },
    {
      "inputs": [
        {
          "components": [
            {
              "internalType": "address",
              "name": "schoolContractAddress",
              "type": "address"
            },
            {
              "internalType": "string",
              "name": "id",
              "type": "string"
            },
            {
              "internalType": "string",
              "name": "name",
              "type": "string"
            },
            {
              "internalType": "string",
              "name": "add",
              "type": "string"
            },
            {
              "internalType": "string",
              "name": "email",
              "type": "string"
            }
          ],
          "internalType": "struct School_Info",
          "name": "_schInfo",
          "type": "tuple"
        }
      ],
      "name": "updateSchoolInfo",
      "outputs": [],
      "stateMutability": "nonpayable",
      "type": "function"
    },
    {
      "inputs": [
        {
          "components": [
            {
              "internalType": "uint256",
              "name": "id",
              "type": "uint256"
            },
            {
              "internalType": "string",
              "name": "nationality",
              "type": "string"
            },
            {
              "internalType": "string",
              "name": "nric",
              "type": "string"
            },
            {
              "internalType": "string",
              "name": "passport",
              "type": "string"
            },
            {
              "internalType": "string",
              "name": "name",
              "type": "string"
            },
            {
              "internalType": "string",
              "name": "add",
              "type": "string"
            }
          ],
          "internalType": "struct Student_Info",
          "name": "_stdInfo",
          "type": "tuple"
        },
        {
          "internalType": "enum ECertificateCategory",
          "name": "_category",
          "type": "uint8"
        },
        {
          "internalType": "string",
          "name": "_major",
          "type": "string"
        }
      ],
      "name": "studentAdmission",
      "outputs": [],
      "stateMutability": "nonpayable",
      "type": "function"
    },
    {
      "inputs": [
        {
          "internalType": "uint256",
          "name": "_studId",
          "type": "uint256"
        }
      ],
      "name": "getStudCert",
      "outputs": [
        {
          "components": [
            {
              "components": [
                {
                  "internalType": "address",
                  "name": "schoolContractAddress",
                  "type": "address"
                },
                {
                  "internalType": "string",
                  "name": "id",
                  "type": "string"
                },
                {
                  "internalType": "string",
                  "name": "name",
                  "type": "string"
                },
                {
                  "internalType": "string",
                  "name": "add",
                  "type": "string"
                },
                {
                  "internalType": "string",
                  "name": "email",
                  "type": "string"
                }
              ],
              "internalType": "struct School_Info",
              "name": "schoolInfo",
              "type": "tuple"
            },
            {
              "internalType": "enum ECertificateCategory",
              "name": "category",
              "type": "uint8"
            },
            {
              "internalType": "enum EHonor",
              "name": "honor",
              "type": "uint8"
            },
            {
              "internalType": "enum EStudyStatus",
              "name": "status",
              "type": "uint8"
            },
            {
              "internalType": "string",
              "name": "major",
              "type": "string"
            },
            {
              "internalType": "string",
              "name": "description",
              "type": "string"
            },
            {
              "internalType": "uint256",
              "name": "certificateId",
              "type": "uint256"
            },
            {
              "internalType": "uint256",
              "name": "admissionTimestamp",
              "type": "uint256"
            },
            {
              "internalType": "uint256",
              "name": "graduationTimestamp",
              "type": "uint256"
            },
            {
              "components": [
                {
                  "internalType": "uint256",
                  "name": "id",
                  "type": "uint256"
                },
                {
                  "internalType": "string",
                  "name": "nationality",
                  "type": "string"
                },
                {
                  "internalType": "string",
                  "name": "nric",
                  "type": "string"
                },
                {
                  "internalType": "string",
                  "name": "passport",
                  "type": "string"
                },
                {
                  "internalType": "string",
                  "name": "name",
                  "type": "string"
                },
                {
                  "internalType": "string",
                  "name": "add",
                  "type": "string"
                }
              ],
              "internalType": "struct Student_Info",
              "name": "studentDetails",
              "type": "tuple"
            },
            {
              "internalType": "uint256",
              "name": "signature",
              "type": "uint256"
            }
          ],
          "internalType": "struct Certificate_Info",
          "name": "",
          "type": "tuple"
        }
      ],
      "stateMutability": "view",
      "type": "function"
    },
    {
      "inputs": [
        {
          "internalType": "uint256",
          "name": "_stuId",
          "type": "uint256"
        },
        {
          "internalType": "enum EHonor",
          "name": "_honor",
          "type": "uint8"
        },
        {
          "internalType": "enum EStudyStatus",
          "name": "_status",
          "type": "uint8"
        },
        {
          "internalType": "string",
          "name": "_decription",
          "type": "string"
        }
      ],
      "name": "setStudCert",
      "outputs": [],
      "stateMutability": "nonpayable",
      "type": "function"
    },
    {
      "inputs": [],
      "name": "getAllStudent",
      "outputs": [
        {
          "components": [
            {
              "internalType": "uint256",
              "name": "id",
              "type": "uint256"
            },
            {
              "internalType": "string",
              "name": "name",
              "type": "string"
            }
          ],
          "internalType": "struct School.StudIdNamePair[]",
          "name": "",
          "type": "tuple[]"
        }
      ],
      "stateMutability": "view",
      "type": "function"
    },
    {
      "inputs": [
        {
          "internalType": "uint256",
          "name": "_studId",
          "type": "uint256"
        },
        {
          "internalType": "address",
          "name": "_stud",
          "type": "address"
        },
        {
          "internalType": "address",
          "name": "newStudentContract",
          "type": "address"
        }
      ],
      "name": "studentGradutaion",
      "outputs": [
        {
          "internalType": "bool",
          "name": "",
          "type": "bool"
        }
      ],
      "stateMutability": "nonpayable",
      "type": "function"
    },
    {
      "inputs": [
        {
          "components": [
            {
              "components": [
                {
                  "internalType": "address",
                  "name": "schoolContractAddress",
                  "type": "address"
                },
                {
                  "internalType": "string",
                  "name": "id",
                  "type": "string"
                },
                {
                  "internalType": "string",
                  "name": "name",
                  "type": "string"
                },
                {
                  "internalType": "string",
                  "name": "add",
                  "type": "string"
                },
                {
                  "internalType": "string",
                  "name": "email",
                  "type": "string"
                }
              ],
              "internalType": "struct School_Info",
              "name": "schoolInfo",
              "type": "tuple"
            },
            {
              "internalType": "enum ECertificateCategory",
              "name": "category",
              "type": "uint8"
            },
            {
              "internalType": "enum EHonor",
              "name": "honor",
              "type": "uint8"
            },
            {
              "internalType": "enum EStudyStatus",
              "name": "status",
              "type": "uint8"
            },
            {
              "internalType": "string",
              "name": "major",
              "type": "string"
            },
            {
              "internalType": "string",
              "name": "description",
              "type": "string"
            },
            {
              "internalType": "uint256",
              "name": "certificateId",
              "type": "uint256"
            },
            {
              "internalType": "uint256",
              "name": "admissionTimestamp",
              "type": "uint256"
            },
            {
              "internalType": "uint256",
              "name": "graduationTimestamp",
              "type": "uint256"
            },
            {
              "components": [
                {
                  "internalType": "uint256",
                  "name": "id",
                  "type": "uint256"
                },
                {
                  "internalType": "string",
                  "name": "nationality",
                  "type": "string"
                },
                {
                  "internalType": "string",
                  "name": "nric",
                  "type": "string"
                },
                {
                  "internalType": "string",
                  "name": "passport",
                  "type": "string"
                },
                {
                  "internalType": "string",
                  "name": "name",
                  "type": "string"
                },
                {
                  "internalType": "string",
                  "name": "add",
                  "type": "string"
                }
              ],
              "internalType": "struct Student_Info",
              "name": "studentDetails",
              "type": "tuple"
            },
            {
              "internalType": "uint256",
              "name": "signature",
              "type": "uint256"
            }
          ],
          "internalType": "struct Certificate_Info",
          "name": "_cert",
          "type": "tuple"
        }
      ],
      "name": "verifyGraduatedStudentCertificate",
      "outputs": [
        {
          "internalType": "bool",
          "name": "",
          "type": "bool"
        }
      ],
      "stateMutability": "nonpayable",
      "type": "function"
    },
    {
      "inputs": [
        {
          "internalType": "uint256",
          "name": "_studId",
          "type": "uint256"
        },
        {
          "internalType": "uint256",
          "name": "_signature",
          "type": "uint256"
        }
      ],
      "name": "directVerifyGraduatedStudentCertificate",
      "outputs": [
        {
          "internalType": "bool",
          "name": "",
          "type": "bool"
        }
      ],
      "stateMutability": "view",
      "type": "function"
    }
  ],
  "bytecode": "0x60806040523480156200001157600080fd5b5060405162004ddc38038062004ddc8339818101604052810190620000379190620002ac565b33600560006101000a81548173ffffffffffffffffffffffffffffffffffffffff021916908373ffffffffffffffffffffffffffffffffffffffff160217905550306000800160006101000a81548173ffffffffffffffffffffffffffffffffffffffff021916908373ffffffffffffffffffffffffffffffffffffffff1602179055508360006001019081620000cf9190620005e5565b508260006002019081620000e49190620005e5565b508160006003019081620000f99190620005e5565b5080600060040190816200010e9190620005e5565b5050505050620006cc565b6000604051905090565b600080fd5b600080fd5b600080fd5b600080fd5b6000601f19601f8301169050919050565b7f4e487b7100000000000000000000000000000000000000000000000000000000600052604160045260246000fd5b620001828262000137565b810181811067ffffffffffffffff82111715620001a457620001a362000148565b5b80604052505050565b6000620001b962000119565b9050620001c7828262000177565b919050565b600067ffffffffffffffff821115620001ea57620001e962000148565b5b620001f58262000137565b9050602081019050919050565b60005b838110156200022257808201518184015260208101905062000205565b60008484015250505050565b6000620002456200023f84620001cc565b620001ad565b90508281526020810184848401111562000264576200026362000132565b5b6200027184828562000202565b509392505050565b600082601f8301126200029157620002906200012d565b5b8151620002a38482602086016200022e565b91505092915050565b60008060008060808587031215620002c957620002c862000123565b5b600085015167ffffffffffffffff811115620002ea57620002e962000128565b5b620002f88782880162000279565b945050602085015167ffffffffffffffff8111156200031c576200031b62000128565b5b6200032a8782880162000279565b935050604085015167ffffffffffffffff8111156200034e576200034d62000128565b5b6200035c8782880162000279565b925050606085015167ffffffffffffffff81111562000380576200037f62000128565b5b6200038e8782880162000279565b91505092959194509250565b600081519050919050565b7f4e487b7100000000000000000000000000000000000000000000000000000000600052602260045260246000fd5b60006002820490506001821680620003ed57607f821691505b602082108103620004035762000402620003a5565b5b50919050565b60008190508160005260206000209050919050565b60006020601f8301049050919050565b600082821b905092915050565b6000600883026200046d7fffffffffffffffffffffffffffffffffffffffffffffffffffffffffffffffff826200042e565b6200047986836200042e565b95508019841693508086168417925050509392505050565b6000819050919050565b6000819050919050565b6000620004c6620004c0620004ba8462000491565b6200049b565b62000491565b9050919050565b6000819050919050565b620004e283620004a5565b620004fa620004f182620004cd565b8484546200043b565b825550505050565b600090565b6200051162000502565b6200051e818484620004d7565b505050565b5b8181101562000546576200053a60008262000507565b60018101905062000524565b5050565b601f82111562000595576200055f8162000409565b6200056a846200041e565b810160208510156200057a578190505b6200059262000589856200041e565b83018262000523565b50505b505050565b600082821c905092915050565b6000620005ba600019846008026200059a565b1980831691505092915050565b6000620005d58383620005a7565b9150826002028217905092915050565b620005f0826200039a565b67ffffffffffffffff8111156200060c576200060b62000148565b5b620006188254620003d4565b620006258282856200054a565b600060209050601f8311600181146200065d576000841562000648578287015190505b620006548582620005c7565b865550620006c4565b601f1984166200066d8662000409565b60005b82811015620006975784890151825560018201915060208501945060208101905062000670565b86831015620006b75784890151620006b3601f891682620005a7565b8355505b6001600288020188555050505b505050505050565b61470080620006dc6000396000f3fe608060405234801561001057600080fd5b50600436106100a95760003560e01c806379ad79571161007157806379ad7957146101505780637cab702414610180578063984840e0146101b0578063acfd25b6146101cc578063d00a2165146101fc578063da139a001461021e576100a9565b8063133d0460146100ae5780631785f53c146100cc5780634167668c146100e85780636ff2603e146101045780637048027514610134575b600080fd5b6100b661023a565b6040516100c39190612cb1565b60405180910390f35b6100e660048036038101906100e19190612d45565b610420565b005b61010260048036038101906100fd9190612f1d565b61050b565b005b61011e60048036038101906101199190612fa0565b61069c565b60405161012b9190613317565b60405180910390f35b61014e60048036038101906101499190612d45565b610f5c565b005b61016a6004803603810190610165919061370c565b611047565b6040516101779190613770565b60405180910390f35b61019a6004803603810190610195919061378b565b6110b3565b6040516101a79190613770565b60405180910390f35b6101ca60048036038101906101c591906137cb565b6110d3565b005b6101e660048036038101906101e19190613856565b6117db565b6040516101f39190613770565b60405180910390f35b610204612476565b604051610215959493929190613902565b60405180910390f35b61023860048036038101906102339190613971565b6126da565b005b60603373ffffffffffffffffffffffffffffffffffffffff16600560009054906101000a900473ffffffffffffffffffffffffffffffffffffffff1673ffffffffffffffffffffffffffffffffffffffff1614806102e8575060011515600660003373ffffffffffffffffffffffffffffffffffffffff1673ffffffffffffffffffffffffffffffffffffffff16815260200190815260200160002060009054906101000a900460ff161515145b610327576040517f08c379a000000000000000000000000000000000000000000000000000000000815260040161031e90613a06565b60405180910390fd5b6008805480602002602001604051908101604052809291908181526020016000905b8282101561041757838290600052602060002090600202016040518060400160405290816000820154815260200160018201805461038690613a55565b80601f01602080910402602001604051908101604052809291908181526020018280546103b290613a55565b80156103ff5780601f106103d4576101008083540402835291602001916103ff565b820191906000526020600020905b8154815290600101906020018083116103e257829003601f168201915b50505050508152505081526020019060010190610349565b50505050905090565b600560009054906101000a900473ffffffffffffffffffffffffffffffffffffffff1673ffffffffffffffffffffffffffffffffffffffff163373ffffffffffffffffffffffffffffffffffffffff16146104b0576040517f08c379a00000000000000000000000000000000000000000000000000000000081526004016104a790613ad2565b60405180910390fd5b6000600660008373ffffffffffffffffffffffffffffffffffffffff1673ffffffffffffffffffffffffffffffffffffffff16815260200190815260200160002060006101000a81548160ff02191690831515021790555050565b3373ffffffffffffffffffffffffffffffffffffffff16600560009054906101000a900473ffffffffffffffffffffffffffffffffffffffff1673ffffffffffffffffffffffffffffffffffffffff1614806105b7575060011515600660003373ffffffffffffffffffffffffffffffffffffffff1673ffffffffffffffffffffffffffffffffffffffff16815260200190815260200160002060009054906101000a900460ff161515145b6105f6576040517f08c379a00000000000000000000000000000000000000000000000000000000081526004016105ed90613a06565b60405180910390fd5b826007600086815260200190815260200160002060050160016101000a81548160ff0219169083600581111561062f5761062e613067565b5b0217905550816007600086815260200190815260200160002060050160026101000a81548160ff0219169083600181111561066d5761066c613067565b5b0217905550806007600086815260200190815260200160002060070190816106959190613c9e565b5050505050565b6106a461297b565b3373ffffffffffffffffffffffffffffffffffffffff16600560009054906101000a900473ffffffffffffffffffffffffffffffffffffffff1673ffffffffffffffffffffffffffffffffffffffff161480610750575060011515600660003373ffffffffffffffffffffffffffffffffffffffff1673ffffffffffffffffffffffffffffffffffffffff16815260200190815260200160002060009054906101000a900460ff161515145b61078f576040517f08c379a000000000000000000000000000000000000000000000000000000000815260040161078690613a06565b60405180910390fd5b6007600083815260200190815260200160002060405180610160016040529081600082016040518060a00160405290816000820160009054906101000a900473ffffffffffffffffffffffffffffffffffffffff1673ffffffffffffffffffffffffffffffffffffffff1673ffffffffffffffffffffffffffffffffffffffff16815260200160018201805461082490613a55565b80601f016020809104026020016040519081016040528092919081815260200182805461085090613a55565b801561089d5780601f106108725761010080835404028352916020019161089d565b820191906000526020600020905b81548152906001019060200180831161088057829003601f168201915b505050505081526020016002820180546108b690613a55565b80601f01602080910402602001604051908101604052809291908181526020018280546108e290613a55565b801561092f5780601f106109045761010080835404028352916020019161092f565b820191906000526020600020905b81548152906001019060200180831161091257829003601f168201915b5050505050815260200160038201805461094890613a55565b80601f016020809104026020016040519081016040528092919081815260200182805461097490613a55565b80156109c15780601f10610996576101008083540402835291602001916109c1565b820191906000526020600020905b8154815290600101906020018083116109a457829003601f168201915b505050505081526020016004820180546109da90613a55565b80601f0160208091040260200160405190810160405280929190818152602001828054610a0690613a55565b8015610a535780601f10610a2857610100808354040283529160200191610a53565b820191906000526020600020905b815481529060010190602001808311610a3657829003601f168201915b50505050508152505081526020016005820160009054906101000a900460ff166008811115610a8557610a84613067565b5b6008811115610a9757610a96613067565b5b81526020016005820160019054906101000a900460ff166005811115610ac057610abf613067565b5b6005811115610ad257610ad1613067565b5b81526020016005820160029054906101000a900460ff166001811115610afb57610afa613067565b5b6001811115610b0d57610b0c613067565b5b8152602001600682018054610b2190613a55565b80601f0160208091040260200160405190810160405280929190818152602001828054610b4d90613a55565b8015610b9a5780601f10610b6f57610100808354040283529160200191610b9a565b820191906000526020600020905b815481529060010190602001808311610b7d57829003601f168201915b50505050508152602001600782018054610bb390613a55565b80601f0160208091040260200160405190810160405280929190818152602001828054610bdf90613a55565b8015610c2c5780601f10610c0157610100808354040283529160200191610c2c565b820191906000526020600020905b815481529060010190602001808311610c0f57829003601f168201915b505050505081526020016008820154815260200160098201548152602001600a8201548152602001600b82016040518060c001604052908160008201548152602001600182018054610c7d90613a55565b80601f0160208091040260200160405190810160405280929190818152602001828054610ca990613a55565b8015610cf65780601f10610ccb57610100808354040283529160200191610cf6565b820191906000526020600020905b815481529060010190602001808311610cd957829003601f168201915b50505050508152602001600282018054610d0f90613a55565b80601f0160208091040260200160405190810160405280929190818152602001828054610d3b90613a55565b8015610d885780601f10610d5d57610100808354040283529160200191610d88565b820191906000526020600020905b815481529060010190602001808311610d6b57829003601f168201915b50505050508152602001600382018054610da190613a55565b80601f0160208091040260200160405190810160405280929190818152602001828054610dcd90613a55565b8015610e1a5780601f10610def57610100808354040283529160200191610e1a565b820191906000526020600020905b815481529060010190602001808311610dfd57829003601f168201915b50505050508152602001600482018054610e3390613a55565b80601f0160208091040260200160405190810160405280929190818152602001828054610e5f90613a55565b8015610eac5780601f10610e8157610100808354040283529160200191610eac565b820191906000526020600020905b815481529060010190602001808311610e8f57829003601f168201915b50505050508152602001600582018054610ec590613a55565b80601f0160208091040260200160405190810160405280929190818152602001828054610ef190613a55565b8015610f3e5780601f10610f1357610100808354040283529160200191610f3e565b820191906000526020600020905b815481529060010190602001808311610f2157829003601f168201915b50505050508152505081526020016011820154815250509050919050565b600560009054906101000a900473ffffffffffffffffffffffffffffffffffffffff1673ffffffffffffffffffffffffffffffffffffffff163373ffffffffffffffffffffffffffffffffffffffff1614610fec576040517f08c379a0000000000000000000000000000000000000000000000000000000008152600401610fe390613ad2565b60405180910390fd5b6001600660008373ffffffffffffffffffffffffffffffffffffffff1673ffffffffffffffffffffffffffffffffffffffff16815260200190815260200160002060006101000a81548160ff02191690831515021790555050565b6000806110538361286c565b90507f3d362c08ea38ed8ef41de0349035806995a2fbcddd34286fd2a16b8694ce512f816040516110849190613d7f565b60405180910390a180600960008561012001516000015181526020019081526020016000205414915050919050565b600081600960008581526020019081526020016000205414905092915050565b3373ffffffffffffffffffffffffffffffffffffffff16600560009054906101000a900473ffffffffffffffffffffffffffffffffffffffff1673ffffffffffffffffffffffffffffffffffffffff16148061117f575060011515600660003373ffffffffffffffffffffffffffffffffffffffff1673ffffffffffffffffffffffffffffffffffffffff16815260200190815260200160002060009054906101000a900460ff161515145b6111be576040517f08c379a00000000000000000000000000000000000000000000000000000000081526004016111b590613a06565b60405180910390fd5b6000836000015190506111cf61297b565b60006040518060a00160405290816000820160009054906101000a900473ffffffffffffffffffffffffffffffffffffffff1673ffffffffffffffffffffffffffffffffffffffff1673ffffffffffffffffffffffffffffffffffffffff16815260200160018201805461124290613a55565b80601f016020809104026020016040519081016040528092919081815260200182805461126e90613a55565b80156112bb5780601f10611290576101008083540402835291602001916112bb565b820191906000526020600020905b81548152906001019060200180831161129e57829003601f168201915b505050505081526020016002820180546112d490613a55565b80601f016020809104026020016040519081016040528092919081815260200182805461130090613a55565b801561134d5780601f106113225761010080835404028352916020019161134d565b820191906000526020600020905b81548152906001019060200180831161133057829003601f168201915b5050505050815260200160038201805461136690613a55565b80601f016020809104026020016040519081016040528092919081815260200182805461139290613a55565b80156113df5780601f106113b4576101008083540402835291602001916113df565b820191906000526020600020905b8154815290600101906020018083116113c257829003601f168201915b505050505081526020016004820180546113f890613a55565b80601f016020809104026020016040519081016040528092919081815260200182805461142490613a55565b80156114715780601f1061144657610100808354040283529160200191611471565b820191906000526020600020905b81548152906001019060200180831161145457829003601f168201915b505050505081525050816000018190525060008160400190600581111561149b5761149a613067565b5b908160058111156114af576114ae613067565b5b815250506000816060019060018111156114cc576114cb613067565b5b908160018111156114e0576114df613067565b5b81525050428160e001818152505084816101200181905250818160c0018181525050838160200190600881111561151a57611519613067565b5b9081600881111561152e5761152d613067565b5b81525050828160800181905250806007600084815260200190815260200160002060008201518160000160008201518160000160006101000a81548173ffffffffffffffffffffffffffffffffffffffff021916908373ffffffffffffffffffffffffffffffffffffffff16021790555060208201518160010190816115b49190613c9e565b5060408201518160020190816115ca9190613c9e565b5060608201518160030190816115e09190613c9e565b5060808201518160040190816115f69190613c9e565b50505060208201518160050160006101000a81548160ff0219169083600881111561162457611623613067565b5b021790555060408201518160050160016101000a81548160ff0219169083600581111561165457611653613067565b5b021790555060608201518160050160026101000a81548160ff0219169083600181111561168457611683613067565b5b0217905550608082015181600601908161169e9190613c9e565b5060a08201518160070190816116b49190613c9e565b5060c0820151816008015560e0820151816009015561010082015181600a015561012082015181600b016000820151816000015560208201518160010190816116fd9190613c9e565b5060408201518160020190816117139190613c9e565b5060608201518160030190816117299190613c9e565b50608082015181600401908161173f9190613c9e565b5060a08201518160050190816117559190613c9e565b505050610140820151816011015590505061176e612a17565b828160000181815250508560800151816020018190525060088190806001815401808255809150506001900390600052602060002090600202016000909190919091506000820151816000015560208201518160010190816117d09190613c9e565b505050505050505050565b60003373ffffffffffffffffffffffffffffffffffffffff16600560009054906101000a900473ffffffffffffffffffffffffffffffffffffffff1673ffffffffffffffffffffffffffffffffffffffff161480611889575060011515600660003373ffffffffffffffffffffffffffffffffffffffff1673ffffffffffffffffffffffffffffffffffffffff16815260200190815260200160002060009054906101000a900460ff161515145b6118c8576040517f08c379a00000000000000000000000000000000000000000000000000000000081526004016118bf90613a06565b60405180910390fd5b60005b6008805490508110156124315784600882815481106118ed576118ec613d9a565b5b9060005260206000209060020201600001540361241e576000600181111561191857611917613067565b5b6007600087815260200190815260200160002060050160029054906101000a900460ff16600181111561194e5761194d613067565b5b03611995577f234b1caf9afd178ffb3fd544d9b8114c4ad4e9a3f0aa8bac4c929c8150a8a5a760006040516119839190613770565b60405180910390a1600091505061246f565b4260076000878152602001908152602001600020600a018190555061217e6007600087815260200190815260200160002060405180610160016040529081600082016040518060a00160405290816000820160009054906101000a900473ffffffffffffffffffffffffffffffffffffffff1673ffffffffffffffffffffffffffffffffffffffff1673ffffffffffffffffffffffffffffffffffffffff168152602001600182018054611a4890613a55565b80601f0160208091040260200160405190810160405280929190818152602001828054611a7490613a55565b8015611ac15780601f10611a9657610100808354040283529160200191611ac1565b820191906000526020600020905b815481529060010190602001808311611aa457829003601f168201915b50505050508152602001600282018054611ada90613a55565b80601f0160208091040260200160405190810160405280929190818152602001828054611b0690613a55565b8015611b535780601f10611b2857610100808354040283529160200191611b53565b820191906000526020600020905b815481529060010190602001808311611b3657829003601f168201915b50505050508152602001600382018054611b6c90613a55565b80601f0160208091040260200160405190810160405280929190818152602001828054611b9890613a55565b8015611be55780601f10611bba57610100808354040283529160200191611be5565b820191906000526020600020905b815481529060010190602001808311611bc857829003601f168201915b50505050508152602001600482018054611bfe90613a55565b80601f0160208091040260200160405190810160405280929190818152602001828054611c2a90613a55565b8015611c775780601f10611c4c57610100808354040283529160200191611c77565b820191906000526020600020905b815481529060010190602001808311611c5a57829003601f168201915b50505050508152505081526020016005820160009054906101000a900460ff166008811115611ca957611ca8613067565b5b6008811115611cbb57611cba613067565b5b81526020016005820160019054906101000a900460ff166005811115611ce457611ce3613067565b5b6005811115611cf657611cf5613067565b5b81526020016005820160029054906101000a900460ff166001811115611d1f57611d1e613067565b5b6001811115611d3157611d30613067565b5b8152602001600682018054611d4590613a55565b80601f0160208091040260200160405190810160405280929190818152602001828054611d7190613a55565b8015611dbe5780601f10611d9357610100808354040283529160200191611dbe565b820191906000526020600020905b815481529060010190602001808311611da157829003601f168201915b50505050508152602001600782018054611dd790613a55565b80601f0160208091040260200160405190810160405280929190818152602001828054611e0390613a55565b8015611e505780601f10611e2557610100808354040283529160200191611e50565b820191906000526020600020905b815481529060010190602001808311611e3357829003601f168201915b505050505081526020016008820154815260200160098201548152602001600a8201548152602001600b82016040518060c001604052908160008201548152602001600182018054611ea190613a55565b80601f0160208091040260200160405190810160405280929190818152602001828054611ecd90613a55565b8015611f1a5780601f10611eef57610100808354040283529160200191611f1a565b820191906000526020600020905b815481529060010190602001808311611efd57829003601f168201915b50505050508152602001600282018054611f3390613a55565b80601f0160208091040260200160405190810160405280929190818152602001828054611f5f90613a55565b8015611fac5780601f10611f8157610100808354040283529160200191611fac565b820191906000526020600020905b815481529060010190602001808311611f8f57829003601f168201915b50505050508152602001600382018054611fc590613a55565b80601f0160208091040260200160405190810160405280929190818152602001828054611ff190613a55565b801561203e5780601f106120135761010080835404028352916020019161203e565b820191906000526020600020905b81548152906001019060200180831161202157829003601f168201915b5050505050815260200160048201805461205790613a55565b80601f016020809104026020016040519081016040528092919081815260200182805461208390613a55565b80156120d05780601f106120a5576101008083540402835291602001916120d0565b820191906000526020600020905b8154815290600101906020018083116120b357829003601f168201915b505050505081526020016005820180546120e990613a55565b80601f016020809104026020016040519081016040528092919081815260200182805461211590613a55565b80156121625780601f1061213757610100808354040283529160200191612162565b820191906000526020600020905b81548152906001019060200180831161214557829003601f168201915b505050505081525050815260200160118201548152505061286c565b600760008781526020019081526020016000206011018190555060008390508073ffffffffffffffffffffffffffffffffffffffff1663200dd9da33600760008a81526020019081526020016000206040518363ffffffff1660e01b81526004016121ea9291906141c6565b6020604051808303816000875af1158015612209573d6000803e3d6000fd5b505050506040513d601f19601f8201168201806040525081019061222d9190614222565b508073ffffffffffffffffffffffffffffffffffffffff1663c7f06e6333876040518363ffffffff1660e01b815260040161226992919061424f565b6020604051808303816000875af1158015612288573d6000803e3d6000fd5b505050506040513d601f19601f820116820180604052508101906122ac9190614222565b6122f3577f234b1caf9afd178ffb3fd544d9b8114c4ad4e9a3f0aa8bac4c929c8150a8a5a760006040516122e09190613770565b60405180910390a160009250505061246f565b600760008781526020019081526020016000206011015460096000888152602001908152602001600020819055506008600160088054905061233591906142a7565b8154811061234657612345613d9a565b5b90600052602060002090600202016008838154811061236857612367613d9a565b5b9060005260206000209060020201600082015481600001556001820181600101908161239491906142f1565b5090505060088054806123aa576123a96143d9565b5b60019003818190600052602060002090600202016000808201600090556001820160006123d79190612a31565b505090557f234b1caf9afd178ffb3fd544d9b8114c4ad4e9a3f0aa8bac4c929c8150a8a5a7600160405161240b9190613770565b60405180910390a160019250505061246f565b808061242990614408565b9150506118cb565b507f234b1caf9afd178ffb3fd544d9b8114c4ad4e9a3f0aa8bac4c929c8150a8a5a760006040516124629190613770565b60405180910390a1600090505b9392505050565b60008060000160009054906101000a900473ffffffffffffffffffffffffffffffffffffffff16908060010180546124ad90613a55565b80601f01602080910402602001604051908101604052809291908181526020018280546124d990613a55565b80156125265780601f106124fb57610100808354040283529160200191612526565b820191906000526020600020905b81548152906001019060200180831161250957829003601f168201915b50505050509080600201805461253b90613a55565b80601f016020809104026020016040519081016040528092919081815260200182805461256790613a55565b80156125b45780601f10612589576101008083540402835291602001916125b4565b820191906000526020600020905b81548152906001019060200180831161259757829003601f168201915b5050505050908060030180546125c990613a55565b80601f01602080910402602001604051908101604052809291908181526020018280546125f590613a55565b80156126425780601f1061261757610100808354040283529160200191612642565b820191906000526020600020905b81548152906001019060200180831161262557829003601f168201915b50505050509080600401805461265790613a55565b80601f016020809104026020016040519081016040528092919081815260200182805461268390613a55565b80156126d05780601f106126a5576101008083540402835291602001916126d0565b820191906000526020600020905b8154815290600101906020018083116126b357829003601f168201915b5050505050905085565b3373ffffffffffffffffffffffffffffffffffffffff16600560009054906101000a900473ffffffffffffffffffffffffffffffffffffffff1673ffffffffffffffffffffffffffffffffffffffff161480612786575060011515600660003373ffffffffffffffffffffffffffffffffffffffff1673ffffffffffffffffffffffffffffffffffffffff16815260200190815260200160002060009054906101000a900460ff161515145b6127c5576040517f08c379a00000000000000000000000000000000000000000000000000000000081526004016127bc90613a06565b60405180910390fd5b806000808201518160000160006101000a81548173ffffffffffffffffffffffffffffffffffffffff021916908373ffffffffffffffffffffffffffffffffffffffff16021790555060208201518160010190816128239190613c9e565b5060408201518160020190816128399190613c9e565b50606082015181600301908161284f9190613c9e565b5060808201518160040190816128659190613c9e565b5090505050565b600080826000015190506000816000015182602001518360600151846080015185604001516040516020016128a59594939291906144d4565b604051602081830303815290604052805190602001209050600084610120015190506000816000015182602001518360400151846060015185608001518660a001516040516020016128fc96959493929190614544565b60405160208183030381529060405280519060200120905060008382886020015189604001518a606001518b608001518c60a001518d60c001518e60e001516040516020016129539998979695949392919061462f565b6040516020818303038152906040528051906020012090508060001c95505050505050919050565b60405180610160016040528061298f612a71565b8152602001600060088111156129a8576129a7613067565b5b8152602001600060058111156129c1576129c0613067565b5b8152602001600060018111156129da576129d9613067565b5b81526020016060815260200160608152602001600081526020016000815260200160008152602001612a0a612ab6565b8152602001600081525090565b604051806040016040528060008152602001606081525090565b508054612a3d90613a55565b6000825580601f10612a4f5750612a6e565b601f016020900490600052602060002090810190612a6d9190612aec565b5b50565b6040518060a00160405280600073ffffffffffffffffffffffffffffffffffffffff168152602001606081526020016060815260200160608152602001606081525090565b6040518060c001604052806000815260200160608152602001606081526020016060815260200160608152602001606081525090565b5b80821115612b05576000816000905550600101612aed565b5090565b600081519050919050565b600082825260208201905092915050565b6000819050602082019050919050565b6000819050919050565b612b4881612b35565b82525050565b600081519050919050565b600082825260208201905092915050565b60005b83811015612b88578082015181840152602081019050612b6d565b60008484015250505050565b6000601f19601f8301169050919050565b6000612bb082612b4e565b612bba8185612b59565b9350612bca818560208601612b6a565b612bd381612b94565b840191505092915050565b6000604083016000830151612bf66000860182612b3f565b5060208301518482036020860152612c0e8282612ba5565b9150508091505092915050565b6000612c278383612bde565b905092915050565b6000602082019050919050565b6000612c4782612b09565b612c518185612b14565b935083602082028501612c6385612b25565b8060005b85811015612c9f5784840389528151612c808582612c1b565b9450612c8b83612c2f565b925060208a01995050600181019050612c67565b50829750879550505050505092915050565b60006020820190508181036000830152612ccb8184612c3c565b905092915050565b6000604051905090565b600080fd5b600080fd5b600073ffffffffffffffffffffffffffffffffffffffff82169050919050565b6000612d1282612ce7565b9050919050565b612d2281612d07565b8114612d2d57600080fd5b50565b600081359050612d3f81612d19565b92915050565b600060208284031215612d5b57612d5a612cdd565b5b6000612d6984828501612d30565b91505092915050565b612d7b81612b35565b8114612d8657600080fd5b50565b600081359050612d9881612d72565b92915050565b60068110612dab57600080fd5b50565b600081359050612dbd81612d9e565b92915050565b60028110612dd057600080fd5b50565b600081359050612de281612dc3565b92915050565b600080fd5b600080fd5b7f4e487b7100000000000000000000000000000000000000000000000000000000600052604160045260246000fd5b612e2a82612b94565b810181811067ffffffffffffffff82111715612e4957612e48612df2565b5b80604052505050565b6000612e5c612cd3565b9050612e688282612e21565b919050565b600067ffffffffffffffff821115612e8857612e87612df2565b5b612e9182612b94565b9050602081019050919050565b82818337600083830152505050565b6000612ec0612ebb84612e6d565b612e52565b905082815260208101848484011115612edc57612edb612ded565b5b612ee7848285612e9e565b509392505050565b600082601f830112612f0457612f03612de8565b5b8135612f14848260208601612ead565b91505092915050565b60008060008060808587031215612f3757612f36612cdd565b5b6000612f4587828801612d89565b9450506020612f5687828801612dae565b9350506040612f6787828801612dd3565b925050606085013567ffffffffffffffff811115612f8857612f87612ce2565b5b612f9487828801612eef565b91505092959194509250565b600060208284031215612fb657612fb5612cdd565b5b6000612fc484828501612d89565b91505092915050565b612fd681612d07565b82525050565b600060a083016000830151612ff46000860182612fcd565b506020830151848203602086015261300c8282612ba5565b915050604083015184820360408601526130268282612ba5565b915050606083015184820360608601526130408282612ba5565b9150506080830151848203608086015261305a8282612ba5565b9150508091505092915050565b7f4e487b7100000000000000000000000000000000000000000000000000000000600052602160045260246000fd5b600981106130a7576130a6613067565b5b50565b60008190506130b882613096565b919050565b60006130c8826130aa565b9050919050565b6130d8816130bd565b82525050565b600681106130ef576130ee613067565b5b50565b6000819050613100826130de565b919050565b6000613110826130f2565b9050919050565b61312081613105565b82525050565b6002811061313757613136613067565b5b50565b600081905061314882613126565b919050565b60006131588261313a565b9050919050565b6131688161314d565b82525050565b600060c0830160008301516131866000860182612b3f565b506020830151848203602086015261319e8282612ba5565b915050604083015184820360408601526131b88282612ba5565b915050606083015184820360608601526131d28282612ba5565b915050608083015184820360808601526131ec8282612ba5565b91505060a083015184820360a08601526132068282612ba5565b9150508091505092915050565b60006101608301600083015184820360008601526132318282612fdc565b915050602083015161324660208601826130cf565b5060408301516132596040860182613117565b50606083015161326c606086018261315f565b50608083015184820360808601526132848282612ba5565b91505060a083015184820360a086015261329e8282612ba5565b91505060c08301516132b360c0860182612b3f565b5060e08301516132c660e0860182612b3f565b506101008301516132db610100860182612b3f565b506101208301518482036101208601526132f5828261316e565b91505061014083015161330c610140860182612b3f565b508091505092915050565b600060208201905081810360008301526133318184613213565b905092915050565b600080fd5b600080fd5b600060a0828403121561335957613358613339565b5b61336360a0612e52565b9050600061337384828501612d30565b600083015250602082013567ffffffffffffffff8111156133975761339661333e565b5b6133a384828501612eef565b602083015250604082013567ffffffffffffffff8111156133c7576133c661333e565b5b6133d384828501612eef565b604083015250606082013567ffffffffffffffff8111156133f7576133f661333e565b5b61340384828501612eef565b606083015250608082013567ffffffffffffffff8111156134275761342661333e565b5b61343384828501612eef565b60808301525092915050565b6009811061344c57600080fd5b50565b60008135905061345e8161343f565b92915050565b600060c0828403121561347a57613479613339565b5b61348460c0612e52565b9050600061349484828501612d89565b600083015250602082013567ffffffffffffffff8111156134b8576134b761333e565b5b6134c484828501612eef565b602083015250604082013567ffffffffffffffff8111156134e8576134e761333e565b5b6134f484828501612eef565b604083015250606082013567ffffffffffffffff8111156135185761351761333e565b5b61352484828501612eef565b606083015250608082013567ffffffffffffffff8111156135485761354761333e565b5b61355484828501612eef565b60808301525060a082013567ffffffffffffffff8111156135785761357761333e565b5b61358484828501612eef565b60a08301525092915050565b600061016082840312156135a7576135a6613339565b5b6135b2610160612e52565b9050600082013567ffffffffffffffff8111156135d2576135d161333e565b5b6135de84828501613343565b60008301525060206135f28482850161344f565b602083015250604061360684828501612dae565b604083015250606061361a84828501612dd3565b606083015250608082013567ffffffffffffffff81111561363e5761363d61333e565b5b61364a84828501612eef565b60808301525060a082013567ffffffffffffffff81111561366e5761366d61333e565b5b61367a84828501612eef565b60a08301525060c061368e84828501612d89565b60c08301525060e06136a284828501612d89565b60e0830152506101006136b784828501612d89565b6101008301525061012082013567ffffffffffffffff8111156136dd576136dc61333e565b5b6136e984828501613464565b610120830152506101406136ff84828501612d89565b6101408301525092915050565b60006020828403121561372257613721612cdd565b5b600082013567ffffffffffffffff8111156137405761373f612ce2565b5b61374c84828501613590565b91505092915050565b60008115159050919050565b61376a81613755565b82525050565b60006020820190506137856000830184613761565b92915050565b600080604083850312156137a2576137a1612cdd565b5b60006137b085828601612d89565b92505060206137c185828601612d89565b9150509250929050565b6000806000606084860312156137e4576137e3612cdd565b5b600084013567ffffffffffffffff81111561380257613801612ce2565b5b61380e86828701613464565b935050602061381f8682870161344f565b925050604084013567ffffffffffffffff8111156138405761383f612ce2565b5b61384c86828701612eef565b9150509250925092565b60008060006060848603121561386f5761386e612cdd565b5b600061387d86828701612d89565b935050602061388e86828701612d30565b925050604061389f86828701612d30565b9150509250925092565b6138b281612d07565b82525050565b600082825260208201905092915050565b60006138d482612b4e565b6138de81856138b8565b93506138ee818560208601612b6a565b6138f781612b94565b840191505092915050565b600060a08201905061391760008301886138a9565b818103602083015261392981876138c9565b9050818103604083015261393d81866138c9565b9050818103606083015261395181856138c9565b9050818103608083015261396581846138c9565b90509695505050505050565b60006020828403121561398757613986612cdd565b5b600082013567ffffffffffffffff8111156139a5576139a4612ce2565b5b6139b184828501613343565b91505092915050565b7f6f6e6c7920676f7665726d656e742061646d696e20697320616c6c6f77656400600082015250565b60006139f0601f836138b8565b91506139fb826139ba565b602082019050919050565b60006020820190508181036000830152613a1f816139e3565b9050919050565b7f4e487b7100000000000000000000000000000000000000000000000000000000600052602260045260246000fd5b60006002820490506001821680613a6d57607f821691505b602082108103613a8057613a7f613a26565b5b50919050565b7f6f6e6c79206f776e657220616c6c6f7765640000000000000000000000000000600082015250565b6000613abc6012836138b8565b9150613ac782613a86565b602082019050919050565b60006020820190508181036000830152613aeb81613aaf565b9050919050565b60008190508160005260206000209050919050565b60006020601f8301049050919050565b600082821b905092915050565b600060088302613b547fffffffffffffffffffffffffffffffffffffffffffffffffffffffffffffffff82613b17565b613b5e8683613b17565b95508019841693508086168417925050509392505050565b6000819050919050565b6000613b9b613b96613b9184612b35565b613b76565b612b35565b9050919050565b6000819050919050565b613bb583613b80565b613bc9613bc182613ba2565b848454613b24565b825550505050565b600090565b613bde613bd1565b613be9818484613bac565b505050565b5b81811015613c0d57613c02600082613bd6565b600181019050613bef565b5050565b601f821115613c5257613c2381613af2565b613c2c84613b07565b81016020851015613c3b578190505b613c4f613c4785613b07565b830182613bee565b50505b505050565b600082821c905092915050565b6000613c7560001984600802613c57565b1980831691505092915050565b6000613c8e8383613c64565b9150826002028217905092915050565b613ca782612b4e565b67ffffffffffffffff811115613cc057613cbf612df2565b5b613cca8254613a55565b613cd5828285613c11565b600060209050601f831160018114613d085760008415613cf6578287015190505b613d008582613c82565b865550613d68565b601f198416613d1686613af2565b60005b82811015613d3e57848901518255600182019150602085019450602081019050613d19565b86831015613d5b5784890151613d57601f891682613c64565b8355505b6001600288020188555050505b505050505050565b613d7981612b35565b82525050565b6000602082019050613d946000830184613d70565b92915050565b7f4e487b7100000000000000000000000000000000000000000000000000000000600052603260045260246000fd5b60008160001c9050919050565b600073ffffffffffffffffffffffffffffffffffffffff82169050919050565b6000613e09613e0483613dc9565b613dd6565b9050919050565b60008154613e1d81613a55565b613e278186612b59565b94506001821660008114613e425760018114613e5857613e8b565b60ff198316865281151560200286019350613e8b565b613e6185613af2565b60005b83811015613e8357815481890152600182019150602081019050613e64565b808801955050505b50505092915050565b600060a083016000808401549050613eab81613df6565b613eb86000870182612fcd565b50600184018583036020870152613ecf8382613e10565b925050600284018583036040870152613ee88382613e10565b925050600384018583036060870152613f018382613e10565b925050600484018583036080870152613f1a8382613e10565b925050819250505092915050565b600060ff82169050919050565b6000613f48613f4383613dc9565b613f28565b9050919050565b60008160081c9050919050565b600060ff82169050919050565b6000613f7c613f7783613f4f565b613f5c565b9050919050565b60008160101c9050919050565b600060ff82169050919050565b6000613fb0613fab83613f83565b613f90565b9050919050565b6000819050919050565b6000613fd4613fcf83613dc9565b613fb7565b9050919050565b600060c083016000808401549050613ff281613fc1565b613fff6000870182612b3f565b506001840185830360208701526140168382613e10565b92505060028401858303604087015261402f8382613e10565b9250506003840185830360608701526140488382613e10565b9250506004840185830360808701526140618382613e10565b9250506005840185830360a087015261407a8382613e10565b925050819250505092915050565b60006101608301600080840185830360008701526140a68382613e94565b925050600584015490506140b981613f35565b6140c660208701826130cf565b506140d081613f69565b6140dd6040870182613117565b506140e781613f9d565b6140f4606087018261315f565b5060068401858303608087015261410b8382613e10565b9250506007840185830360a08701526141248382613e10565b9250506008840154905061413781613fc1565b61414460c0870182612b3f565b506009840154905061415581613fc1565b61416260e0870182612b3f565b50600a840154905061417381613fc1565b614181610100870182612b3f565b50600b84018583036101208701526141998382613fdb565b925050601184015490506141ac81613fc1565b6141ba610140870182612b3f565b50819250505092915050565b60006040820190506141db60008301856138a9565b81810360208301526141ed8184614088565b90509392505050565b6141ff81613755565b811461420a57600080fd5b50565b60008151905061421c816141f6565b92915050565b60006020828403121561423857614237612cdd565b5b60006142468482850161420d565b91505092915050565b600060408201905061426460008301856138a9565b61427160208301846138a9565b9392505050565b7f4e487b7100000000000000000000000000000000000000000000000000000000600052601160045260246000fd5b60006142b282612b35565b91506142bd83612b35565b92508282039050818111156142d5576142d4614278565b5b92915050565b6000815490506142ea81613a55565b9050919050565b8181036142ff5750506143d7565b614308826142db565b67ffffffffffffffff81111561432157614320612df2565b5b61432b8254613a55565b614336828285613c11565b6000601f8311600181146143655760008415614353578287015490505b61435d8582613c82565b8655506143d0565b601f19841661437387613af2565b965061437e86613af2565b60005b828110156143a657848901548255600182019150600185019450602081019050614381565b868310156143c357848901546143bf601f891682613c64565b8355505b6001600288020188555050505b5050505050505b565b7f4e487b7100000000000000000000000000000000000000000000000000000000600052603160045260246000fd5b600061441382612b35565b91507fffffffffffffffffffffffffffffffffffffffffffffffffffffffffffffffff820361444557614444614278565b5b600182019050919050565b60008160601b9050919050565b600061446882614450565b9050919050565b600061447a8261445d565b9050919050565b61449261448d82612d07565b61446f565b82525050565b600081905092915050565b60006144ae82612b4e565b6144b88185614498565b93506144c8818560208601612b6a565b80840191505092915050565b60006144e08288614481565b6014820191506144f082876144a3565b91506144fc82866144a3565b915061450882856144a3565b915061451482846144a3565b91508190509695505050505050565b6000819050919050565b61453e61453982612b35565b614523565b82525050565b6000614550828961452d565b60208201915061456082886144a3565b915061456c82876144a3565b915061457882866144a3565b915061458482856144a3565b915061459082846144a3565b9150819050979650505050505050565b6000819050919050565b6000819050919050565b6145c56145c0826145a0565b6145aa565b82525050565b60008160f81b9050919050565b60006145e3826145cb565b9050919050565b6145fb6145f6826130bd565b6145d8565b82525050565b61461261460d82613105565b6145d8565b82525050565b6146296146248261314d565b6145d8565b82525050565b600061463b828c6145b4565b60208201915061464b828b6145b4565b60208201915061465b828a6145ea565b60018201915061466b8289614601565b60018201915061467b8288614618565b60018201915061468b82876144a3565b915061469782866144a3565b91506146a3828561452d565b6020820191506146b3828461452d565b6020820191508190509a995050505050505050505056fea26469706673582212202ca1a68b9e66335315ac62539e2356bfdb1954c6f4df8d88d5c36cee2c5e8aa364736f6c63430008130033",
  "immutableReferences": {},
  "source": "//SPDX-License-Identifier: MIT\npragma solidity ^0.8.0;\n\nimport \"./Definition.sol\";\nimport \"./ICertificate.sol\";\nimport \"./ISchool.sol\";\nimport \"./CertificateHashLib.sol\";\n\ncontract School is ISchool\n{\n    event hasCertificateResult(uint256);\n    event graduationResult(bool);\n    using CertificateHashLib for * ;\n\n    struct StudIdNamePair\n    {\n        uint256 id;\n        string name;\n    }\n\n    // using Hash_Lib for * ;\n    School_Info public schoolInfo;\n    address owner;\n    mapping(address => bool) private adminList;\n    mapping(uint256 => Certificate_Info) private studsCerts;\n    StudIdNamePair[] studentArray;\n    mapping(uint256 => uint256) private certSignatures; //signature generate after graduate\n\n    constructor(string memory _schoolId, string memory _name, string memory _phyAdd, string memory _email)\n    {\n        owner = msg.sender;\n        schoolInfo.schoolContractAddress = address(this);\n        schoolInfo.id = _schoolId;\n        schoolInfo.name = _name;\n        schoolInfo.add = _phyAdd;\n        schoolInfo.email = _email;\n    }\n\n    modifier onlyOwner()\n    {\n        require(msg.sender == owner, \"only owner allowed\");\n        _;\n    }\n\n    modifier onlyAdmin()\n    {\n        require(owner == msg.sender || adminList[msg.sender] == true, \"only goverment admin is allowed\");\n        _;\n    }\n\n    function addAdmin(address _add) public onlyOwner()\n    {\n        adminList[_add] = true;\n    }\n\n    function removeAdmin(address _add) public onlyOwner()\n    {\n        adminList[_add] = false;\n    }\n\n    function updateSchoolInfo(School_Info memory _schInfo) public onlyAdmin()\n    {\n        schoolInfo = _schInfo;\n    }\n\n    function studentAdmission(Student_Info memory _stdInfo, ECertificateCategory _category, string memory _major) public onlyAdmin()\n    {\n        uint256 studentId = _stdInfo.id; //school must create a unqiure id for student first;\n        Certificate_Info memory cert;\n        cert.schoolInfo = schoolInfo;\n        cert.honor = EHonor.None;\n        cert.status = EStudyStatus.InProgress;\n        cert.admissionTimestamp = block.timestamp;\n        cert.studentDetails = _stdInfo;\n        cert.certificateId = studentId;\n        cert.category = _category;\n        cert.major = _major;\n        studsCerts[studentId] = cert;\n\n        StudIdNamePair memory pair;\n        pair.id = studentId;\n        pair.name = _stdInfo.name;\n        studentArray.push(pair);\n    }\n\n    function getStudCert(uint256 _studId) public onlyAdmin() view returns (Certificate_Info memory)\n    {\n        return studsCerts[_studId];\n    }\n\n    function setStudCert(uint256 _stuId, EHonor _honor, EStudyStatus _status,\n                        string memory _decription) public onlyAdmin()\n    {\n        studsCerts[_stuId].honor = _honor;\n        studsCerts[_stuId].status = _status;\n        studsCerts[_stuId].description = _decription;\n    }\n\n    function getAllStudent() public onlyAdmin() view returns (StudIdNamePair[] memory)\n    {\n        return studentArray;\n    }\n\n    //core function: issue student certificate contract\n    //para 1: student id (create by school)\n    //para 2: student account\n    //para 3: certifcate address, should deployed by website or manually deployed\n    function studentGradutaion(uint256 _studId, address _stud, address newStudentContract) public onlyAdmin() returns (bool)\n    {\n        for(uint i = 0; i < studentArray.length; i++)\n        {\n            if (studentArray[i].id == _studId) //must current student\n            {\n                if (studsCerts[_studId].status == EStudyStatus.InProgress) //must graduate\n                {\n                    emit graduationResult(false);\n                    return false;\n                }\n                //get hash\n                studsCerts[_studId].graduationTimestamp =block.timestamp;\n                studsCerts[_studId].signature = CertificateHashLib.hashCertificate(studsCerts[_studId]);\n                \n                ICertificate studContract = ICertificate(newStudentContract);\n                studContract.setCertificate(msg.sender, studsCerts[_studId]);\n                if (!studContract.setStudentAddress(msg.sender, _stud))\n                {\n                    emit graduationResult(false);\n                    return false;\n                }\n                    \n                certSignatures[_studId] = studsCerts[_studId].signature;\n\n                //remove in current student list;\n                studentArray[i] = studentArray[studentArray.length - 1];\n                studentArray.pop();\n                emit graduationResult(true);\n                return true;\n            }\n        }\n        emit graduationResult(false);\n        return false;\n    }\n\n    // need support ERC20 here\n    function verifyGraduatedStudentCertificate(Certificate_Info memory _cert) external override returns (bool)\n    {\n        uint256 sig = CertificateHashLib.hashCertificate(_cert);\n        emit hasCertificateResult(sig);\n        return certSignatures[_cert.studentDetails.id] == sig;\n    }\n\n    // need support ERC20 here, this is better, no need check event\n    function directVerifyGraduatedStudentCertificate(uint256 _studId, uint256 _signature) external view override returns (bool)\n    {\n        return certSignatures[_studId] == _signature;\n    }\n}\n",
  "sourcePath": "/Users/zhougaoqiang/Documents/GitHub/SmartCertify/web-app/blockchain/contracts/School.sol",
  "compiler": {
    "name": "solc",
    "version": "0.8.19+commit.7dd6d404.Emscripten.clang"
  },
  "schemaVersion": "3.4.16",
  "updatedAt": "2024-03-31T05:43:06.609Z",
  "devdoc": {
    "kind": "dev",
    "methods": {},
    "version": 1
  },
  "userdoc": {
    "kind": "user",
    "methods": {},
    "version": 1
  }
}