{
  "contractName": "SchoolSource",
  "abi": [
    {
      "inputs": [
        {
          "internalType": "address",
          "name": "officeContractAddress",
          "type": "address"
        }
      ],
      "stateMutability": "nonpayable",
      "type": "constructor"
    },
    {
      "inputs": [
        {
          "internalType": "address",
          "name": "_verify",
          "type": "address"
        },
        {
          "internalType": "uint256",
          "name": "id",
          "type": "uint256"
        },
        {
          "internalType": "uint256",
          "name": "_certSig",
          "type": "uint256"
        },
        {
          "internalType": "uint256",
          "name": "_TranSig",
          "type": "uint256"
        }
      ],
      "name": "addGraduatedStudent",
      "outputs": [],
      "stateMutability": "nonpayable",
      "type": "function"
    },
    {
      "inputs": [
        {
          "internalType": "uint256",
          "name": "id",
          "type": "uint256"
        }
      ],
      "name": "getGraduatedStudentCertificateSignature",
      "outputs": [
        {
          "internalType": "uint256",
          "name": "",
          "type": "uint256"
        }
      ],
      "stateMutability": "view",
      "type": "function"
    },
    {
      "inputs": [
        {
          "internalType": "uint256",
          "name": "id",
          "type": "uint256"
        }
      ],
      "name": "getGraduatedStudentTranscriptSignature",
      "outputs": [
        {
          "internalType": "uint256",
          "name": "",
          "type": "uint256"
        }
      ],
      "stateMutability": "view",
      "type": "function"
    },
    {
      "inputs": [
        {
          "internalType": "address",
          "name": "_verify",
          "type": "address"
        },
        {
          "components": [
            {
              "internalType": "address",
              "name": "studentAdd",
              "type": "address"
            },
            {
              "internalType": "uint256",
              "name": "id",
              "type": "uint256"
            },
            {
              "internalType": "string",
              "name": "nationality",
              "type": "string"
            },
            {
              "internalType": "string",
              "name": "nric",
              "type": "string"
            },
            {
              "internalType": "string",
              "name": "passport",
              "type": "string"
            },
            {
              "internalType": "string",
              "name": "name",
              "type": "string"
            },
            {
              "internalType": "string",
              "name": "add",
              "type": "string"
            }
          ],
          "internalType": "struct Student_Info",
          "name": "_stdInfo",
          "type": "tuple"
        },
        {
          "components": [
            {
              "internalType": "address",
              "name": "schoolContractAddress",
              "type": "address"
            },
            {
              "internalType": "string",
              "name": "id",
              "type": "string"
            },
            {
              "internalType": "string",
              "name": "name",
              "type": "string"
            },
            {
              "internalType": "string",
              "name": "add",
              "type": "string"
            },
            {
              "internalType": "string",
              "name": "email",
              "type": "string"
            },
            {
              "internalType": "enum ECertificateCategory[]",
              "name": "allowedCategory",
              "type": "uint8[]"
            }
          ],
          "internalType": "struct School_Info",
          "name": "_schoolInfo",
          "type": "tuple"
        }
      ],
      "name": "newStudent",
      "outputs": [],
      "stateMutability": "nonpayable",
      "type": "function"
    },
    {
      "inputs": [
        {
          "internalType": "address",
          "name": "_verify",
          "type": "address"
        },
        {
          "internalType": "uint256",
          "name": "_studId",
          "type": "uint256"
        },
        {
          "components": [
            {
              "internalType": "string",
              "name": "id",
              "type": "string"
            },
            {
              "internalType": "string",
              "name": "name",
              "type": "string"
            },
            {
              "internalType": "string",
              "name": "professor",
              "type": "string"
            },
            {
              "internalType": "string",
              "name": "result",
              "type": "string"
            },
            {
              "internalType": "string",
              "name": "grade",
              "type": "string"
            }
          ],
          "internalType": "struct Course_Info",
          "name": "_courseList",
          "type": "tuple"
        }
      ],
      "name": "addCurrentStudentCourseInfo",
      "outputs": [],
      "stateMutability": "nonpayable",
      "type": "function"
    },
    {
      "inputs": [
        {
          "internalType": "address",
          "name": "_verify",
          "type": "address"
        },
        {
          "internalType": "uint256",
          "name": "_stuId",
          "type": "uint256"
        }
      ],
      "name": "getCurrentStudentCertificate",
      "outputs": [
        {
          "components": [
            {
              "components": [
                {
                  "internalType": "address",
                  "name": "schoolContractAddress",
                  "type": "address"
                },
                {
                  "internalType": "string",
                  "name": "id",
                  "type": "string"
                },
                {
                  "internalType": "string",
                  "name": "name",
                  "type": "string"
                },
                {
                  "internalType": "string",
                  "name": "add",
                  "type": "string"
                },
                {
                  "internalType": "string",
                  "name": "email",
                  "type": "string"
                },
                {
                  "internalType": "enum ECertificateCategory[]",
                  "name": "allowedCategory",
                  "type": "uint8[]"
                }
              ],
              "internalType": "struct School_Info",
              "name": "schoolInfo",
              "type": "tuple"
            },
            {
              "internalType": "enum ECertificateCategory",
              "name": "category",
              "type": "uint8"
            },
            {
              "internalType": "enum EHonor",
              "name": "honor",
              "type": "uint8"
            },
            {
              "internalType": "enum EStudyStatus",
              "name": "status",
              "type": "uint8"
            },
            {
              "internalType": "string",
              "name": "major",
              "type": "string"
            },
            {
              "internalType": "string",
              "name": "description",
              "type": "string"
            },
            {
              "internalType": "uint256",
              "name": "certificateId",
              "type": "uint256"
            },
            {
              "internalType": "uint256",
              "name": "admissionTimestamp",
              "type": "uint256"
            },
            {
              "internalType": "uint256",
              "name": "graduationTimestamp",
              "type": "uint256"
            },
            {
              "components": [
                {
                  "internalType": "address",
                  "name": "studentAdd",
                  "type": "address"
                },
                {
                  "internalType": "uint256",
                  "name": "id",
                  "type": "uint256"
                },
                {
                  "internalType": "string",
                  "name": "nationality",
                  "type": "string"
                },
                {
                  "internalType": "string",
                  "name": "nric",
                  "type": "string"
                },
                {
                  "internalType": "string",
                  "name": "passport",
                  "type": "string"
                },
                {
                  "internalType": "string",
                  "name": "name",
                  "type": "string"
                },
                {
                  "internalType": "string",
                  "name": "add",
                  "type": "string"
                }
              ],
              "internalType": "struct Student_Info",
              "name": "studentDetails",
              "type": "tuple"
            },
            {
              "internalType": "uint256",
              "name": "signature",
              "type": "uint256"
            }
          ],
          "internalType": "struct Certificate_Info",
          "name": "",
          "type": "tuple"
        }
      ],
      "stateMutability": "view",
      "type": "function"
    },
    {
      "inputs": [
        {
          "internalType": "address",
          "name": "_verify",
          "type": "address"
        },
        {
          "internalType": "uint256",
          "name": "_stuId",
          "type": "uint256"
        }
      ],
      "name": "getCurrentStudentTranscript",
      "outputs": [
        {
          "components": [
            {
              "components": [
                {
                  "components": [
                    {
                      "internalType": "address",
                      "name": "schoolContractAddress",
                      "type": "address"
                    },
                    {
                      "internalType": "string",
                      "name": "id",
                      "type": "string"
                    },
                    {
                      "internalType": "string",
                      "name": "name",
                      "type": "string"
                    },
                    {
                      "internalType": "string",
                      "name": "add",
                      "type": "string"
                    },
                    {
                      "internalType": "string",
                      "name": "email",
                      "type": "string"
                    },
                    {
                      "internalType": "enum ECertificateCategory[]",
                      "name": "allowedCategory",
                      "type": "uint8[]"
                    }
                  ],
                  "internalType": "struct School_Info",
                  "name": "schoolInfo",
                  "type": "tuple"
                },
                {
                  "internalType": "enum ECertificateCategory",
                  "name": "category",
                  "type": "uint8"
                },
                {
                  "internalType": "enum EHonor",
                  "name": "honor",
                  "type": "uint8"
                },
                {
                  "internalType": "enum EStudyStatus",
                  "name": "status",
                  "type": "uint8"
                },
                {
                  "internalType": "string",
                  "name": "major",
                  "type": "string"
                },
                {
                  "internalType": "string",
                  "name": "description",
                  "type": "string"
                },
                {
                  "internalType": "uint256",
                  "name": "certificateId",
                  "type": "uint256"
                },
                {
                  "internalType": "uint256",
                  "name": "admissionTimestamp",
                  "type": "uint256"
                },
                {
                  "internalType": "uint256",
                  "name": "graduationTimestamp",
                  "type": "uint256"
                },
                {
                  "components": [
                    {
                      "internalType": "address",
                      "name": "studentAdd",
                      "type": "address"
                    },
                    {
                      "internalType": "uint256",
                      "name": "id",
                      "type": "uint256"
                    },
                    {
                      "internalType": "string",
                      "name": "nationality",
                      "type": "string"
                    },
                    {
                      "internalType": "string",
                      "name": "nric",
                      "type": "string"
                    },
                    {
                      "internalType": "string",
                      "name": "passport",
                      "type": "string"
                    },
                    {
                      "internalType": "string",
                      "name": "name",
                      "type": "string"
                    },
                    {
                      "internalType": "string",
                      "name": "add",
                      "type": "string"
                    }
                  ],
                  "internalType": "struct Student_Info",
                  "name": "studentDetails",
                  "type": "tuple"
                },
                {
                  "internalType": "uint256",
                  "name": "signature",
                  "type": "uint256"
                }
              ],
              "internalType": "struct Certificate_Info",
              "name": "certificate",
              "type": "tuple"
            },
            {
              "components": [
                {
                  "internalType": "string",
                  "name": "id",
                  "type": "string"
                },
                {
                  "internalType": "string",
                  "name": "name",
                  "type": "string"
                },
                {
                  "internalType": "string",
                  "name": "professor",
                  "type": "string"
                },
                {
                  "internalType": "string",
                  "name": "result",
                  "type": "string"
                },
                {
                  "internalType": "string",
                  "name": "grade",
                  "type": "string"
                }
              ],
              "internalType": "struct Course_Info[]",
              "name": "courseList",
              "type": "tuple[]"
            },
            {
              "internalType": "uint256",
              "name": "signature",
              "type": "uint256"
            }
          ],
          "internalType": "struct Transcript_Info",
          "name": "",
          "type": "tuple"
        }
      ],
      "stateMutability": "view",
      "type": "function"
    },
    {
      "inputs": [
        {
          "internalType": "address",
          "name": "_verify",
          "type": "address"
        },
        {
          "internalType": "uint256",
          "name": "_studId",
          "type": "uint256"
        }
      ],
      "name": "isCurrentStudent",
      "outputs": [
        {
          "internalType": "bool",
          "name": "",
          "type": "bool"
        }
      ],
      "stateMutability": "view",
      "type": "function"
    },
    {
      "inputs": [
        {
          "internalType": "address",
          "name": "_verify",
          "type": "address"
        },
        {
          "components": [
            {
              "components": [
                {
                  "internalType": "address",
                  "name": "schoolContractAddress",
                  "type": "address"
                },
                {
                  "internalType": "string",
                  "name": "id",
                  "type": "string"
                },
                {
                  "internalType": "string",
                  "name": "name",
                  "type": "string"
                },
                {
                  "internalType": "string",
                  "name": "add",
                  "type": "string"
                },
                {
                  "internalType": "string",
                  "name": "email",
                  "type": "string"
                },
                {
                  "internalType": "enum ECertificateCategory[]",
                  "name": "allowedCategory",
                  "type": "uint8[]"
                }
              ],
              "internalType": "struct School_Info",
              "name": "schoolInfo",
              "type": "tuple"
            },
            {
              "internalType": "enum ECertificateCategory",
              "name": "category",
              "type": "uint8"
            },
            {
              "internalType": "enum EHonor",
              "name": "honor",
              "type": "uint8"
            },
            {
              "internalType": "enum EStudyStatus",
              "name": "status",
              "type": "uint8"
            },
            {
              "internalType": "string",
              "name": "major",
              "type": "string"
            },
            {
              "internalType": "string",
              "name": "description",
              "type": "string"
            },
            {
              "internalType": "uint256",
              "name": "certificateId",
              "type": "uint256"
            },
            {
              "internalType": "uint256",
              "name": "admissionTimestamp",
              "type": "uint256"
            },
            {
              "internalType": "uint256",
              "name": "graduationTimestamp",
              "type": "uint256"
            },
            {
              "components": [
                {
                  "internalType": "address",
                  "name": "studentAdd",
                  "type": "address"
                },
                {
                  "internalType": "uint256",
                  "name": "id",
                  "type": "uint256"
                },
                {
                  "internalType": "string",
                  "name": "nationality",
                  "type": "string"
                },
                {
                  "internalType": "string",
                  "name": "nric",
                  "type": "string"
                },
                {
                  "internalType": "string",
                  "name": "passport",
                  "type": "string"
                },
                {
                  "internalType": "string",
                  "name": "name",
                  "type": "string"
                },
                {
                  "internalType": "string",
                  "name": "add",
                  "type": "string"
                }
              ],
              "internalType": "struct Student_Info",
              "name": "studentDetails",
              "type": "tuple"
            },
            {
              "internalType": "uint256",
              "name": "signature",
              "type": "uint256"
            }
          ],
          "internalType": "struct Certificate_Info",
          "name": "_cert",
          "type": "tuple"
        }
      ],
      "name": "updateStudentCertificate",
      "outputs": [],
      "stateMutability": "nonpayable",
      "type": "function"
    },
    {
      "inputs": [
        {
          "internalType": "address",
          "name": "_verify",
          "type": "address"
        },
        {
          "components": [
            {
              "components": [
                {
                  "components": [
                    {
                      "internalType": "address",
                      "name": "schoolContractAddress",
                      "type": "address"
                    },
                    {
                      "internalType": "string",
                      "name": "id",
                      "type": "string"
                    },
                    {
                      "internalType": "string",
                      "name": "name",
                      "type": "string"
                    },
                    {
                      "internalType": "string",
                      "name": "add",
                      "type": "string"
                    },
                    {
                      "internalType": "string",
                      "name": "email",
                      "type": "string"
                    },
                    {
                      "internalType": "enum ECertificateCategory[]",
                      "name": "allowedCategory",
                      "type": "uint8[]"
                    }
                  ],
                  "internalType": "struct School_Info",
                  "name": "schoolInfo",
                  "type": "tuple"
                },
                {
                  "internalType": "enum ECertificateCategory",
                  "name": "category",
                  "type": "uint8"
                },
                {
                  "internalType": "enum EHonor",
                  "name": "honor",
                  "type": "uint8"
                },
                {
                  "internalType": "enum EStudyStatus",
                  "name": "status",
                  "type": "uint8"
                },
                {
                  "internalType": "string",
                  "name": "major",
                  "type": "string"
                },
                {
                  "internalType": "string",
                  "name": "description",
                  "type": "string"
                },
                {
                  "internalType": "uint256",
                  "name": "certificateId",
                  "type": "uint256"
                },
                {
                  "internalType": "uint256",
                  "name": "admissionTimestamp",
                  "type": "uint256"
                },
                {
                  "internalType": "uint256",
                  "name": "graduationTimestamp",
                  "type": "uint256"
                },
                {
                  "components": [
                    {
                      "internalType": "address",
                      "name": "studentAdd",
                      "type": "address"
                    },
                    {
                      "internalType": "uint256",
                      "name": "id",
                      "type": "uint256"
                    },
                    {
                      "internalType": "string",
                      "name": "nationality",
                      "type": "string"
                    },
                    {
                      "internalType": "string",
                      "name": "nric",
                      "type": "string"
                    },
                    {
                      "internalType": "string",
                      "name": "passport",
                      "type": "string"
                    },
                    {
                      "internalType": "string",
                      "name": "name",
                      "type": "string"
                    },
                    {
                      "internalType": "string",
                      "name": "add",
                      "type": "string"
                    }
                  ],
                  "internalType": "struct Student_Info",
                  "name": "studentDetails",
                  "type": "tuple"
                },
                {
                  "internalType": "uint256",
                  "name": "signature",
                  "type": "uint256"
                }
              ],
              "internalType": "struct Certificate_Info",
              "name": "certificate",
              "type": "tuple"
            },
            {
              "components": [
                {
                  "internalType": "string",
                  "name": "id",
                  "type": "string"
                },
                {
                  "internalType": "string",
                  "name": "name",
                  "type": "string"
                },
                {
                  "internalType": "string",
                  "name": "professor",
                  "type": "string"
                },
                {
                  "internalType": "string",
                  "name": "result",
                  "type": "string"
                },
                {
                  "internalType": "string",
                  "name": "grade",
                  "type": "string"
                }
              ],
              "internalType": "struct Course_Info[]",
              "name": "courseList",
              "type": "tuple[]"
            },
            {
              "internalType": "uint256",
              "name": "signature",
              "type": "uint256"
            }
          ],
          "internalType": "struct Transcript_Info",
          "name": "_trans",
          "type": "tuple"
        }
      ],
      "name": "setStudentTranscript",
      "outputs": [],
      "stateMutability": "nonpayable",
      "type": "function"
    },
    {
      "inputs": [
        {
          "internalType": "address",
          "name": "_verify",
          "type": "address"
        },
        {
          "internalType": "uint256",
          "name": "_studId",
          "type": "uint256"
        }
      ],
      "name": "checkGraduateRequirement",
      "outputs": [
        {
          "internalType": "bool",
          "name": "",
          "type": "bool"
        }
      ],
      "stateMutability": "view",
      "type": "function"
    },
    {
      "inputs": [
        {
          "internalType": "address",
          "name": "_verify",
          "type": "address"
        },
        {
          "internalType": "uint256",
          "name": "_studId",
          "type": "uint256"
        }
      ],
      "name": "removeStudent",
      "outputs": [],
      "stateMutability": "nonpayable",
      "type": "function"
    }
  ],
  "bytecode": "0x60806040523480156200001157600080fd5b5060405162004cef38038062004cef8339818101604052810190620000379190620000e9565b80600360006101000a81548173ffffffffffffffffffffffffffffffffffffffff021916908373ffffffffffffffffffffffffffffffffffffffff160217905550506200011b565b600080fd5b600073ffffffffffffffffffffffffffffffffffffffff82169050919050565b6000620000b18262000084565b9050919050565b620000c381620000a4565b8114620000cf57600080fd5b50565b600081519050620000e381620000b8565b92915050565b6000602082840312156200010257620001016200007f565b5b60006200011284828501620000d2565b91505092915050565b614bc4806200012b6000396000f3fe608060405234801561001057600080fd5b50600436106100b45760003560e01c8063a24176fe11610071578063a24176fe1461019d578063a7965f15146101b9578063b336fd1a146101d5578063c6ef588414610205578063d602109214610235578063faca840d14610251576100b4565b806302989bc6146100b9578063094f0dec146100e9578063406750c5146101195780636ae56395146101355780637cea1563146101515780639ad991a71461016d575b600080fd5b6100d360048036038101906100ce9190613128565b610281565b6040516100e09190613164565b60405180910390f35b61010360048036038101906100fe9190613128565b6102a1565b6040516101109190613164565b60405180910390f35b610133600480360381019061012e9190613686565b6102c1565b005b61014f600480360381019061014a9190613711565b6106ef565b005b61016b6004803603810190610166919061393e565b61081a565b005b6101876004803603810190610182919061399a565b610be4565b60405161019491906139f5565b60405180910390f35b6101b760048036038101906101b29190613b28565b610d28565b005b6101d360048036038101906101ce9190613d14565b610eb9565b005b6101ef60048036038101906101ea919061399a565b611398565b6040516101fc9190614224565b60405180910390f35b61021f600480360381019061021a919061399a565b611d30565b60405161022c91906139f5565b60405180910390f35b61024f600480360381019061024a919061399a565b611e21565b005b61026b6004803603810190610266919061399a565b611fea565b60405161027891906144f5565b60405180910390f35b600060026000838152602001908152602001600020600001549050919050565b600060026000838152602001908152602001600020600101549050919050565b82600360009054906101000a900473ffffffffffffffffffffffffffffffffffffffff1673ffffffffffffffffffffffffffffffffffffffff1663e06f9898826040518263ffffffff1660e01b815260040161031d9190614526565b602060405180830381865afa15801561033a573d6000803e3d6000fd5b505050506040513d601f19601f8201168201806040525081019061035e919061456d565b61039d576040517f08c379a0000000000000000000000000000000000000000000000000000000008152600401610394906145f7565b60405180910390fd5b6000836020015190506103ae612e8f565b8381600001819052506000816040019060058111156103d0576103cf613e2a565b5b908160058111156103e4576103e3613e2a565b5b8152505060008160600190600281111561040157610400613e2a565b5b9081600281111561041557610414613e2a565b5b81525050428160e00181815250508481610120018190525060018290806001815401808255809150506001900390600052602060002001600090919091909150558060008084815260200190815260200160002060000160008201518160000160008201518160000160006101000a81548173ffffffffffffffffffffffffffffffffffffffff021916908373ffffffffffffffffffffffffffffffffffffffff16021790555060208201518160010190816104d19190614823565b5060408201518160020190816104e79190614823565b5060608201518160030190816104fd9190614823565b5060808201518160040190816105139190614823565b5060a0820151816005019080519060200190610530929190612f2b565b50505060208201518160060160006101000a81548160ff0219169083600881111561055e5761055d613e2a565b5b021790555060408201518160060160016101000a81548160ff0219169083600581111561058e5761058d613e2a565b5b021790555060608201518160060160026101000a81548160ff021916908360028111156105be576105bd613e2a565b5b021790555060808201518160070190816105d89190614823565b5060a08201518160080190816105ee9190614823565b5060c0820151816009015560e082015181600a015561010082015181600b015561012082015181600c0160008201518160000160006101000a81548173ffffffffffffffffffffffffffffffffffffffff021916908373ffffffffffffffffffffffffffffffffffffffff16021790555060208201518160010155604082015181600201908161067e9190614823565b5060608201518160030190816106949190614823565b5060808201518160040190816106aa9190614823565b5060a08201518160050190816106c09190614823565b5060c08201518160060190816106d69190614823565b5050506101408201518160130155905050505050505050565b83600360009054906101000a900473ffffffffffffffffffffffffffffffffffffffff1673ffffffffffffffffffffffffffffffffffffffff1663e06f9898826040518263ffffffff1660e01b815260040161074b9190614526565b602060405180830381865afa158015610768573d6000803e3d6000fd5b505050506040513d601f19601f8201168201806040525081019061078c919061456d565b6107cb576040517f08c379a00000000000000000000000000000000000000000000000000000000081526004016107c2906145f7565b60405180910390fd5b6107d3612fe1565b838160000181815250508281602001818152505080600260008781526020019081526020016000206000820151816000015560208201518160010155905050505050505050565b81600360009054906101000a900473ffffffffffffffffffffffffffffffffffffffff1673ffffffffffffffffffffffffffffffffffffffff1663e06f9898826040518263ffffffff1660e01b81526004016108769190614526565b602060405180830381865afa158015610893573d6000803e3d6000fd5b505050506040513d601f19601f820116820180604052508101906108b7919061456d565b6108f6576040517f08c379a00000000000000000000000000000000000000000000000000000000081526004016108ed906145f7565b60405180910390fd5b600082610120015160200151905061090e8482612cd6565b61094d576040517f08c379a000000000000000000000000000000000000000000000000000000000815260040161094490614967565b60405180910390fd5b8260008083815260200190815260200160002060000160008201518160000160008201518160000160006101000a81548173ffffffffffffffffffffffffffffffffffffffff021916908373ffffffffffffffffffffffffffffffffffffffff16021790555060208201518160010190816109c89190614823565b5060408201518160020190816109de9190614823565b5060608201518160030190816109f49190614823565b506080820151816004019081610a0a9190614823565b5060a0820151816005019080519060200190610a27929190612f2b565b50505060208201518160060160006101000a81548160ff02191690836008811115610a5557610a54613e2a565b5b021790555060408201518160060160016101000a81548160ff02191690836005811115610a8557610a84613e2a565b5b021790555060608201518160060160026101000a81548160ff02191690836002811115610ab557610ab4613e2a565b5b02179055506080820151816007019081610acf9190614823565b5060a0820151816008019081610ae59190614823565b5060c0820151816009015560e082015181600a015561010082015181600b015561012082015181600c0160008201518160000160006101000a81548173ffffffffffffffffffffffffffffffffffffffff021916908373ffffffffffffffffffffffffffffffffffffffff160217905550602082015181600101556040820151816002019081610b759190614823565b506060820151816003019081610b8b9190614823565b506080820151816004019081610ba19190614823565b5060a0820151816005019081610bb79190614823565b5060c0820151816006019081610bcd9190614823565b505050610140820151816013015590505050505050565b600082600360009054906101000a900473ffffffffffffffffffffffffffffffffffffffff1673ffffffffffffffffffffffffffffffffffffffff1663e06f9898826040518263ffffffff1660e01b8152600401610c429190614526565b602060405180830381865afa158015610c5f573d6000803e3d6000fd5b505050506040513d601f19601f82011682018060405250810190610c83919061456d565b610cc2576040517f08c379a0000000000000000000000000000000000000000000000000000000008152600401610cb9906145f7565b60405180910390fd5b60006002811115610cd657610cd5613e2a565b5b60008085815260200190815260200160002060000160060160029054906101000a900460ff166002811115610d0e57610d0d613e2a565b5b14610d1c5760019150610d21565b600091505b5092915050565b82600360009054906101000a900473ffffffffffffffffffffffffffffffffffffffff1673ffffffffffffffffffffffffffffffffffffffff1663e06f9898826040518263ffffffff1660e01b8152600401610d849190614526565b602060405180830381865afa158015610da1573d6000803e3d6000fd5b505050506040513d601f19601f82011682018060405250810190610dc5919061456d565b610e04576040517f08c379a0000000000000000000000000000000000000000000000000000000008152600401610dfb906145f7565b60405180910390fd5b6000808481526020019081526020016000206014018290806001815401808255809150506001900390600052602060002090600502016000909190919091506000820151816000019081610e589190614823565b506020820151816001019081610e6e9190614823565b506040820151816002019081610e849190614823565b506060820151816003019081610e9a9190614823565b506080820151816004019081610eb09190614823565b50505050505050565b81600360009054906101000a900473ffffffffffffffffffffffffffffffffffffffff1673ffffffffffffffffffffffffffffffffffffffff1663e06f9898826040518263ffffffff1660e01b8152600401610f159190614526565b602060405180830381865afa158015610f32573d6000803e3d6000fd5b505050506040513d601f19601f82011682018060405250810190610f56919061456d565b610f95576040517f08c379a0000000000000000000000000000000000000000000000000000000008152600401610f8c906145f7565b60405180910390fd5b600082600001516101200151602001519050610fb18482612cd6565b610ff0576040517f08c379a0000000000000000000000000000000000000000000000000000000008152600401610fe7906149f9565b60405180910390fd5b826000015160008083815260200190815260200160002060000160008201518160000160008201518160000160006101000a81548173ffffffffffffffffffffffffffffffffffffffff021916908373ffffffffffffffffffffffffffffffffffffffff160217905550602082015181600101908161106f9190614823565b5060408201518160020190816110859190614823565b50606082015181600301908161109b9190614823565b5060808201518160040190816110b19190614823565b5060a08201518160050190805190602001906110ce929190612f2b565b50505060208201518160060160006101000a81548160ff021916908360088111156110fc576110fb613e2a565b5b021790555060408201518160060160016101000a81548160ff0219169083600581111561112c5761112b613e2a565b5b021790555060608201518160060160026101000a81548160ff0219169083600281111561115c5761115b613e2a565b5b021790555060808201518160070190816111769190614823565b5060a082015181600801908161118c9190614823565b5060c0820151816009015560e082015181600a015561010082015181600b015561012082015181600c0160008201518160000160006101000a81548173ffffffffffffffffffffffffffffffffffffffff021916908373ffffffffffffffffffffffffffffffffffffffff16021790555060208201518160010155604082015181600201908161121c9190614823565b5060608201518160030190816112329190614823565b5060808201518160040190816112489190614823565b5060a082015181600501908161125e9190614823565b5060c08201518160060190816112749190614823565b505050610140820151816013015590505082604001516000808381526020019081526020016000206015018190555060005b83602001515181101561139157600080838152602001908152602001600020601401846020015182815181106112df576112de614a19565b5b6020026020010151908060018154018082558091505060019003906000526020600020906005020160009091909190915060008201518160000190816113259190614823565b50602082015181600101908161133b9190614823565b5060408201518160020190816113519190614823565b5060608201518160030190816113679190614823565b50608082015181600401908161137d9190614823565b5050508061138a90614a77565b90506112a6565b5050505050565b6113a0612e8f565b82600360009054906101000a900473ffffffffffffffffffffffffffffffffffffffff1673ffffffffffffffffffffffffffffffffffffffff1663e06f9898826040518263ffffffff1660e01b81526004016113fc9190614526565b602060405180830381865afa158015611419573d6000803e3d6000fd5b505050506040513d601f19601f8201168201806040525081019061143d919061456d565b61147c576040517f08c379a0000000000000000000000000000000000000000000000000000000008152600401611473906145f7565b60405180910390fd5b60008084815260200190815260200160002060000160405180610160016040529081600082016040518060c00160405290816000820160009054906101000a900473ffffffffffffffffffffffffffffffffffffffff1673ffffffffffffffffffffffffffffffffffffffff1673ffffffffffffffffffffffffffffffffffffffff16815260200160018201805461151390614646565b80601f016020809104026020016040519081016040528092919081815260200182805461153f90614646565b801561158c5780601f106115615761010080835404028352916020019161158c565b820191906000526020600020905b81548152906001019060200180831161156f57829003601f168201915b505050505081526020016002820180546115a590614646565b80601f01602080910402602001604051908101604052809291908181526020018280546115d190614646565b801561161e5780601f106115f35761010080835404028352916020019161161e565b820191906000526020600020905b81548152906001019060200180831161160157829003601f168201915b5050505050815260200160038201805461163790614646565b80601f016020809104026020016040519081016040528092919081815260200182805461166390614646565b80156116b05780601f10611685576101008083540402835291602001916116b0565b820191906000526020600020905b81548152906001019060200180831161169357829003601f168201915b505050505081526020016004820180546116c990614646565b80601f01602080910402602001604051908101604052809291908181526020018280546116f590614646565b80156117425780601f1061171757610100808354040283529160200191611742565b820191906000526020600020905b81548152906001019060200180831161172557829003601f168201915b50505050508152602001600582018054806020026020016040519081016040528092919081815260200182805480156117cf57602002820191906000526020600020906000905b82829054906101000a900460ff1660088111156117a9576117a8613e2a565b5b815260200190600101906020826000010492830192600103820291508084116117895790505b50505050508152505081526020016006820160009054906101000a900460ff16600881111561180157611800613e2a565b5b600881111561181357611812613e2a565b5b81526020016006820160019054906101000a900460ff16600581111561183c5761183b613e2a565b5b600581111561184e5761184d613e2a565b5b81526020016006820160029054906101000a900460ff16600281111561187757611876613e2a565b5b600281111561188957611888613e2a565b5b815260200160078201805461189d90614646565b80601f01602080910402602001604051908101604052809291908181526020018280546118c990614646565b80156119165780601f106118eb57610100808354040283529160200191611916565b820191906000526020600020905b8154815290600101906020018083116118f957829003601f168201915b5050505050815260200160088201805461192f90614646565b80601f016020809104026020016040519081016040528092919081815260200182805461195b90614646565b80156119a85780601f1061197d576101008083540402835291602001916119a8565b820191906000526020600020905b81548152906001019060200180831161198b57829003601f168201915b5050505050815260200160098201548152602001600a8201548152602001600b8201548152602001600c82016040518060e00160405290816000820160009054906101000a900473ffffffffffffffffffffffffffffffffffffffff1673ffffffffffffffffffffffffffffffffffffffff1673ffffffffffffffffffffffffffffffffffffffff16815260200160018201548152602001600282018054611a4f90614646565b80601f0160208091040260200160405190810160405280929190818152602001828054611a7b90614646565b8015611ac85780601f10611a9d57610100808354040283529160200191611ac8565b820191906000526020600020905b815481529060010190602001808311611aab57829003601f168201915b50505050508152602001600382018054611ae190614646565b80601f0160208091040260200160405190810160405280929190818152602001828054611b0d90614646565b8015611b5a5780601f10611b2f57610100808354040283529160200191611b5a565b820191906000526020600020905b815481529060010190602001808311611b3d57829003601f168201915b50505050508152602001600482018054611b7390614646565b80601f0160208091040260200160405190810160405280929190818152602001828054611b9f90614646565b8015611bec5780601f10611bc157610100808354040283529160200191611bec565b820191906000526020600020905b815481529060010190602001808311611bcf57829003601f168201915b50505050508152602001600582018054611c0590614646565b80601f0160208091040260200160405190810160405280929190818152602001828054611c3190614646565b8015611c7e5780601f10611c5357610100808354040283529160200191611c7e565b820191906000526020600020905b815481529060010190602001808311611c6157829003601f168201915b50505050508152602001600682018054611c9790614646565b80601f0160208091040260200160405190810160405280929190818152602001828054611cc390614646565b8015611d105780601f10611ce557610100808354040283529160200191611d10565b820191906000526020600020905b815481529060010190602001808311611cf357829003601f168201915b505050505081525050815260200160138201548152505091505092915050565b600082600360009054906101000a900473ffffffffffffffffffffffffffffffffffffffff1673ffffffffffffffffffffffffffffffffffffffff1663e06f9898826040518263ffffffff1660e01b8152600401611d8e9190614526565b602060405180830381865afa158015611dab573d6000803e3d6000fd5b505050506040513d601f19601f82011682018060405250810190611dcf919061456d565b611e0e576040517f08c379a0000000000000000000000000000000000000000000000000000000008152600401611e05906145f7565b60405180910390fd5b611e188484612cd6565b91505092915050565b81600360009054906101000a900473ffffffffffffffffffffffffffffffffffffffff1673ffffffffffffffffffffffffffffffffffffffff1663e06f9898826040518263ffffffff1660e01b8152600401611e7d9190614526565b602060405180830381865afa158015611e9a573d6000803e3d6000fd5b505050506040513d601f19601f82011682018060405250810190611ebe919061456d565b611efd576040517f08c379a0000000000000000000000000000000000000000000000000000000008152600401611ef4906145f7565b60405180910390fd5b6000611f0883612e11565b90507fffffffffffffffffffffffffffffffffffffffffffffffffffffffffffffffff8103611f6c576040517f08c379a0000000000000000000000000000000000000000000000000000000008152600401611f6390614b0b565b60405180910390fd5b6001808080549050611f7e9190614b2b565b81548110611f8f57611f8e614a19565b5b906000526020600020015460018281548110611fae57611fad614a19565b5b90600052602060002001819055506001805480611fce57611fcd614b5f565b5b6001900381819060005260206000200160009055905550505050565b611ff2612ffb565b82600360009054906101000a900473ffffffffffffffffffffffffffffffffffffffff1673ffffffffffffffffffffffffffffffffffffffff1663e06f9898826040518263ffffffff1660e01b815260040161204e9190614526565b602060405180830381865afa15801561206b573d6000803e3d6000fd5b505050506040513d601f19601f8201168201806040525081019061208f919061456d565b6120ce576040517f08c379a00000000000000000000000000000000000000000000000000000000081526004016120c5906145f7565b60405180910390fd5b6000808481526020019081526020016000206040518060600160405290816000820160405180610160016040529081600082016040518060c00160405290816000820160009054906101000a900473ffffffffffffffffffffffffffffffffffffffff1673ffffffffffffffffffffffffffffffffffffffff1673ffffffffffffffffffffffffffffffffffffffff16815260200160018201805461217290614646565b80601f016020809104026020016040519081016040528092919081815260200182805461219e90614646565b80156121eb5780601f106121c0576101008083540402835291602001916121eb565b820191906000526020600020905b8154815290600101906020018083116121ce57829003601f168201915b5050505050815260200160028201805461220490614646565b80601f016020809104026020016040519081016040528092919081815260200182805461223090614646565b801561227d5780601f106122525761010080835404028352916020019161227d565b820191906000526020600020905b81548152906001019060200180831161226057829003601f168201915b5050505050815260200160038201805461229690614646565b80601f01602080910402602001604051908101604052809291908181526020018280546122c290614646565b801561230f5780601f106122e45761010080835404028352916020019161230f565b820191906000526020600020905b8154815290600101906020018083116122f257829003601f168201915b5050505050815260200160048201805461232890614646565b80601f016020809104026020016040519081016040528092919081815260200182805461235490614646565b80156123a15780601f10612376576101008083540402835291602001916123a1565b820191906000526020600020905b81548152906001019060200180831161238457829003601f168201915b505050505081526020016005820180548060200260200160405190810160405280929190818152602001828054801561242e57602002820191906000526020600020906000905b82829054906101000a900460ff16600881111561240857612407613e2a565b5b815260200190600101906020826000010492830192600103820291508084116123e85790505b50505050508152505081526020016006820160009054906101000a900460ff1660088111156124605761245f613e2a565b5b600881111561247257612471613e2a565b5b81526020016006820160019054906101000a900460ff16600581111561249b5761249a613e2a565b5b60058111156124ad576124ac613e2a565b5b81526020016006820160029054906101000a900460ff1660028111156124d6576124d5613e2a565b5b60028111156124e8576124e7613e2a565b5b81526020016007820180546124fc90614646565b80601f016020809104026020016040519081016040528092919081815260200182805461252890614646565b80156125755780601f1061254a57610100808354040283529160200191612575565b820191906000526020600020905b81548152906001019060200180831161255857829003601f168201915b5050505050815260200160088201805461258e90614646565b80601f01602080910402602001604051908101604052809291908181526020018280546125ba90614646565b80156126075780601f106125dc57610100808354040283529160200191612607565b820191906000526020600020905b8154815290600101906020018083116125ea57829003601f168201915b5050505050815260200160098201548152602001600a8201548152602001600b8201548152602001600c82016040518060e00160405290816000820160009054906101000a900473ffffffffffffffffffffffffffffffffffffffff1673ffffffffffffffffffffffffffffffffffffffff1673ffffffffffffffffffffffffffffffffffffffff168152602001600182015481526020016002820180546126ae90614646565b80601f01602080910402602001604051908101604052809291908181526020018280546126da90614646565b80156127275780601f106126fc57610100808354040283529160200191612727565b820191906000526020600020905b81548152906001019060200180831161270a57829003601f168201915b5050505050815260200160038201805461274090614646565b80601f016020809104026020016040519081016040528092919081815260200182805461276c90614646565b80156127b95780601f1061278e576101008083540402835291602001916127b9565b820191906000526020600020905b81548152906001019060200180831161279c57829003601f168201915b505050505081526020016004820180546127d290614646565b80601f01602080910402602001604051908101604052809291908181526020018280546127fe90614646565b801561284b5780601f106128205761010080835404028352916020019161284b565b820191906000526020600020905b81548152906001019060200180831161282e57829003601f168201915b5050505050815260200160058201805461286490614646565b80601f016020809104026020016040519081016040528092919081815260200182805461289090614646565b80156128dd5780601f106128b2576101008083540402835291602001916128dd565b820191906000526020600020905b8154815290600101906020018083116128c057829003601f168201915b505050505081526020016006820180546128f690614646565b80601f016020809104026020016040519081016040528092919081815260200182805461292290614646565b801561296f5780601f106129445761010080835404028352916020019161296f565b820191906000526020600020905b81548152906001019060200180831161295257829003601f168201915b5050505050815250508152602001601382015481525050815260200160148201805480602002602001604051908101604052809291908181526020016000905b82821015612cbb57838290600052602060002090600502016040518060a00160405290816000820180546129e290614646565b80601f0160208091040260200160405190810160405280929190818152602001828054612a0e90614646565b8015612a5b5780601f10612a3057610100808354040283529160200191612a5b565b820191906000526020600020905b815481529060010190602001808311612a3e57829003601f168201915b50505050508152602001600182018054612a7490614646565b80601f0160208091040260200160405190810160405280929190818152602001828054612aa090614646565b8015612aed5780601f10612ac257610100808354040283529160200191612aed565b820191906000526020600020905b815481529060010190602001808311612ad057829003601f168201915b50505050508152602001600282018054612b0690614646565b80601f0160208091040260200160405190810160405280929190818152602001828054612b3290614646565b8015612b7f5780601f10612b5457610100808354040283529160200191612b7f565b820191906000526020600020905b815481529060010190602001808311612b6257829003601f168201915b50505050508152602001600382018054612b9890614646565b80601f0160208091040260200160405190810160405280929190818152602001828054612bc490614646565b8015612c115780601f10612be657610100808354040283529160200191612c11565b820191906000526020600020905b815481529060010190602001808311612bf457829003601f168201915b50505050508152602001600482018054612c2a90614646565b80601f0160208091040260200160405190810160405280929190818152602001828054612c5690614646565b8015612ca35780601f10612c7857610100808354040283529160200191612ca3565b820191906000526020600020905b815481529060010190602001808311612c8657829003601f168201915b505050505081525050815260200190600101906129af565b50505050815260200160158201548152505091505092915050565b600082600360009054906101000a900473ffffffffffffffffffffffffffffffffffffffff1673ffffffffffffffffffffffffffffffffffffffff1663e06f9898826040518263ffffffff1660e01b8152600401612d349190614526565b602060405180830381865afa158015612d51573d6000803e3d6000fd5b505050506040513d601f19601f82011682018060405250810190612d75919061456d565b612db4576040517f08c379a0000000000000000000000000000000000000000000000000000000008152600401612dab906145f7565b60405180910390fd5b60005b600180549050811015612e04578360018281548110612dd957612dd8614a19565b5b906000526020600020015403612df3576001925050612e0a565b80612dfd90614a77565b9050612db7565b50600091505b5092915050565b600080600090505b600180549050811015612e65578260018281548110612e3b57612e3a614a19565b5b906000526020600020015403612e545780915050612e8a565b80612e5e90614a77565b9050612e19565b507fffffffffffffffffffffffffffffffffffffffffffffffffffffffffffffffff90505b919050565b604051806101600160405280612ea3613022565b815260200160006008811115612ebc57612ebb613e2a565b5b815260200160006005811115612ed557612ed4613e2a565b5b815260200160006002811115612eee57612eed613e2a565b5b81526020016060815260200160608152602001600081526020016000815260200160008152602001612f1e61306e565b8152602001600081525090565b82805482825590600052602060002090601f01602090048101928215612fd05791602002820160005b83821115612fa157835183826101000a81548160ff02191690836008811115612f8057612f7f613e2a565b5b02179055509260200192600101602081600001049283019260010302612f54565b8015612fce5782816101000a81549060ff0219169055600101602081600001049283019260010302612fa1565b505b509050612fdd91906130c1565b5090565b604051806040016040528060008152602001600081525090565b604051806060016040528061300e612e8f565b815260200160608152602001600081525090565b6040518060c00160405280600073ffffffffffffffffffffffffffffffffffffffff16815260200160608152602001606081526020016060815260200160608152602001606081525090565b6040518060e00160405280600073ffffffffffffffffffffffffffffffffffffffff1681526020016000815260200160608152602001606081526020016060815260200160608152602001606081525090565b5b808211156130da5760008160009055506001016130c2565b5090565b6000604051905090565b600080fd5b600080fd5b6000819050919050565b613105816130f2565b811461311057600080fd5b50565b600081359050613122816130fc565b92915050565b60006020828403121561313e5761313d6130e8565b5b600061314c84828501613113565b91505092915050565b61315e816130f2565b82525050565b60006020820190506131796000830184613155565b92915050565b600073ffffffffffffffffffffffffffffffffffffffff82169050919050565b60006131aa8261317f565b9050919050565b6131ba8161319f565b81146131c557600080fd5b50565b6000813590506131d7816131b1565b92915050565b600080fd5b6000601f19601f8301169050919050565b7f4e487b7100000000000000000000000000000000000000000000000000000000600052604160045260246000fd5b61322b826131e2565b810181811067ffffffffffffffff8211171561324a576132496131f3565b5b80604052505050565b600061325d6130de565b90506132698282613222565b919050565b600080fd5b600080fd5b600080fd5b600067ffffffffffffffff821115613298576132976131f3565b5b6132a1826131e2565b9050602081019050919050565b82818337600083830152505050565b60006132d06132cb8461327d565b613253565b9050828152602081018484840111156132ec576132eb613278565b5b6132f78482856132ae565b509392505050565b600082601f83011261331457613313613273565b5b81356133248482602086016132bd565b91505092915050565b600060e08284031215613343576133426131dd565b5b61334d60e0613253565b9050600061335d848285016131c8565b600083015250602061337184828501613113565b602083015250604082013567ffffffffffffffff8111156133955761339461326e565b5b6133a1848285016132ff565b604083015250606082013567ffffffffffffffff8111156133c5576133c461326e565b5b6133d1848285016132ff565b606083015250608082013567ffffffffffffffff8111156133f5576133f461326e565b5b613401848285016132ff565b60808301525060a082013567ffffffffffffffff8111156134255761342461326e565b5b613431848285016132ff565b60a08301525060c082013567ffffffffffffffff8111156134555761345461326e565b5b613461848285016132ff565b60c08301525092915050565b600067ffffffffffffffff821115613488576134876131f3565b5b602082029050602081019050919050565b600080fd5b600981106134ab57600080fd5b50565b6000813590506134bd8161349e565b92915050565b60006134d66134d18461346d565b613253565b905080838252602082019050602084028301858111156134f9576134f8613499565b5b835b81811015613522578061350e88826134ae565b8452602084019350506020810190506134fb565b5050509392505050565b600082601f83011261354157613540613273565b5b81356135518482602086016134c3565b91505092915050565b600060c082840312156135705761356f6131dd565b5b61357a60c0613253565b9050600061358a848285016131c8565b600083015250602082013567ffffffffffffffff8111156135ae576135ad61326e565b5b6135ba848285016132ff565b602083015250604082013567ffffffffffffffff8111156135de576135dd61326e565b5b6135ea848285016132ff565b604083015250606082013567ffffffffffffffff81111561360e5761360d61326e565b5b61361a848285016132ff565b606083015250608082013567ffffffffffffffff81111561363e5761363d61326e565b5b61364a848285016132ff565b60808301525060a082013567ffffffffffffffff81111561366e5761366d61326e565b5b61367a8482850161352c565b60a08301525092915050565b60008060006060848603121561369f5761369e6130e8565b5b60006136ad868287016131c8565b935050602084013567ffffffffffffffff8111156136ce576136cd6130ed565b5b6136da8682870161332d565b925050604084013567ffffffffffffffff8111156136fb576136fa6130ed565b5b6137078682870161355a565b9150509250925092565b6000806000806080858703121561372b5761372a6130e8565b5b6000613739878288016131c8565b945050602061374a87828801613113565b935050604061375b87828801613113565b925050606061376c87828801613113565b91505092959194509250565b6006811061378557600080fd5b50565b60008135905061379781613778565b92915050565b600381106137aa57600080fd5b50565b6000813590506137bc8161379d565b92915050565b600061016082840312156137d9576137d86131dd565b5b6137e4610160613253565b9050600082013567ffffffffffffffff8111156138045761380361326e565b5b6138108482850161355a565b6000830152506020613824848285016134ae565b602083015250604061383884828501613788565b604083015250606061384c848285016137ad565b606083015250608082013567ffffffffffffffff8111156138705761386f61326e565b5b61387c848285016132ff565b60808301525060a082013567ffffffffffffffff8111156138a05761389f61326e565b5b6138ac848285016132ff565b60a08301525060c06138c084828501613113565b60c08301525060e06138d484828501613113565b60e0830152506101006138e984828501613113565b6101008301525061012082013567ffffffffffffffff81111561390f5761390e61326e565b5b61391b8482850161332d565b6101208301525061014061393184828501613113565b6101408301525092915050565b60008060408385031215613955576139546130e8565b5b6000613963858286016131c8565b925050602083013567ffffffffffffffff811115613984576139836130ed565b5b613990858286016137c2565b9150509250929050565b600080604083850312156139b1576139b06130e8565b5b60006139bf858286016131c8565b92505060206139d085828601613113565b9150509250929050565b60008115159050919050565b6139ef816139da565b82525050565b6000602082019050613a0a60008301846139e6565b92915050565b600060a08284031215613a2657613a256131dd565b5b613a3060a0613253565b9050600082013567ffffffffffffffff811115613a5057613a4f61326e565b5b613a5c848285016132ff565b600083015250602082013567ffffffffffffffff811115613a8057613a7f61326e565b5b613a8c848285016132ff565b602083015250604082013567ffffffffffffffff811115613ab057613aaf61326e565b5b613abc848285016132ff565b604083015250606082013567ffffffffffffffff811115613ae057613adf61326e565b5b613aec848285016132ff565b606083015250608082013567ffffffffffffffff811115613b1057613b0f61326e565b5b613b1c848285016132ff565b60808301525092915050565b600080600060608486031215613b4157613b406130e8565b5b6000613b4f868287016131c8565b9350506020613b6086828701613113565b925050604084013567ffffffffffffffff811115613b8157613b806130ed565b5b613b8d86828701613a10565b9150509250925092565b600067ffffffffffffffff821115613bb257613bb16131f3565b5b602082029050602081019050919050565b6000613bd6613bd184613b97565b613253565b90508083825260208201905060208402830185811115613bf957613bf8613499565b5b835b81811015613c4057803567ffffffffffffffff811115613c1e57613c1d613273565b5b808601613c2b8982613a10565b85526020850194505050602081019050613bfb565b5050509392505050565b600082601f830112613c5f57613c5e613273565b5b8135613c6f848260208601613bc3565b91505092915050565b600060608284031215613c8e57613c8d6131dd565b5b613c986060613253565b9050600082013567ffffffffffffffff811115613cb857613cb761326e565b5b613cc4848285016137c2565b600083015250602082013567ffffffffffffffff811115613ce857613ce761326e565b5b613cf484828501613c4a565b6020830152506040613d0884828501613113565b60408301525092915050565b60008060408385031215613d2b57613d2a6130e8565b5b6000613d39858286016131c8565b925050602083013567ffffffffffffffff811115613d5a57613d596130ed565b5b613d6685828601613c78565b9150509250929050565b613d798161319f565b82525050565b600081519050919050565b600082825260208201905092915050565b60005b83811015613db9578082015181840152602081019050613d9e565b60008484015250505050565b6000613dd082613d7f565b613dda8185613d8a565b9350613dea818560208601613d9b565b613df3816131e2565b840191505092915050565b600081519050919050565b600082825260208201905092915050565b6000819050602082019050919050565b7f4e487b7100000000000000000000000000000000000000000000000000000000600052602160045260246000fd5b60098110613e6a57613e69613e2a565b5b50565b6000819050613e7b82613e59565b919050565b6000613e8b82613e6d565b9050919050565b613e9b81613e80565b82525050565b6000613ead8383613e92565b60208301905092915050565b6000602082019050919050565b6000613ed182613dfe565b613edb8185613e09565b9350613ee683613e1a565b8060005b83811015613f17578151613efe8882613ea1565b9750613f0983613eb9565b925050600181019050613eea565b5085935050505092915050565b600060c083016000830151613f3c6000860182613d70565b5060208301518482036020860152613f548282613dc5565b91505060408301518482036040860152613f6e8282613dc5565b91505060608301518482036060860152613f888282613dc5565b91505060808301518482036080860152613fa28282613dc5565b91505060a083015184820360a0860152613fbc8282613ec6565b9150508091505092915050565b60068110613fda57613fd9613e2a565b5b50565b6000819050613feb82613fc9565b919050565b6000613ffb82613fdd565b9050919050565b61400b81613ff0565b82525050565b6003811061402257614021613e2a565b5b50565b600081905061403382614011565b919050565b600061404382614025565b9050919050565b61405381614038565b82525050565b614062816130f2565b82525050565b600060e0830160008301516140806000860182613d70565b5060208301516140936020860182614059565b50604083015184820360408601526140ab8282613dc5565b915050606083015184820360608601526140c58282613dc5565b915050608083015184820360808601526140df8282613dc5565b91505060a083015184820360a08601526140f98282613dc5565b91505060c083015184820360c08601526141138282613dc5565b9150508091505092915050565b600061016083016000830151848203600086015261413e8282613f24565b91505060208301516141536020860182613e92565b5060408301516141666040860182614002565b506060830151614179606086018261404a565b50608083015184820360808601526141918282613dc5565b91505060a083015184820360a08601526141ab8282613dc5565b91505060c08301516141c060c0860182614059565b5060e08301516141d360e0860182614059565b506101008301516141e8610100860182614059565b506101208301518482036101208601526142028282614068565b915050610140830151614219610140860182614059565b508091505092915050565b6000602082019050818103600083015261423e8184614120565b905092915050565b60006101608301600083015184820360008601526142648282613f24565b91505060208301516142796020860182613e92565b50604083015161428c6040860182614002565b50606083015161429f606086018261404a565b50608083015184820360808601526142b78282613dc5565b91505060a083015184820360a08601526142d18282613dc5565b91505060c08301516142e660c0860182614059565b5060e08301516142f960e0860182614059565b5061010083015161430e610100860182614059565b506101208301518482036101208601526143288282614068565b91505061014083015161433f610140860182614059565b508091505092915050565b600081519050919050565b600082825260208201905092915050565b6000819050602082019050919050565b600060a08301600083015184820360008601526143938282613dc5565b915050602083015184820360208601526143ad8282613dc5565b915050604083015184820360408601526143c78282613dc5565b915050606083015184820360608601526143e18282613dc5565b915050608083015184820360808601526143fb8282613dc5565b9150508091505092915050565b60006144148383614376565b905092915050565b6000602082019050919050565b60006144348261434a565b61443e8185614355565b93508360208202850161445085614366565b8060005b8581101561448c578484038952815161446d8582614408565b94506144788361441c565b925060208a01995050600181019050614454565b50829750879550505050505092915050565b600060608301600083015184820360008601526144bb8282614246565b915050602083015184820360208601526144d58282614429565b91505060408301516144ea6040860182614059565b508091505092915050565b6000602082019050818103600083015261450f818461449e565b905092915050565b6145208161319f565b82525050565b600060208201905061453b6000830184614517565b92915050565b61454a816139da565b811461455557600080fd5b50565b60008151905061456781614541565b92915050565b600060208284031215614583576145826130e8565b5b600061459184828501614558565b91505092915050565b600082825260208201905092915050565b7f6f6e6c79207363686f6f6c2061646d696e20697320616c6c6f77656400000000600082015250565b60006145e1601c8361459a565b91506145ec826145ab565b602082019050919050565b60006020820190508181036000830152614610816145d4565b9050919050565b7f4e487b7100000000000000000000000000000000000000000000000000000000600052602260045260246000fd5b6000600282049050600182168061465e57607f821691505b60208210810361467157614670614617565b5b50919050565b60008190508160005260206000209050919050565b60006020601f8301049050919050565b600082821b905092915050565b6000600883026146d97fffffffffffffffffffffffffffffffffffffffffffffffffffffffffffffffff8261469c565b6146e3868361469c565b95508019841693508086168417925050509392505050565b6000819050919050565b600061472061471b614716846130f2565b6146fb565b6130f2565b9050919050565b6000819050919050565b61473a83614705565b61474e61474682614727565b8484546146a9565b825550505050565b600090565b614763614756565b61476e818484614731565b505050565b5b818110156147925761478760008261475b565b600181019050614774565b5050565b601f8211156147d7576147a881614677565b6147b18461468c565b810160208510156147c0578190505b6147d46147cc8561468c565b830182614773565b50505b505050565b600082821c905092915050565b60006147fa600019846008026147dc565b1980831691505092915050565b600061481383836147e9565b9150826002028217905092915050565b61482c82613d7f565b67ffffffffffffffff811115614845576148446131f3565b5b61484f8254614646565b61485a828285614796565b600060209050601f83116001811461488d576000841561487b578287015190505b6148858582614807565b8655506148ed565b601f19841661489b86614677565b60005b828110156148c35784890151825560018201915060208501945060208101905061489e565b868310156148e057848901516148dc601f8916826147e9565b8355505b6001600288020188555050505b505050505050565b7f4e6f2063757272656e742073747564656e742c2073686f756c642061646d697360008201527f73696f6e20666972737400000000000000000000000000000000000000000000602082015250565b6000614951602a8361459a565b915061495c826148f5565b604082019050919050565b6000602082019050818103600083015261498081614944565b9050919050565b7f4e6f207472616e73637269707473206f722063757272656e742073747564656e60008201527f742c20696e76616c6964206f7065726174696f6e000000000000000000000000602082015250565b60006149e360348361459a565b91506149ee82614987565b604082019050919050565b60006020820190508181036000830152614a12816149d6565b9050919050565b7f4e487b7100000000000000000000000000000000000000000000000000000000600052603260045260246000fd5b7f4e487b7100000000000000000000000000000000000000000000000000000000600052601160045260246000fd5b6000614a82826130f2565b91507fffffffffffffffffffffffffffffffffffffffffffffffffffffffffffffffff8203614ab457614ab3614a48565b5b600182019050919050565b7f73747564656e74206e6f7420696e206c69737400000000000000000000000000600082015250565b6000614af560138361459a565b9150614b0082614abf565b602082019050919050565b60006020820190508181036000830152614b2481614ae8565b9050919050565b6000614b36826130f2565b9150614b41836130f2565b9250828203905081811115614b5957614b58614a48565b5b92915050565b7f4e487b7100000000000000000000000000000000000000000000000000000000600052603160045260246000fdfea2646970667358221220187175b921cbe006728f0066720f52e73abd17779168f43631519ffdb3d14b6864736f6c63430008130033",
  "immutableReferences": {},
  "source": "//SPDX-License-Identifier: MIT\npragma solidity ^0.8.0;\n\nimport \"./SchoolDefinition.sol\";\nimport \"./IOffice.sol\";\nimport \"./ISchoolSource.sol\";\n\ncontract SchoolSource is ISchoolSource\n{\n    struct Signatures\n    {\n        uint256 certSig;\n        uint256 transSig;\n    }\n\n    mapping(uint256 => Transcript_Info) private studsTrans;\n    uint256[] private curStudArray;\n    mapping(uint256 => Signatures) private graduatedStudentInfo; //studentId => signature\n    IOffice officeContract;\n\n    constructor(address officeContractAddress)\n    {\n        officeContract = IOffice(officeContractAddress);\n    }\n    modifier onlyAdmin(address _verify)\n    {\n        require(officeContract.isOwnerOrOfficer(_verify), \"only school admin is allowed\");\n        _;\n    }\n\n    function addGraduatedStudent(address _verify, uint256 id, uint256 _certSig, uint256 _TranSig) external override onlyAdmin(_verify)\n    {\n        Signatures memory sigs;\n        sigs.certSig = _certSig;\n        sigs.transSig = _TranSig;\n        graduatedStudentInfo[id] = sigs;\n    }\n\n    function getGraduatedStudentCertificateSignature(uint256 id) external override view returns (uint256) \n    {\n        return graduatedStudentInfo[id].certSig;\n    }\n\n    function getGraduatedStudentTranscriptSignature(uint256 id) external override view returns (uint256) \n    {\n        return graduatedStudentInfo[id].transSig;\n    }\n\n    function newStudent(address _verify, Student_Info memory _stdInfo, School_Info memory _schoolInfo) external override onlyAdmin(_verify)\n    {\n        uint256 studentId = _stdInfo.id; //school must create a unqiure id for student first;\n        Certificate_Info memory cert;\n        cert.schoolInfo = _schoolInfo;\n        cert.honor = EHonor.None;\n        cert.status = EStudyStatus.InProgress;\n        cert.admissionTimestamp = block.timestamp;\n        cert.studentDetails = _stdInfo;\n        curStudArray.push(studentId);\n        studsTrans[studentId].certificate = cert;\n    }\n\n    function addCurrentStudentCourseInfo(address _verify,uint256 _studId, Course_Info memory _courseList) external override onlyAdmin(_verify)\n    {\n        studsTrans[_studId].courseList.push(_courseList);\n    }\n\n    function getCurrentStudentCertificate(address _verify,uint256 _stuId) external override view onlyAdmin(_verify) returns (Certificate_Info memory)\n    {\n        return studsTrans[_stuId].certificate;\n    }\n\n    function getCurrentStudentTranscript(address _verify, uint256 _stuId) external override view onlyAdmin(_verify) returns (Transcript_Info memory)\n    {\n        return studsTrans[_stuId];\n    }\n    \n    function isCurrentStudent(address _verify,uint256 _studId) external override view onlyAdmin(_verify) returns (bool)\n    {\n        return isCurStudent(_verify, _studId);\n    }\n\n    function isCurStudent(address _verify,uint256 _stuId) private view onlyAdmin(_verify) returns (bool)\n    {\n        for (uint i = 0; i < curStudArray.length; ++i)\n        {\n            if (curStudArray[i] == _stuId)\n            {\n                return true;\n            }\n        }\n        return false;\n    }\n\n    function updateStudentCertificate(address _verify, Certificate_Info memory _cert) onlyAdmin(_verify) external override\n    {\n        uint256 stuId = _cert.studentDetails.id;\n        require (isCurStudent(_verify, stuId), \"No current student, should admission first\");\n\n        studsTrans[stuId].certificate = _cert;\n    }\n\n    function setStudentTranscript(address _verify, Transcript_Info memory _trans) onlyAdmin(_verify) external override\n    {\n        uint256 stuId = _trans.certificate.studentDetails.id;\n        require(isCurStudent(_verify, stuId), \"No transcripts or current student, invalid operation\");\n\n        studsTrans[stuId].certificate = _trans.certificate;\n        studsTrans[stuId].signature = _trans.signature;\n        for(uint i = 0; i < _trans.courseList.length; ++i)\n        {\n            studsTrans[stuId].courseList.push( _trans.courseList[i]);\n        }\n    }\n\n    function checkGraduateRequirement(address _verify, uint256 _studId) external override onlyAdmin(_verify) view returns (bool)\n    {\n        if (studsTrans[_studId].certificate.status != EStudyStatus.InProgress)\n            return true;\n        else\n            return false;\n    }\n\n    function findStudentIndex(uint256 _studId) private view returns (uint)\n    {\n        for (uint i = 0; i < curStudArray.length; ++i)\n        {\n            if (curStudArray[i] == _studId)\n                return i;\n        }\n        return type(uint).max; //return a invalid value if not found;\n    }\n\n    function removeStudent(address _verify, uint256 _studId) external override onlyAdmin(_verify)\n    {\n        uint studIndex = findStudentIndex(_studId);\n        require(studIndex != type(uint).max, \"student not in list\");\n\n        //because solidity only support pop in array. move last available address instead;\n        curStudArray[studIndex] = curStudArray[curStudArray.length - 1];\n        curStudArray.pop();\n    }\n}\n",
  "sourcePath": "/Users/zhougaoqiang/Documents/GitHub/SmartCertify/web-app/blockchain/contracts/SchoolSource.sol",
  "compiler": {
    "name": "solc",
    "version": "0.8.19+commit.7dd6d404.Emscripten.clang"
  },
  "schemaVersion": "3.4.16",
  "updatedAt": "2024-03-29T16:51:57.720Z",
  "devdoc": {
    "kind": "dev",
    "methods": {},
    "version": 1
  },
  "userdoc": {
    "kind": "user",
    "methods": {},
    "version": 1
  }
}