{
  "contractName": "Source",
  "abi": [
    {
      "inputs": [],
      "stateMutability": "nonpayable",
      "type": "constructor"
    },
    {
      "inputs": [
        {
          "internalType": "address",
          "name": "_add",
          "type": "address"
        }
      ],
      "name": "hasAddress",
      "outputs": [
        {
          "internalType": "bool",
          "name": "",
          "type": "bool"
        }
      ],
      "stateMutability": "view",
      "type": "function"
    },
    {
      "inputs": [
        {
          "internalType": "address",
          "name": "_verify",
          "type": "address"
        },
        {
          "internalType": "address",
          "name": "_add",
          "type": "address"
        }
      ],
      "name": "addAddress",
      "outputs": [],
      "stateMutability": "nonpayable",
      "type": "function"
    },
    {
      "inputs": [
        {
          "internalType": "address",
          "name": "_verify",
          "type": "address"
        },
        {
          "internalType": "uint256",
          "name": "index",
          "type": "uint256"
        }
      ],
      "name": "getAddress",
      "outputs": [
        {
          "internalType": "address",
          "name": "",
          "type": "address"
        }
      ],
      "stateMutability": "view",
      "type": "function"
    },
    {
      "inputs": [
        {
          "internalType": "address",
          "name": "_verify",
          "type": "address"
        },
        {
          "internalType": "address",
          "name": "_add",
          "type": "address"
        }
      ],
      "name": "removeAddress",
      "outputs": [],
      "stateMutability": "nonpayable",
      "type": "function"
    },
    {
      "inputs": [
        {
          "internalType": "address",
          "name": "_verify",
          "type": "address"
        },
        {
          "internalType": "uint256",
          "name": "index",
          "type": "uint256"
        }
      ],
      "name": "removeAddressByIndex",
      "outputs": [],
      "stateMutability": "nonpayable",
      "type": "function"
    }
  ],
  "bytecode": "0x608060405234801561001057600080fd5b50610921806100206000396000f3fe608060405234801561001057600080fd5b50600436106100575760003560e01c8063616e99d71461005c578063713e7b85146100785780638cb84e1814610094578063b6fac15a146100c4578063ff706170146100e0575b600080fd5b61007660048036038101906100719190610658565b610110565b005b610092600480360381019061008d9190610698565b61024e565b005b6100ae60048036038101906100a99190610658565b6102b5565b6040516100bb91906106e7565b60405180910390f35b6100de60048036038101906100d99190610698565b610344565b005b6100fa60048036038101906100f59190610702565b6104ab565b604051610107919061074a565b60405180910390f35b6000805490508110610157576040517f08c379a000000000000000000000000000000000000000000000000000000000815260040161014e906107c2565b60405180910390fd5b6000600160008054905061016b9190610811565b8154811061017c5761017b610845565b5b9060005260206000200160009054906101000a900473ffffffffffffffffffffffffffffffffffffffff16600082815481106101bb576101ba610845565b5b9060005260206000200160006101000a81548173ffffffffffffffffffffffffffffffffffffffff021916908373ffffffffffffffffffffffffffffffffffffffff160217905550600080548061021557610214610874565b5b6001900381819060005260206000200160006101000a81549073ffffffffffffffffffffffffffffffffffffffff021916905590555050565b6000819080600181540180825580915050600190039060005260206000200160009091909190916101000a81548173ffffffffffffffffffffffffffffffffffffffff021916908373ffffffffffffffffffffffffffffffffffffffff1602179055505050565b6000808054905082106102fd576040517f08c379a00000000000000000000000000000000000000000000000000000000081526004016102f4906107c2565b60405180910390fd5b6000828154811061031157610310610845565b5b9060005260206000200160009054906101000a900473ffffffffffffffffffffffffffffffffffffffff16905092915050565b600061034f826104f5565b90507fffffffffffffffffffffffffffffffffffffffffffffffffffffffffffffffff81036103b3576040517f08c379a00000000000000000000000000000000000000000000000000000000081526004016103aa906107c2565b60405180910390fd5b600060016000805490506103c79190610811565b815481106103d8576103d7610845565b5b9060005260206000200160009054906101000a900473ffffffffffffffffffffffffffffffffffffffff166000828154811061041757610416610845565b5b9060005260206000200160006101000a81548173ffffffffffffffffffffffffffffffffffffffff021916908373ffffffffffffffffffffffffffffffffffffffff160217905550600080548061047157610470610874565b5b6001900381819060005260206000200160006101000a81549073ffffffffffffffffffffffffffffffffffffffff02191690559055505050565b6000806104b7836104f5565b90507fffffffffffffffffffffffffffffffffffffffffffffffffffffffffffffffff81146104ea5760019150506104f0565b60009150505b919050565b600080600090505b600080549050811015610595576000818154811061051e5761051d610845565b5b9060005260206000200160009054906101000a900473ffffffffffffffffffffffffffffffffffffffff1673ffffffffffffffffffffffffffffffffffffffff168373ffffffffffffffffffffffffffffffffffffffff160361058457809150506105ba565b8061058e906108a3565b90506104fd565b507fffffffffffffffffffffffffffffffffffffffffffffffffffffffffffffffff90505b919050565b600080fd5b600073ffffffffffffffffffffffffffffffffffffffff82169050919050565b60006105ef826105c4565b9050919050565b6105ff816105e4565b811461060a57600080fd5b50565b60008135905061061c816105f6565b92915050565b6000819050919050565b61063581610622565b811461064057600080fd5b50565b6000813590506106528161062c565b92915050565b6000806040838503121561066f5761066e6105bf565b5b600061067d8582860161060d565b925050602061068e85828601610643565b9150509250929050565b600080604083850312156106af576106ae6105bf565b5b60006106bd8582860161060d565b92505060206106ce8582860161060d565b9150509250929050565b6106e1816105e4565b82525050565b60006020820190506106fc60008301846106d8565b92915050565b600060208284031215610718576107176105bf565b5b60006107268482850161060d565b91505092915050565b60008115159050919050565b6107448161072f565b82525050565b600060208201905061075f600083018461073b565b92915050565b600082825260208201905092915050565b7f6e6f7420696e206c697374000000000000000000000000000000000000000000600082015250565b60006107ac600b83610765565b91506107b782610776565b602082019050919050565b600060208201905081810360008301526107db8161079f565b9050919050565b7f4e487b7100000000000000000000000000000000000000000000000000000000600052601160045260246000fd5b600061081c82610622565b915061082783610622565b925082820390508181111561083f5761083e6107e2565b5b92915050565b7f4e487b7100000000000000000000000000000000000000000000000000000000600052603260045260246000fd5b7f4e487b7100000000000000000000000000000000000000000000000000000000600052603160045260246000fd5b60006108ae82610622565b91507fffffffffffffffffffffffffffffffffffffffffffffffffffffffffffffffff82036108e0576108df6107e2565b5b60018201905091905056fea26469706673582212200a56774cc0683143504b717ca9841c6e98ce01a586f479cb395a1958ced027e064736f6c63430008130033",
  "immutableReferences": {},
  "source": "//SPDX-License-Identifier: MIT\npragma solidity ^0.8.0;\n// import \"./IOffice.sol\";\n// import \"./ISource.sol\";\n// import \"hardhat/console.sol\";\n/*\nthe source contract always need office contract support.\n*/\n\n\ncontract Source\n{\n    // IOffice officeContract;\n    // uint count;\n    address[] subSourceAdds;\n\n    constructor()\n    {\n        // count = 0;\n        // officeContract = IOffice(_officeAdd);\n    }\n\n    // modifier onlyAdmin(address _add)\n    // {\n    //     require(!officeContract.isOwnerOrOfficer(_add), \"only admin allowed\");\n    //     _;\n    // }\n\n    function findAddressIndexInArray(address _add) private view returns (uint)\n    {\n        for(uint i = 0; i < subSourceAdds.length; ++i)\n        {\n            if (_add == subSourceAdds[i])\n                return i;\n        }\n        return type(uint).max;\n    }\n\n    function hasAddress(address _add) external view returns (bool)\n    {\n        // console.log(\"check has address =>\", _add);\n        uint index = findAddressIndexInArray(_add);\n        if (index != type(uint).max)\n            return true;\n        else\n            return false;\n    }\n\n    function addAddress(address _verify, address _add) external\n    {\n        // count++;\n        subSourceAdds.push(_add);\n    }\n\n    function getAddress(address _verify, uint index) external view returns (address)\n    {\n        require(index < subSourceAdds.length, \"not in list\");\n        return subSourceAdds[index];\n    }\n\n    function removeAddress(address _verify, address _add) external\n    {\n        uint index = findAddressIndexInArray(_add);\n        require(index != type(uint).max, \"not in list\");\n\n        subSourceAdds[index] = subSourceAdds[subSourceAdds.length -1];\n        subSourceAdds.pop();\n        // count--;\n    }\n\n    function removeAddressByIndex(address _verify, uint index) external\n    {\n        require(index < subSourceAdds.length, \"not in list\");\n        subSourceAdds[index] = subSourceAdds[subSourceAdds.length -1];\n        subSourceAdds.pop();\n        // count--;\n    }\n}",
  "sourcePath": "/Users/zhougaoqiang/Documents/GitHub/SmartCertify/web-app/blockchain/contracts/Source.sol",
  "compiler": {
    "name": "solc",
    "version": "0.8.19+commit.7dd6d404.Emscripten.clang"
  },
  "schemaVersion": "3.4.16",
  "updatedAt": "2024-03-29T16:51:57.724Z",
  "devdoc": {
    "kind": "dev",
    "methods": {},
    "version": 1
  },
  "userdoc": {
    "kind": "user",
    "methods": {},
    "version": 1
  }
}