{
  "contractName": "Verification",
  "abi": [
    {
      "inputs": [
        {
          "internalType": "address",
          "name": "_source",
          "type": "address"
        }
      ],
      "stateMutability": "nonpayable",
      "type": "constructor"
    },
    {
      "inputs": [
        {
          "components": [
            {
              "components": [
                {
                  "internalType": "address",
                  "name": "schoolContractAddress",
                  "type": "address"
                },
                {
                  "internalType": "string",
                  "name": "id",
                  "type": "string"
                },
                {
                  "internalType": "string",
                  "name": "name",
                  "type": "string"
                },
                {
                  "internalType": "string",
                  "name": "add",
                  "type": "string"
                },
                {
                  "internalType": "string",
                  "name": "email",
                  "type": "string"
                },
                {
                  "internalType": "enum ECertificateCategory[]",
                  "name": "allowedCategory",
                  "type": "uint8[]"
                }
              ],
              "internalType": "struct School_Info",
              "name": "schoolInfo",
              "type": "tuple"
            },
            {
              "internalType": "enum ECertificateCategory",
              "name": "category",
              "type": "uint8"
            },
            {
              "internalType": "enum EHonor",
              "name": "honor",
              "type": "uint8"
            },
            {
              "internalType": "enum EStudyStatus",
              "name": "status",
              "type": "uint8"
            },
            {
              "internalType": "string",
              "name": "major",
              "type": "string"
            },
            {
              "internalType": "string",
              "name": "description",
              "type": "string"
            },
            {
              "internalType": "uint256",
              "name": "certificateId",
              "type": "uint256"
            },
            {
              "internalType": "uint256",
              "name": "admissionTimestamp",
              "type": "uint256"
            },
            {
              "internalType": "uint256",
              "name": "graduationTimestamp",
              "type": "uint256"
            },
            {
              "components": [
                {
                  "internalType": "address",
                  "name": "studentAdd",
                  "type": "address"
                },
                {
                  "internalType": "uint256",
                  "name": "id",
                  "type": "uint256"
                },
                {
                  "internalType": "string",
                  "name": "nationality",
                  "type": "string"
                },
                {
                  "internalType": "string",
                  "name": "nric",
                  "type": "string"
                },
                {
                  "internalType": "string",
                  "name": "passport",
                  "type": "string"
                },
                {
                  "internalType": "string",
                  "name": "name",
                  "type": "string"
                },
                {
                  "internalType": "string",
                  "name": "add",
                  "type": "string"
                }
              ],
              "internalType": "struct Student_Info",
              "name": "studentDetails",
              "type": "tuple"
            },
            {
              "internalType": "uint256",
              "name": "signature",
              "type": "uint256"
            }
          ],
          "internalType": "struct Certificate_Info",
          "name": "_cert",
          "type": "tuple"
        }
      ],
      "name": "verifyGraduatedStudentCertificate",
      "outputs": [
        {
          "internalType": "bool",
          "name": "",
          "type": "bool"
        }
      ],
      "stateMutability": "view",
      "type": "function"
    },
    {
      "inputs": [
        {
          "components": [
            {
              "components": [
                {
                  "components": [
                    {
                      "internalType": "address",
                      "name": "schoolContractAddress",
                      "type": "address"
                    },
                    {
                      "internalType": "string",
                      "name": "id",
                      "type": "string"
                    },
                    {
                      "internalType": "string",
                      "name": "name",
                      "type": "string"
                    },
                    {
                      "internalType": "string",
                      "name": "add",
                      "type": "string"
                    },
                    {
                      "internalType": "string",
                      "name": "email",
                      "type": "string"
                    },
                    {
                      "internalType": "enum ECertificateCategory[]",
                      "name": "allowedCategory",
                      "type": "uint8[]"
                    }
                  ],
                  "internalType": "struct School_Info",
                  "name": "schoolInfo",
                  "type": "tuple"
                },
                {
                  "internalType": "enum ECertificateCategory",
                  "name": "category",
                  "type": "uint8"
                },
                {
                  "internalType": "enum EHonor",
                  "name": "honor",
                  "type": "uint8"
                },
                {
                  "internalType": "enum EStudyStatus",
                  "name": "status",
                  "type": "uint8"
                },
                {
                  "internalType": "string",
                  "name": "major",
                  "type": "string"
                },
                {
                  "internalType": "string",
                  "name": "description",
                  "type": "string"
                },
                {
                  "internalType": "uint256",
                  "name": "certificateId",
                  "type": "uint256"
                },
                {
                  "internalType": "uint256",
                  "name": "admissionTimestamp",
                  "type": "uint256"
                },
                {
                  "internalType": "uint256",
                  "name": "graduationTimestamp",
                  "type": "uint256"
                },
                {
                  "components": [
                    {
                      "internalType": "address",
                      "name": "studentAdd",
                      "type": "address"
                    },
                    {
                      "internalType": "uint256",
                      "name": "id",
                      "type": "uint256"
                    },
                    {
                      "internalType": "string",
                      "name": "nationality",
                      "type": "string"
                    },
                    {
                      "internalType": "string",
                      "name": "nric",
                      "type": "string"
                    },
                    {
                      "internalType": "string",
                      "name": "passport",
                      "type": "string"
                    },
                    {
                      "internalType": "string",
                      "name": "name",
                      "type": "string"
                    },
                    {
                      "internalType": "string",
                      "name": "add",
                      "type": "string"
                    }
                  ],
                  "internalType": "struct Student_Info",
                  "name": "studentDetails",
                  "type": "tuple"
                },
                {
                  "internalType": "uint256",
                  "name": "signature",
                  "type": "uint256"
                }
              ],
              "internalType": "struct Certificate_Info",
              "name": "certificate",
              "type": "tuple"
            },
            {
              "components": [
                {
                  "internalType": "string",
                  "name": "id",
                  "type": "string"
                },
                {
                  "internalType": "string",
                  "name": "name",
                  "type": "string"
                },
                {
                  "internalType": "string",
                  "name": "professor",
                  "type": "string"
                },
                {
                  "internalType": "string",
                  "name": "result",
                  "type": "string"
                },
                {
                  "internalType": "string",
                  "name": "grade",
                  "type": "string"
                }
              ],
              "internalType": "struct Course_Info[]",
              "name": "courseList",
              "type": "tuple[]"
            },
            {
              "internalType": "uint256",
              "name": "signature",
              "type": "uint256"
            }
          ],
          "internalType": "struct Transcript_Info",
          "name": "_trans",
          "type": "tuple"
        }
      ],
      "name": "verifyGraduateStudentTranscript",
      "outputs": [
        {
          "internalType": "bool",
          "name": "",
          "type": "bool"
        }
      ],
      "stateMutability": "view",
      "type": "function"
    }
  ],
  "bytecode": "0x60806040523480156200001157600080fd5b5060405162001603380380620016038339818101604052810190620000379190620000e8565b806000806101000a81548173ffffffffffffffffffffffffffffffffffffffff021916908373ffffffffffffffffffffffffffffffffffffffff160217905550506200011a565b600080fd5b600073ffffffffffffffffffffffffffffffffffffffff82169050919050565b6000620000b08262000083565b9050919050565b620000c281620000a3565b8114620000ce57600080fd5b50565b600081519050620000e281620000b7565b92915050565b6000602082840312156200010157620001006200007e565b5b60006200011184828501620000d1565b91505092915050565b6114d9806200012a6000396000f3fe608060405234801561001057600080fd5b50600436106100365760003560e01c8063189e48b31461003b5780638f147c991461006b575b600080fd5b61005560048036038101906100509190610c01565b61009b565b6040516100629190610c65565b60405180910390f35b61008560048036038101906100809190610f15565b61015c565b6040516100929190610c65565b60405180910390f35b60008082610120015160200151905060008060009054906101000a900473ffffffffffffffffffffffffffffffffffffffff1673ffffffffffffffffffffffffffffffffffffffff166302989bc6836040518263ffffffff1660e01b81526004016101069190610f6d565b602060405180830381865afa158015610123573d6000803e3d6000fd5b505050506040513d601f19601f820116820180604052508101906101479190610f9d565b90506101538482610221565b92505050919050565b6000808260000151610120015160200151905060008060009054906101000a900473ffffffffffffffffffffffffffffffffffffffff1673ffffffffffffffffffffffffffffffffffffffff1663094f0dec836040518263ffffffff1660e01b81526004016101cb9190610f6d565b602060405180830381865afa1580156101e8573d6000803e3d6000fd5b505050506040513d601f19601f8201168201806040525081019061020c9190610f9d565b9050610218848261023b565b92505050919050565b60008061022d84610257565b905080831491505092915050565b600080610249846000610373565b905080831491505092915050565b60008082600001519050600081600001518260200151836060015184608001518560400151604051602001610290959493929190611083565b604051602081830303815290604052805190602001209050600084610120015190506000816000015182602001518360400151846060015185608001518660a001518760c001516040516020016102ed97969594939291906110f3565b60405160208183030381529060405280519060200120905060008382886020015189604001518a606001518b608001518c60a001518d60c001518e60e001518f610100015160405160200161034b9a999897969594939291906112c9565b6040516020818303038152906040528051906020012090508060001c95505050505050919050565b600080600090508215610391578360000151610140015190506103a1565b61039e8460000151610257565b90505b6000846020015151905060008060001b905060005b828110156104ac57866020015181815181106103d5576103d4611375565b5b602002602001015160000151876020015182815181106103f8576103f7611375565b5b6020026020010151602001518860200151838151811061041b5761041a611375565b5b6020026020010151604001518960200151848151811061043e5761043d611375565b5b6020026020010151606001518a60200151858151811061046157610460611375565b5b60200260200101516080015186604051602001610483969594939291906113a4565b604051602081830303815290604052805190602001209150806104a59061142f565b90506103b6565b50600083826040516020016104c2929190611477565b6040516020818303038152906040528051906020012090508060001c94505050505092915050565b6000604051905090565b600080fd5b600080fd5b600080fd5b6000601f19601f8301169050919050565b7f4e487b7100000000000000000000000000000000000000000000000000000000600052604160045260246000fd5b61054c82610503565b810181811067ffffffffffffffff8211171561056b5761056a610514565b5b80604052505050565b600061057e6104ea565b905061058a8282610543565b919050565b600080fd5b600073ffffffffffffffffffffffffffffffffffffffff82169050919050565b60006105bf82610594565b9050919050565b6105cf816105b4565b81146105da57600080fd5b50565b6000813590506105ec816105c6565b92915050565b600080fd5b600080fd5b600067ffffffffffffffff82111561061757610616610514565b5b61062082610503565b9050602081019050919050565b82818337600083830152505050565b600061064f61064a846105fc565b610574565b90508281526020810184848401111561066b5761066a6105f7565b5b61067684828561062d565b509392505050565b600082601f830112610693576106926105f2565b5b81356106a384826020860161063c565b91505092915050565b600067ffffffffffffffff8211156106c7576106c6610514565b5b602082029050602081019050919050565b600080fd5b600981106106ea57600080fd5b50565b6000813590506106fc816106dd565b92915050565b6000610715610710846106ac565b610574565b90508083825260208201905060208402830185811115610738576107376106d8565b5b835b81811015610761578061074d88826106ed565b84526020840193505060208101905061073a565b5050509392505050565b600082601f8301126107805761077f6105f2565b5b8135610790848260208601610702565b91505092915050565b600060c082840312156107af576107ae6104fe565b5b6107b960c0610574565b905060006107c9848285016105dd565b600083015250602082013567ffffffffffffffff8111156107ed576107ec61058f565b5b6107f98482850161067e565b602083015250604082013567ffffffffffffffff81111561081d5761081c61058f565b5b6108298482850161067e565b604083015250606082013567ffffffffffffffff81111561084d5761084c61058f565b5b6108598482850161067e565b606083015250608082013567ffffffffffffffff81111561087d5761087c61058f565b5b6108898482850161067e565b60808301525060a082013567ffffffffffffffff8111156108ad576108ac61058f565b5b6108b98482850161076b565b60a08301525092915050565b600681106108d257600080fd5b50565b6000813590506108e4816108c5565b92915050565b600381106108f757600080fd5b50565b600081359050610909816108ea565b92915050565b6000819050919050565b6109228161090f565b811461092d57600080fd5b50565b60008135905061093f81610919565b92915050565b600060e0828403121561095b5761095a6104fe565b5b61096560e0610574565b90506000610975848285016105dd565b600083015250602061098984828501610930565b602083015250604082013567ffffffffffffffff8111156109ad576109ac61058f565b5b6109b98482850161067e565b604083015250606082013567ffffffffffffffff8111156109dd576109dc61058f565b5b6109e98482850161067e565b606083015250608082013567ffffffffffffffff811115610a0d57610a0c61058f565b5b610a198482850161067e565b60808301525060a082013567ffffffffffffffff811115610a3d57610a3c61058f565b5b610a498482850161067e565b60a08301525060c082013567ffffffffffffffff811115610a6d57610a6c61058f565b5b610a798482850161067e565b60c08301525092915050565b60006101608284031215610a9c57610a9b6104fe565b5b610aa7610160610574565b9050600082013567ffffffffffffffff811115610ac757610ac661058f565b5b610ad384828501610799565b6000830152506020610ae7848285016106ed565b6020830152506040610afb848285016108d5565b6040830152506060610b0f848285016108fa565b606083015250608082013567ffffffffffffffff811115610b3357610b3261058f565b5b610b3f8482850161067e565b60808301525060a082013567ffffffffffffffff811115610b6357610b6261058f565b5b610b6f8482850161067e565b60a08301525060c0610b8384828501610930565b60c08301525060e0610b9784828501610930565b60e083015250610100610bac84828501610930565b6101008301525061012082013567ffffffffffffffff811115610bd257610bd161058f565b5b610bde84828501610945565b61012083015250610140610bf484828501610930565b6101408301525092915050565b600060208284031215610c1757610c166104f4565b5b600082013567ffffffffffffffff811115610c3557610c346104f9565b5b610c4184828501610a85565b91505092915050565b60008115159050919050565b610c5f81610c4a565b82525050565b6000602082019050610c7a6000830184610c56565b92915050565b600067ffffffffffffffff821115610c9b57610c9a610514565b5b602082029050602081019050919050565b600060a08284031215610cc257610cc16104fe565b5b610ccc60a0610574565b9050600082013567ffffffffffffffff811115610cec57610ceb61058f565b5b610cf88482850161067e565b600083015250602082013567ffffffffffffffff811115610d1c57610d1b61058f565b5b610d288482850161067e565b602083015250604082013567ffffffffffffffff811115610d4c57610d4b61058f565b5b610d588482850161067e565b604083015250606082013567ffffffffffffffff811115610d7c57610d7b61058f565b5b610d888482850161067e565b606083015250608082013567ffffffffffffffff811115610dac57610dab61058f565b5b610db88482850161067e565b60808301525092915050565b6000610dd7610dd284610c80565b610574565b90508083825260208201905060208402830185811115610dfa57610df96106d8565b5b835b81811015610e4157803567ffffffffffffffff811115610e1f57610e1e6105f2565b5b808601610e2c8982610cac565b85526020850194505050602081019050610dfc565b5050509392505050565b600082601f830112610e6057610e5f6105f2565b5b8135610e70848260208601610dc4565b91505092915050565b600060608284031215610e8f57610e8e6104fe565b5b610e996060610574565b9050600082013567ffffffffffffffff811115610eb957610eb861058f565b5b610ec584828501610a85565b600083015250602082013567ffffffffffffffff811115610ee957610ee861058f565b5b610ef584828501610e4b565b6020830152506040610f0984828501610930565b60408301525092915050565b600060208284031215610f2b57610f2a6104f4565b5b600082013567ffffffffffffffff811115610f4957610f486104f9565b5b610f5584828501610e79565b91505092915050565b610f678161090f565b82525050565b6000602082019050610f826000830184610f5e565b92915050565b600081519050610f9781610919565b92915050565b600060208284031215610fb357610fb26104f4565b5b6000610fc184828501610f88565b91505092915050565b60008160601b9050919050565b6000610fe282610fca565b9050919050565b6000610ff482610fd7565b9050919050565b61100c611007826105b4565b610fe9565b82525050565b600081519050919050565b600081905092915050565b60005b8381101561104657808201518184015260208101905061102b565b60008484015250505050565b600061105d82611012565b611067818561101d565b9350611077818560208601611028565b80840191505092915050565b600061108f8288610ffb565b60148201915061109f8287611052565b91506110ab8286611052565b91506110b78285611052565b91506110c38284611052565b91508190509695505050505050565b6000819050919050565b6110ed6110e88261090f565b6110d2565b82525050565b60006110ff828a610ffb565b60148201915061110f82896110dc565b60208201915061111f8288611052565b915061112b8287611052565b91506111378286611052565b91506111438285611052565b915061114f8284611052565b915081905098975050505050505050565b6000819050919050565b6000819050919050565b61118561118082611160565b61116a565b82525050565b7f4e487b7100000000000000000000000000000000000000000000000000000000600052602160045260246000fd5b600981106111cb576111ca61118b565b5b50565b60008190506111dc826111ba565b919050565b60006111ec826111ce565b9050919050565b60008160f81b9050919050565b600061120b826111f3565b9050919050565b61122361121e826111e1565b611200565b82525050565b6006811061123a5761123961118b565b5b50565b600081905061124b82611229565b919050565b600061125b8261123d565b9050919050565b61127361126e82611250565b611200565b82525050565b6003811061128a5761128961118b565b5b50565b600081905061129b82611279565b919050565b60006112ab8261128d565b9050919050565b6112c36112be826112a0565b611200565b82525050565b60006112d5828d611174565b6020820191506112e5828c611174565b6020820191506112f5828b611212565b600182019150611305828a611262565b60018201915061131582896112b2565b6001820191506113258288611052565b91506113318287611052565b915061133d82866110dc565b60208201915061134d82856110dc565b60208201915061135d82846110dc565b6020820191508190509b9a5050505050505050505050565b7f4e487b7100000000000000000000000000000000000000000000000000000000600052603260045260246000fd5b60006113b08289611052565b91506113bc8288611052565b91506113c88287611052565b91506113d48286611052565b91506113e08285611052565b91506113ec8284611174565b602082019150819050979650505050505050565b7f4e487b7100000000000000000000000000000000000000000000000000000000600052601160045260246000fd5b600061143a8261090f565b91507fffffffffffffffffffffffffffffffffffffffffffffffffffffffffffffffff820361146c5761146b611400565b5b600182019050919050565b600061148382856110dc565b6020820191506114938284611174565b602082019150819050939250505056fea264697066735822122000a1fa38fb1f12f8ac45056cb7d445abbffbf299788afd1c0ea7a3a101b6f7cc64736f6c63430008130033",
  "immutableReferences": {},
  "source": "//SPDX-License-Identifier: MIT\npragma solidity ^0.8.0;\n\nimport \"./SchoolDefinition.sol\";\nimport \"./ICertificate.sol\";\nimport \"./schoolhashlib.sol\";\nimport \"./ISchoolSource.sol\";\nimport \"./IVerification.sol\";\n\ncontract Verification is IVerification\n{\n    using Hash_Lib for *; //use hash library\n    ISchoolSource sourceContract;\n\n    constructor(address _source)\n    {\n        sourceContract = ISchoolSource(_source);\n    }\n \n    function verifyGraduatedStudentCertificate(Certificate_Info memory _cert) external override view returns (bool) \n    {\n        uint256 studId = _cert.studentDetails.id;\n        uint256 sig = sourceContract.getGraduatedStudentCertificateSignature(studId);\n        return Hash_Lib.verifyCertificate(_cert, sig);\n    }\n\n    function verifyGraduateStudentTranscript(Transcript_Info memory  _trans) external override view returns (bool)\n    {\n        uint256 studId = _trans.certificate.studentDetails.id;\n        uint256 sig = sourceContract.getGraduatedStudentTranscriptSignature(studId);\n        return Hash_Lib.verifyTranscript(_trans, sig);\n    }\n}",
  "sourcePath": "/Users/zhougaoqiang/Documents/GitHub/SmartCertify/web-app/blockchain/contracts/Verification.sol",
  "compiler": {
    "name": "solc",
    "version": "0.8.19+commit.7dd6d404.Emscripten.clang"
  },
  "schemaVersion": "3.4.16",
  "updatedAt": "2024-03-29T16:51:57.725Z",
  "devdoc": {
    "kind": "dev",
    "methods": {},
    "version": 1
  },
  "userdoc": {
    "kind": "user",
    "methods": {},
    "version": 1
  }
}